{
    "contractName": "ERC721NFTMarketV1",
    "abi": [
        {
            "inputs": [
                {
                    "internalType": "address",
                    "name": "_adminAddress",
                    "type": "address"
                },
                {
                    "internalType": "address",
                    "name": "_treasuryAddress",
                    "type": "address"
                },
                {
                    "internalType": "address",
                    "name": "_WBNBAddress",
                    "type": "address"
                },
                {
                    "internalType": "uint256",
                    "name": "_minimumAskPrice",
                    "type": "uint256"
                },
                {
                    "internalType": "uint256",
                    "name": "_maximumAskPrice",
                    "type": "uint256"
                }
            ],
            "stateMutability": "nonpayable",
            "type": "constructor"
        },
        {
            "anonymous": false,
            "inputs": [
                {
                    "indexed": true,
                    "internalType": "address",
                    "name": "collection",
                    "type": "address"
                },
                {
                    "indexed": true,
                    "internalType": "address",
                    "name": "seller",
                    "type": "address"
                },
                {
                    "indexed": true,
                    "internalType": "uint256",
                    "name": "tokenId",
                    "type": "uint256"
                }
            ],
            "name": "AskCancel",
            "type": "event"
        },
        {
            "anonymous": false,
            "inputs": [
                {
                    "indexed": true,
                    "internalType": "address",
                    "name": "collection",
                    "type": "address"
                },
                {
                    "indexed": true,
                    "internalType": "address",
                    "name": "seller",
                    "type": "address"
                },
                {
                    "indexed": true,
                    "internalType": "uint256",
                    "name": "tokenId",
                    "type": "uint256"
                },
                {
                    "indexed": false,
                    "internalType": "uint256",
                    "name": "askPrice",
                    "type": "uint256"
                }
            ],
            "name": "AskNew",
            "type": "event"
        },
        {
            "anonymous": false,
            "inputs": [
                {
                    "indexed": true,
                    "internalType": "address",
                    "name": "collection",
                    "type": "address"
                },
                {
                    "indexed": true,
                    "internalType": "address",
                    "name": "seller",
                    "type": "address"
                },
                {
                    "indexed": true,
                    "internalType": "uint256",
                    "name": "tokenId",
                    "type": "uint256"
                },
                {
                    "indexed": false,
                    "internalType": "uint256",
                    "name": "askPrice",
                    "type": "uint256"
                }
            ],
            "name": "AskUpdate",
            "type": "event"
        },
        {
            "anonymous": false,
            "inputs": [
                {
                    "indexed": true,
                    "internalType": "address",
                    "name": "collection",
                    "type": "address"
                }
            ],
            "name": "CollectionClose",
            "type": "event"
        },
        {
            "anonymous": false,
            "inputs": [
                {
                    "indexed": true,
                    "internalType": "address",
                    "name": "collection",
                    "type": "address"
                },
                {
                    "indexed": true,
                    "internalType": "address",
                    "name": "creator",
                    "type": "address"
                },
                {
                    "indexed": false,
                    "internalType": "uint256",
                    "name": "tradingFee",
                    "type": "uint256"
                },
                {
                    "indexed": false,
                    "internalType": "uint256",
                    "name": "creatorFee",
                    "type": "uint256"
                }
            ],
            "name": "CollectionNew",
            "type": "event"
        },
        {
            "anonymous": false,
            "inputs": [
                {
                    "indexed": true,
                    "internalType": "address",
                    "name": "collection",
                    "type": "address"
                },
                {
                    "indexed": true,
                    "internalType": "address",
                    "name": "creator",
                    "type": "address"
                },
                {
                    "indexed": false,
                    "internalType": "uint256",
                    "name": "tradingFee",
                    "type": "uint256"
                },
                {
                    "indexed": false,
                    "internalType": "uint256",
                    "name": "creatorFee",
                    "type": "uint256"
                }
            ],
            "name": "CollectionUpdate",
            "type": "event"
        },
        {
            "anonymous": false,
            "inputs": [
                {
                    "indexed": true,
                    "internalType": "address",
                    "name": "admin",
                    "type": "address"
                },
                {
                    "indexed": true,
                    "internalType": "address",
                    "name": "treasury",
                    "type": "address"
                }
            ],
            "name": "NewAdminAndTreasuryAddresses",
            "type": "event"
        },
        {
            "anonymous": false,
            "inputs": [
                {
                    "indexed": false,
                    "internalType": "uint256",
                    "name": "minimumAskPrice",
                    "type": "uint256"
                },
                {
                    "indexed": false,
                    "internalType": "uint256",
                    "name": "maximumAskPrice",
                    "type": "uint256"
                }
            ],
            "name": "NewMinimumAndMaximumAskPrices",
            "type": "event"
        },
        {
            "anonymous": false,
            "inputs": [
                {
                    "indexed": true,
                    "internalType": "address",
                    "name": "token",
                    "type": "address"
                },
                {
                    "indexed": true,
                    "internalType": "uint256",
                    "name": "tokenId",
                    "type": "uint256"
                }
            ],
            "name": "NonFungibleTokenRecovery",
            "type": "event"
        },
        {
            "anonymous": false,
            "inputs": [
                {
                    "indexed": true,
                    "internalType": "address",
                    "name": "previousOwner",
                    "type": "address"
                },
                {
                    "indexed": true,
                    "internalType": "address",
                    "name": "newOwner",
                    "type": "address"
                }
            ],
            "name": "OwnershipTransferred",
            "type": "event"
        },
        {
            "anonymous": false,
            "inputs": [
                {
                    "indexed": true,
                    "internalType": "address",
                    "name": "claimer",
                    "type": "address"
                },
                {
                    "indexed": false,
                    "internalType": "uint256",
                    "name": "amount",
                    "type": "uint256"
                }
            ],
            "name": "RevenueClaim",
            "type": "event"
        },
        {
            "anonymous": false,
            "inputs": [
                {
                    "indexed": true,
                    "internalType": "address",
                    "name": "token",
                    "type": "address"
                },
                {
                    "indexed": false,
                    "internalType": "uint256",
                    "name": "amount",
                    "type": "uint256"
                }
            ],
            "name": "TokenRecovery",
            "type": "event"
        },
        {
            "anonymous": false,
            "inputs": [
                {
                    "indexed": true,
                    "internalType": "address",
                    "name": "collection",
                    "type": "address"
                },
                {
                    "indexed": true,
                    "internalType": "uint256",
                    "name": "tokenId",
                    "type": "uint256"
                },
                {
                    "indexed": true,
                    "internalType": "address",
                    "name": "seller",
                    "type": "address"
                },
                {
                    "indexed": false,
                    "internalType": "address",
                    "name": "buyer",
                    "type": "address"
                },
                {
                    "indexed": false,
                    "internalType": "uint256",
                    "name": "askPrice",
                    "type": "uint256"
                },
                {
                    "indexed": false,
                    "internalType": "uint256",
                    "name": "netPrice",
                    "type": "uint256"
                },
                {
                    "indexed": false,
                    "internalType": "bool",
                    "name": "withBNB",
                    "type": "bool"
                }
            ],
            "name": "Trade",
            "type": "event"
        },
        {
            "inputs": [],
            "name": "TOTAL_MAX_FEE",
            "outputs": [
                {
                    "internalType": "uint256",
                    "name": "",
                    "type": "uint256"
                }
            ],
            "stateMutability": "view",
            "type": "function"
        },
        {
            "inputs": [],
            "name": "WBNB",
            "outputs": [
                {
                    "internalType": "address",
                    "name": "",
                    "type": "address"
                }
            ],
            "stateMutability": "view",
            "type": "function"
        },
        {
            "inputs": [
                {
                    "internalType": "address",
                    "name": "_collection",
                    "type": "address"
                },
                {
                    "internalType": "address",
                    "name": "_creator",
                    "type": "address"
                },
                {
                    "internalType": "uint256",
                    "name": "_tradingFee",
                    "type": "uint256"
                },
                {
                    "internalType": "uint256",
                    "name": "_creatorFee",
                    "type": "uint256"
                }
            ],
            "name": "addCollection",
            "outputs": [],
            "stateMutability": "nonpayable",
            "type": "function"
        },
        {
            "inputs": [],
            "name": "adminAddress",
            "outputs": [
                {
                    "internalType": "address",
                    "name": "",
                    "type": "address"
                }
            ],
            "stateMutability": "view",
            "type": "function"
        },
        {
            "inputs": [
                {
                    "internalType": "address",
                    "name": "_collection",
                    "type": "address"
                },
                {
                    "internalType": "uint256",
                    "name": "_tokenId",
                    "type": "uint256"
                }
            ],
            "name": "buyTokenUsingBNB",
            "outputs": [],
            "stateMutability": "payable",
            "type": "function"
        },
        {
            "inputs": [
                {
                    "internalType": "address",
                    "name": "_collection",
                    "type": "address"
                },
                {
                    "internalType": "uint256",
                    "name": "_tokenId",
                    "type": "uint256"
                },
                {
                    "internalType": "uint256",
                    "name": "_price",
                    "type": "uint256"
                }
            ],
            "name": "buyTokenUsingWBNB",
            "outputs": [],
            "stateMutability": "nonpayable",
            "type": "function"
        },
        {
            "inputs": [
                {
                    "internalType": "address",
                    "name": "collection",
                    "type": "address"
                },
                {
                    "internalType": "uint256",
                    "name": "price",
                    "type": "uint256"
                }
            ],
            "name": "calculatePriceAndFeesForCollection",
            "outputs": [
                {
                    "internalType": "uint256",
                    "name": "netPrice",
                    "type": "uint256"
                },
                {
                    "internalType": "uint256",
                    "name": "tradingFee",
                    "type": "uint256"
                },
                {
                    "internalType": "uint256",
                    "name": "creatorFee",
                    "type": "uint256"
                }
            ],
            "stateMutability": "view",
            "type": "function"
        },
        {
            "inputs": [
                {
                    "internalType": "address",
                    "name": "_collection",
                    "type": "address"
                },
                {
                    "internalType": "uint256",
                    "name": "_tokenId",
                    "type": "uint256"
                }
            ],
            "name": "cancelAskOrder",
            "outputs": [],
            "stateMutability": "nonpayable",
            "type": "function"
        },
        {
            "inputs": [],
            "name": "claimPendingRevenue",
            "outputs": [],
            "stateMutability": "nonpayable",
            "type": "function"
        },
        {
            "inputs": [
                {
                    "internalType": "address",
                    "name": "_collection",
                    "type": "address"
                }
            ],
            "name": "closeCollectionForTradingAndListing",
            "outputs": [],
            "stateMutability": "nonpayable",
            "type": "function"
        },
        {
            "inputs": [
                {
                    "internalType": "address",
                    "name": "_collection",
                    "type": "address"
                },
                {
                    "internalType": "uint256",
                    "name": "_tokenId",
                    "type": "uint256"
                },
                {
                    "internalType": "uint256",
                    "name": "_askPrice",
                    "type": "uint256"
                }
            ],
            "name": "createAskOrder",
            "outputs": [],
            "stateMutability": "nonpayable",
            "type": "function"
        },
        {
            "inputs": [],
            "name": "maximumAskPrice",
            "outputs": [
                {
                    "internalType": "uint256",
                    "name": "",
                    "type": "uint256"
                }
            ],
            "stateMutability": "view",
            "type": "function"
        },
        {
            "inputs": [],
            "name": "minimumAskPrice",
            "outputs": [
                {
                    "internalType": "uint256",
                    "name": "",
                    "type": "uint256"
                }
            ],
            "stateMutability": "view",
            "type": "function"
        },
        {
            "inputs": [
                {
                    "internalType": "address",
                    "name": "_collection",
                    "type": "address"
                },
                {
                    "internalType": "uint256",
                    "name": "_tokenId",
                    "type": "uint256"
                },
                {
                    "internalType": "uint256",
                    "name": "_newPrice",
                    "type": "uint256"
                }
            ],
            "name": "modifyAskOrder",
            "outputs": [],
            "stateMutability": "nonpayable",
            "type": "function"
        },
        {
            "inputs": [
                {
                    "internalType": "address",
                    "name": "_collection",
                    "type": "address"
                },
                {
                    "internalType": "address",
                    "name": "_creator",
                    "type": "address"
                },
                {
                    "internalType": "uint256",
                    "name": "_tradingFee",
                    "type": "uint256"
                },
                {
                    "internalType": "uint256",
                    "name": "_creatorFee",
                    "type": "uint256"
                }
            ],
            "name": "modifyCollection",
            "outputs": [],
            "stateMutability": "nonpayable",
            "type": "function"
        },
        {
            "inputs": [
                {
                    "internalType": "address",
                    "name": "",
                    "type": "address"
                },
                {
                    "internalType": "address",
                    "name": "",
                    "type": "address"
                },
                {
                    "internalType": "uint256",
                    "name": "",
                    "type": "uint256"
                },
                {
                    "internalType": "bytes",
                    "name": "",
                    "type": "bytes"
                }
            ],
            "name": "onERC721Received",
            "outputs": [
                {
                    "internalType": "bytes4",
                    "name": "",
                    "type": "bytes4"
                }
            ],
            "stateMutability": "nonpayable",
            "type": "function"
        },
        {
            "inputs": [],
            "name": "owner",
            "outputs": [
                {
                    "internalType": "address",
                    "name": "",
                    "type": "address"
                }
            ],
            "stateMutability": "view",
            "type": "function"
        },
        {
            "inputs": [
                {
                    "internalType": "address",
                    "name": "",
                    "type": "address"
                }
            ],
            "name": "pendingRevenue",
            "outputs": [
                {
                    "internalType": "uint256",
                    "name": "",
                    "type": "uint256"
                }
            ],
            "stateMutability": "view",
            "type": "function"
        },
        {
            "inputs": [
                {
                    "internalType": "address",
                    "name": "_token",
                    "type": "address"
                }
            ],
            "name": "recoverFungibleTokens",
            "outputs": [],
            "stateMutability": "nonpayable",
            "type": "function"
        },
        {
            "inputs": [
                {
                    "internalType": "address",
                    "name": "_token",
                    "type": "address"
                },
                {
                    "internalType": "uint256",
                    "name": "_tokenId",
                    "type": "uint256"
                }
            ],
            "name": "recoverNonFungibleToken",
            "outputs": [],
            "stateMutability": "nonpayable",
            "type": "function"
        },
        {
            "inputs": [],
            "name": "renounceOwnership",
            "outputs": [],
            "stateMutability": "nonpayable",
            "type": "function"
        },
        {
            "inputs": [
                {
                    "internalType": "address",
                    "name": "_adminAddress",
                    "type": "address"
                },
                {
                    "internalType": "address",
                    "name": "_treasuryAddress",
                    "type": "address"
                }
            ],
            "name": "setAdminAndTreasuryAddresses",
            "outputs": [],
            "stateMutability": "nonpayable",
            "type": "function"
        },
        {
            "inputs": [
                {
                    "internalType": "address",
                    "name": "newOwner",
                    "type": "address"
                }
            ],
            "name": "transferOwnership",
            "outputs": [],
            "stateMutability": "nonpayable",
            "type": "function"
        },
        {
            "inputs": [],
            "name": "treasuryAddress",
            "outputs": [
                {
                    "internalType": "address",
                    "name": "",
                    "type": "address"
                }
            ],
            "stateMutability": "view",
            "type": "function"
        },
        {
            "inputs": [
                {
                    "internalType": "uint256",
                    "name": "_minimumAskPrice",
                    "type": "uint256"
                },
                {
                    "internalType": "uint256",
                    "name": "_maximumAskPrice",
                    "type": "uint256"
                }
            ],
            "name": "updateMinimumAndMaximumPrices",
            "outputs": [],
            "stateMutability": "nonpayable",
            "type": "function"
        },
        {
            "inputs": [
                {
                    "internalType": "address",
                    "name": "collection",
                    "type": "address"
                },
                {
                    "internalType": "uint256",
                    "name": "cursor",
                    "type": "uint256"
                },
                {
                    "internalType": "uint256",
                    "name": "size",
                    "type": "uint256"
                }
            ],
            "name": "viewAsksByCollection",
            "outputs": [
                {
                    "internalType": "uint256[]",
                    "name": "tokenIds",
                    "type": "uint256[]"
                },
                {
                    "components": [
                        {
                            "internalType": "address",
                            "name": "seller",
                            "type": "address"
                        },
                        {
                            "internalType": "uint256",
                            "name": "price",
                            "type": "uint256"
                        }
                    ],
                    "internalType": "struct ERC721NFTMarketV1.Ask[]",
                    "name": "askInfo",
                    "type": "tuple[]"
                },
                {
                    "internalType": "uint256",
                    "name": "",
                    "type": "uint256"
                }
            ],
            "stateMutability": "view",
            "type": "function"
        },
        {
            "inputs": [
                {
                    "internalType": "address",
                    "name": "collection",
                    "type": "address"
                },
                {
                    "internalType": "address",
                    "name": "seller",
                    "type": "address"
                },
                {
                    "internalType": "uint256",
                    "name": "cursor",
                    "type": "uint256"
                },
                {
                    "internalType": "uint256",
                    "name": "size",
                    "type": "uint256"
                }
            ],
            "name": "viewAsksByCollectionAndSeller",
            "outputs": [
                {
                    "internalType": "uint256[]",
                    "name": "tokenIds",
                    "type": "uint256[]"
                },
                {
                    "components": [
                        {
                            "internalType": "address",
                            "name": "seller",
                            "type": "address"
                        },
                        {
                            "internalType": "uint256",
                            "name": "price",
                            "type": "uint256"
                        }
                    ],
                    "internalType": "struct ERC721NFTMarketV1.Ask[]",
                    "name": "askInfo",
                    "type": "tuple[]"
                },
                {
                    "internalType": "uint256",
                    "name": "",
                    "type": "uint256"
                }
            ],
            "stateMutability": "view",
            "type": "function"
        },
        {
            "inputs": [
                {
                    "internalType": "address",
                    "name": "collection",
                    "type": "address"
                },
                {
                    "internalType": "uint256[]",
                    "name": "tokenIds",
                    "type": "uint256[]"
                }
            ],
            "name": "viewAsksByCollectionAndTokenIds",
            "outputs": [
                {
                    "internalType": "bool[]",
                    "name": "statuses",
                    "type": "bool[]"
                },
                {
                    "components": [
                        {
                            "internalType": "address",
                            "name": "seller",
                            "type": "address"
                        },
                        {
                            "internalType": "uint256",
                            "name": "price",
                            "type": "uint256"
                        }
                    ],
                    "internalType": "struct ERC721NFTMarketV1.Ask[]",
                    "name": "askInfo",
                    "type": "tuple[]"
                }
            ],
            "stateMutability": "view",
            "type": "function"
        },
        {
            "inputs": [
                {
                    "internalType": "uint256",
                    "name": "cursor",
                    "type": "uint256"
                },
                {
                    "internalType": "uint256",
                    "name": "size",
                    "type": "uint256"
                }
            ],
            "name": "viewCollections",
            "outputs": [
                {
                    "internalType": "address[]",
                    "name": "collectionAddresses",
                    "type": "address[]"
                },
                {
                    "components": [
                        {
                            "internalType": "enum ERC721NFTMarketV1.CollectionStatus",
                            "name": "status",
                            "type": "uint8"
                        },
                        {
                            "internalType": "address",
                            "name": "creatorAddress",
                            "type": "address"
                        },
                        {
                            "internalType": "uint256",
                            "name": "tradingFee",
                            "type": "uint256"
                        },
                        {
                            "internalType": "uint256",
                            "name": "creatorFee",
                            "type": "uint256"
                        }
                    ],
                    "internalType": "struct ERC721NFTMarketV1.Collection[]",
                    "name": "collectionDetails",
                    "type": "tuple[]"
                },
                {
                    "internalType": "uint256",
                    "name": "",
                    "type": "uint256"
                }
            ],
            "stateMutability": "view",
            "type": "function"
        }
    ],
    "bytecode": "60a06040523480156200001157600080fd5b506040516200371838038062003718833981016040819052620000349162000301565b6200003f3362000294565b600180556001600160a01b038516620000b05760405162461bcd60e51b815260206004820152602860248201527f4f7065726174696f6e733a2041646d696e20616464726573732063616e6e6f74604482015267206265207a65726f60c01b60648201526084015b60405180910390fd5b6001600160a01b0384166200011c5760405162461bcd60e51b815260206004820152602b60248201527f4f7065726174696f6e733a20547265617375727920616464726573732063616e60448201526a6e6f74206265207a65726f60a81b6064820152608401620000a7565b6001600160a01b038316620001845760405162461bcd60e51b815260206004820152602760248201527f4f7065726174696f6e733a2057424e4220616464726573732063616e6e6f74206044820152666265207a65726f60c81b6064820152608401620000a7565b60008211620001e75760405162461bcd60e51b815260206004820152602860248201527f4f7065726174696f6e733a205f6d696e696d756d41736b5072696365206d7573604482015267074206265203e20360c41b6064820152608401620000a7565b808210620002505760405162461bcd60e51b815260206004820152602f60248201527f4f7065726174696f6e733a205f6d696e696d756d41736b5072696365203c205f60448201526e6d6178696d756d41736b507269636560881b6064820152608401620000a7565b600280546001600160a01b03199081166001600160a01b0397881617909155600380549091169486169490941790935592166080526004919091556005556200035e565b600080546001600160a01b038381166001600160a01b0319831681178455604051919092169283917f8be0079c531659141344cd1fd0a4f28419497f9722a3daafe3b4186f6b6457e09190a35050565b80516001600160a01b0381168114620002fc57600080fd5b919050565b600080600080600060a086880312156200031a57600080fd5b6200032586620002e4565b94506200033560208701620002e4565b93506200034560408701620002e4565b6060870151608090970151959894975095949392505050565b60805161337b6200039d600039600081816103de015281816107f501528181611b710152818161207b01528181612180015261266c015261337b6000f3fe6080604052600436106101c25760003560e01c806395f42098116100f7578063bb0fd14711610095578063ed140e8611610064578063ed140e8614610566578063f2fde38b14610586578063fb9fe938146105a6578063fc6f9468146105b957600080fd5b8063bb0fd147146104e6578063c5f956af14610506578063d286ef7414610526578063ddf9ba6f1461054657600080fd5b80639e0140c8116100d15780639e0140c814610456578063b2ea393114610491578063b3936e6b146104b1578063b6c1d2cf146104d157600080fd5b806395f420981461040057806398a5155a146104205780639b2adcdc1461043657600080fd5b8063715018a611610164578063803b64a11161013e578063803b64a11461034b57806384a408641461036b5780638da5cb5b1461039a5780638dd95002146103cc57600080fd5b8063715018a6146102f657806376a9dfea1461030b578063791e80181461032b57600080fd5b806322f67b6d116101a057806322f67b6d146102615780633ffd17811461028f5780634f06d441146102b157806351c383ea146102c757600080fd5b8063150b7a02146101c7578063209cbe7e1461021057806320b6b2fc14610234575b600080fd5b3480156101d357600080fd5b506101f26101e2366004612bc6565b630a85bd0160e11b949350505050565b6040516001600160e01b031990911681526020015b60405180910390f35b34801561021c57600080fd5b506102266103e881565b604051908152602001610207565b34801561024057600080fd5b5061022661024f366004612ca2565b60066020526000908152604090205481565b34801561026d57600080fd5b5061028161027c366004612cbd565b6105d9565b604051610207929190612d92565b34801561029b57600080fd5b506102af6102aa366004612ca2565b6107c0565b005b3480156102bd57600080fd5b5061022660045481565b3480156102d357600080fd5b506102e76102e2366004612deb565b61098c565b60405161020793929190612e23565b34801561030257600080fd5b506102af610bb3565b34801561031757600080fd5b506102af610326366004612ef6565b610be9565b34801561033757600080fd5b506102af610346366004612f38565b610e9b565b34801561035757600080fd5b506102af610366366004612f6b565b610ff4565b34801561037757600080fd5b5061038b610386366004612f6b565b611245565b60405161020793929190612f9e565b3480156103a657600080fd5b506000546001600160a01b03165b6040516001600160a01b039091168152602001610207565b3480156103d857600080fd5b506103b47f000000000000000000000000000000000000000000000000000000000000000081565b34801561040c57600080fd5b506102af61041b366004612ffd565b61146f565b34801561042c57600080fd5b5061022660055481565b34801561044257600080fd5b506102af610451366004612f6b565b611623565b34801561046257600080fd5b50610476610471366004612ffd565b6117f6565b60408051938452602084019290925290820152606001610207565b34801561049d57600080fd5b506102af6104ac366004612deb565b611853565b3480156104bd57600080fd5b506102af6104cc366004612ef6565b61192b565b3480156104dd57600080fd5b506102af611ad4565b3480156104f257600080fd5b506102af610501366004612ffd565b611bdc565b34801561051257600080fd5b506003546103b4906001600160a01b031681565b34801561053257600080fd5b5061038b610541366004612ef6565b611d3c565b34801561055257600080fd5b506102af610561366004612ca2565b611f90565b34801561057257600080fd5b506102af610581366004612f6b565b612047565b34801561059257600080fd5b506102af6105a1366004612ca2565b6120b9565b6102af6105b4366004612ffd565b612154565b3480156105c557600080fd5b506002546103b4906001600160a01b031681565b606080828067ffffffffffffffff8111156105f6576105f6612bb0565b60405190808252806020026020018201604052801561061f578160200160208202803683370190505b5092508067ffffffffffffffff81111561063b5761063b612bb0565b60405190808252806020026020018201604052801561068057816020015b60408051808201909152600080825260208201528152602001906001900390816106595790505b50915060005b818110156107b6576106ca8686838181106106a3576106a3613027565b6001600160a01b038b166000908152600a6020908152604090912093910201359050612207565b156106f85760018482815181106106e3576106e3613027565b9115156020928302919091019091015261071d565b600084828151811061070c5761070c613027565b911515602092830291909101909101525b6001600160a01b03871660009081526009602052604081209087878481811061074857610748613027565b60209081029290920135835250818101929092526040908101600020815180830190925280546001600160a01b031682526001015491810191909152835184908390811061079857610798613027565b602002602001018190525080806107ae90613053565b915050610686565b5050935093915050565b6000546001600160a01b031633146107f35760405162461bcd60e51b81526004016107ea9061306c565b60405180910390fd5b7f00000000000000000000000000000000000000000000000000000000000000006001600160a01b0316816001600160a01b0316036108745760405162461bcd60e51b815260206004820152601f60248201527f4f7065726174696f6e733a2043616e6e6f74207265636f7665722057424e420060448201526064016107ea565b6040516370a0823160e01b81523060048201526000906001600160a01b038316906370a0823190602401602060405180830381865afa1580156108bb573d6000803e3d6000fd5b505050506040513d601f19601f820116820180604052508101906108df91906130a1565b9050806000036109315760405162461bcd60e51b815260206004820152601f60248201527f4f7065726174696f6e733a204e6f20746f6b656e20746f207265636f7665720060448201526064016107ea565b6109456001600160a01b0383163383612224565b816001600160a01b03167f14f11966a996e0629572e51064726d2057a80fbd34efc066682c06a71dbb6e988260405161098091815260200190565b60405180910390a25050565b6060806000838561099d600761228c565b6109a791906130ba565b8111156109c657856109b9600761228c565b6109c391906130ba565b90505b8067ffffffffffffffff8111156109df576109df612bb0565b604051908082528060200260200182016040528015610a08578160200160208202803683370190505b5093508067ffffffffffffffff811115610a2457610a24612bb0565b604051908082528060200260200182016040528015610a7657816020015b604080516080810182526000808252602080830182905292820181905260608201528252600019909201910181610a425790505b50925060005b81811015610b9757610a99610a9182896130d1565b600790612296565b858281518110610aab57610aab613027565b60200260200101906001600160a01b031690816001600160a01b031681525050600b6000868381518110610ae157610ae1613027565b6020908102919091018101516001600160a01b0316825281019190915260409081016000208151608081019092528054829060ff166002811115610b2757610b27612e0d565b6002811115610b3857610b38612e0d565b8152815461010090046001600160a01b03166020820152600182015460408201526002909101546060909101528451859083908110610b7957610b79613027565b60200260200101819052508080610b8f90613053565b915050610a7c565b508383610ba483896130d1565b935093509350505b9250925092565b6000546001600160a01b03163314610bdd5760405162461bcd60e51b81526004016107ea9061306c565b610be760006122a2565b565b6002546001600160a01b03163314610c135760405162461bcd60e51b81526004016107ea906130e9565b610c1e6007856122f2565b15610c795760405162461bcd60e51b815260206004820152602560248201527f4f7065726174696f6e733a20436f6c6c656374696f6e20616c7265616479206c6044820152641a5cdd195960da1b60648201526084016107ea565b6040516301ffc9a760e01b81526380ac58cd60e01b60048201526001600160a01b038516906301ffc9a790602401602060405180830381865afa158015610cc4573d6000803e3d6000fd5b505050506040513d601f19601f82011682018060405250810190610ce89190613118565b610d2d5760405162461bcd60e51b81526020600482015260166024820152754f7065726174696f6e733a204e6f742045524337323160501b60448201526064016107ea565b80158015610d4257506001600160a01b038316155b80610d5f57508015801590610d5f57506001600160a01b03831615155b610d7b5760405162461bcd60e51b81526004016107ea9061313a565b6103e8610d8882846130d1565b1115610da65760405162461bcd60e51b81526004016107ea90613182565b610db1600785612314565b50604080516080810190915280600181526001600160a01b03808616602080840191909152604080840187905260609093018590529087166000908152600b9091522081518154829060ff19166001836002811115610e1257610e12612e0d565b02179055506020828101518254610100600160a81b0319166101006001600160a01b03928316021783556040808501516001850155606090940151600290930192909255825185815290810184905285821692918716917f0f8d5c9d40f5de1902e8d1681ff46ee2dbb06a10bca51e6c8991a8b8df4dd3d891015b60405180910390a350505050565b6000546001600160a01b03163314610ec55760405162461bcd60e51b81526004016107ea9061306c565b6001600160a01b038216610f2c5760405162461bcd60e51b815260206004820152602860248201527f4f7065726174696f6e733a2041646d696e20616464726573732063616e6e6f74604482015267206265207a65726f60c01b60648201526084016107ea565b6001600160a01b038116610f965760405162461bcd60e51b815260206004820152602b60248201527f4f7065726174696f6e733a20547265617375727920616464726573732063616e60448201526a6e6f74206265207a65726f60a81b60648201526084016107ea565b600280546001600160a01b03199081166001600160a01b03858116918217909355600380549092169284169283179091556040517f2a1b1d9b1cb634e511bbf940f66e95082249486cf37efdb4bccba1c5f4c00b9b90600090a35050565b6002600154036110165760405162461bcd60e51b81526004016107ea906131d7565b6002600155600454811080159061102f57506005548111155b61107b5760405162461bcd60e51b815260206004820152601d60248201527f4f726465723a205072696365206e6f742077697468696e2072616e676500000060448201526064016107ea565b60016001600160a01b0384166000908152600b602052604090205460ff1660028111156110aa576110aa612e0d565b146110f75760405162461bcd60e51b815260206004820152601b60248201527f436f6c6c656374696f6e3a204e6f7420666f72206c697374696e67000000000060448201526064016107ea565b604051632142170760e11b81526001600160a01b038416906342842e0e906111279033903090879060040161320e565b600060405180830381600087803b15801561114157600080fd5b505af1158015611155573d6000803e3d6000fd5b5050336000908152600c602090815260408083206001600160a01b038916845290915290206111879250905083612329565b5060408051808201825233815260208082018481526001600160a01b038781166000818152600985528681208982528552868120955186546001600160a01b031916931692909217855591516001909401939093558252600a9052206111ed9083612329565b5081336001600160a01b0316846001600160a01b03167faa0431463bb62c812c04a1e5310cf43dd9baedc7a8eab71e02f572c741467e8c8460405161123491815260200190565b60405180910390a450506001805550565b6001600160a01b0383166000908152600a6020526040812060609182918490869061126f9061228c565b61127991906130ba565b8111156112b0576001600160a01b0387166000908152600a6020526040902086906112a39061228c565b6112ad91906130ba565b90505b8067ffffffffffffffff8111156112c9576112c9612bb0565b6040519080825280602002602001820160405280156112f2578160200160208202803683370190505b5093508067ffffffffffffffff81111561130e5761130e612bb0565b60405190808252806020026020018201604052801561135357816020015b604080518082019091526000808252602082015281526020019060019003908161132c5790505b50925060005b818110156114525761138c61136e82896130d1565b6001600160a01b038a166000908152600a6020526040902090612296565b85828151811061139e5761139e613027565b60200260200101818152505060096000896001600160a01b03166001600160a01b0316815260200190815260200160002060008683815181106113e3576113e3613027565b6020908102919091018101518252818101929092526040908101600020815180830190925280546001600160a01b031682526001015491810191909152845185908390811061143457611434613027565b6020026020010181905250808061144a90613053565b915050611359565b50838361145f83896130d1565b9350935093505093509350939050565b6002600154036114915760405162461bcd60e51b81526004016107ea906131d7565b6002600155336000908152600c602090815260408083206001600160a01b038616845290915290206114c39082612207565b6115095760405162461bcd60e51b815260206004820152601760248201527613dc99195c8e88151bdad95b881b9bdd081b1a5cdd1959604a1b60448201526064016107ea565b336000908152600c602090815260408083206001600160a01b038616845290915290206115369082612335565b506001600160a01b0382166000818152600960209081526040808320858452825280832080546001600160a01b0319168155600101839055928252600a9052206115809082612335565b506040516323b872dd60e01b81526001600160a01b038316906323b872dd906115b19030903390869060040161320e565b600060405180830381600087803b1580156115cb57600080fd5b505af11580156115df573d6000803e3d6000fd5b50506040518392503391506001600160a01b038516907fa5764ea233325154a6388255c54b9f302ec2ed8586af0a9a606cd64e88298eb790600090a4505060018055565b6002600154036116455760405162461bcd60e51b81526004016107ea906131d7565b6002600155600454811080159061165e57506005548111155b6116aa5760405162461bcd60e51b815260206004820152601d60248201527f4f726465723a205072696365206e6f742077697468696e2072616e676500000060448201526064016107ea565b60016001600160a01b0384166000908152600b602052604090205460ff1660028111156116d9576116d9612e0d565b146117265760405162461bcd60e51b815260206004820152601b60248201527f436f6c6c656374696f6e3a204e6f7420666f72206c697374696e67000000000060448201526064016107ea565b336000908152600c602090815260408083206001600160a01b038716845290915290206117539083612207565b6117995760405162461bcd60e51b815260206004820152601760248201527613dc99195c8e88151bdad95b881b9bdd081b1a5cdd1959604a1b60448201526064016107ea565b6001600160a01b038316600081815260096020908152604080832086845282529182902060010184905590518381528492339290917f492437c0ade072acdf12e63a19d8df68bb5e414e2098dc470239df87702343ea9101611234565b6000808060016001600160a01b0386166000908152600b602052604090205460ff16600281111561182957611829612e0d565b1461183c57506000915081905080610bac565b6118468585612341565b9250925092509250925092565b6002546001600160a01b0316331461187d5760405162461bcd60e51b81526004016107ea906130e9565b8082106118e45760405162461bcd60e51b815260206004820152602f60248201527f4f7065726174696f6e733a205f6d696e696d756d41736b5072696365203c205f60448201526e6d6178696d756d41736b507269636560881b60648201526084016107ea565b6004829055600581905560408051838152602081018390527fb25b7c478b617cc7fb07f97a49dc7dcba200dae3abbcb0aa17216e2ae6deaef7910160405180910390a15050565b6002546001600160a01b031633146119555760405162461bcd60e51b81526004016107ea906130e9565b6119606007856122f2565b61197c5760405162461bcd60e51b81526004016107ea90613232565b8015801561199157506001600160a01b038316155b806119ae575080158015906119ae57506001600160a01b03831615155b6119ca5760405162461bcd60e51b81526004016107ea9061313a565b6103e86119d782846130d1565b11156119f55760405162461bcd60e51b81526004016107ea90613182565b604080516080810190915280600181526001600160a01b03808616602080840191909152604080840187905260609093018590529087166000908152600b9091522081518154829060ff19166001836002811115611a5557611a55612e0d565b02179055506020828101518254610100600160a81b0319166101006001600160a01b03928316021783556040808501516001850155606090940151600290930192909255825185815290810184905285821692918716917fbaac70977eb562584145ae1c07668f97e6e13a57f046dbf8e390e402e1be2e3c9101610e8d565b600260015403611af65760405162461bcd60e51b81526004016107ea906131d7565b60026001553360009081526006602052604081205490819003611b5b5760405162461bcd60e51b815260206004820152601760248201527f436c61696d3a204e6f7468696e6720746f20636c61696d00000000000000000060448201526064016107ea565b33600081815260066020526040812055611ba0907f00000000000000000000000000000000000000000000000000000000000000006001600160a01b03169083612224565b60405181815233907fc6cb6f1a9d5212d4ee3819d9b175a85e8333a7327d53dfbc1b610e1fd8ec3cb59060200160405180910390a25060018055565b6000546001600160a01b03163314611c065760405162461bcd60e51b81526004016107ea9061306c565b600260015403611c285760405162461bcd60e51b81526004016107ea906131d7565b60026001556001600160a01b0382166000908152600a60205260409020611c4f9082612207565b15611c9c5760405162461bcd60e51b815260206004820152601f60248201527f4f7065726174696f6e733a204e4654206e6f74207265636f76657261626c650060448201526064016107ea565b604051632142170760e11b81526001600160a01b038316906342842e0e90611ccc9030903390869060040161320e565b600060405180830381600087803b158015611ce657600080fd5b505af1158015611cfa573d6000803e3d6000fd5b50506040518392506001600160a01b03851691507f861c3ea25dbda3af0bf5d258ba8582c0276c9446b1479e817be3f1b4a89acf9190600090a3505060018055565b6001600160a01b038084166000908152600c602090815260408083209388168352929052908120606091829184908690611d759061228c565b611d7f91906130ba565b811115611dc3576001600160a01b038088166000908152600c60209081526040808320938c168352929052208690611db69061228c565b611dc091906130ba565b90505b8067ffffffffffffffff811115611ddc57611ddc612bb0565b604051908082528060200260200182016040528015611e05578160200160208202803683370190505b5093508067ffffffffffffffff811115611e2157611e21612bb0565b604051908082528060200260200182016040528015611e6657816020015b6040805180820190915260008082526020820152815260200190600190039081611e3f5790505b50925060005b81811015611f7257611eac611e8182896130d1565b6001600160a01b03808b166000908152600c60209081526040808320938f1683529290522090612296565b858281518110611ebe57611ebe613027565b602002602001018181525050600960008a6001600160a01b03166001600160a01b031681526020019081526020016000206000868381518110611f0357611f03613027565b6020908102919091018101518252818101929092526040908101600020815180830190925280546001600160a01b0316825260010154918101919091528451859083908110611f5457611f54613027565b60200260200101819052508080611f6a90613053565b915050611e6c565b508383611f7f83896130d1565b935093509350509450945094915050565b6002546001600160a01b03163314611fba5760405162461bcd60e51b81526004016107ea906130e9565b611fc56007826122f2565b611fe15760405162461bcd60e51b81526004016107ea90613232565b6001600160a01b0381166000908152600b60205260409020805460ff1916600217905561200f6007826123d0565b506040516001600160a01b038216907ff6df65a3d7d931af345d93f0420a22e8910de36c0d027c1d1ac93d5be509f5a990600090a250565b6002600154036120695760405162461bcd60e51b81526004016107ea906131d7565b60026001556120a36001600160a01b037f0000000000000000000000000000000000000000000000000000000000000000163330846123e5565b6120b0838383600061240c565b50506001805550565b6000546001600160a01b031633146120e35760405162461bcd60e51b81526004016107ea9061306c565b6001600160a01b0381166121485760405162461bcd60e51b815260206004820152602660248201527f4f776e61626c653a206e6577206f776e657220697320746865207a65726f206160448201526564647265737360d01b60648201526084016107ea565b612151816122a2565b50565b6002600154036121765760405162461bcd60e51b81526004016107ea906131d7565b60026001819055507f00000000000000000000000000000000000000000000000000000000000000006001600160a01b031663d0e30db0346040518263ffffffff1660e01b81526004016000604051808303818588803b1580156121d957600080fd5b505af11580156121ed573d6000803e3d6000fd5b50505050506121ff828234600161240c565b505060018055565b600081815260018301602052604081205415155b90505b92915050565b6040516001600160a01b03831660248201526044810182905261228790849063a9059cbb60e01b906064015b60408051601f198184030181529190526020810180516001600160e01b03166001600160e01b0319909316929092179091526127dc565b505050565b600061221e825490565b600061221b83836128ae565b600080546001600160a01b038381166001600160a01b0319831681178455604051919092169283917f8be0079c531659141344cd1fd0a4f28419497f9722a3daafe3b4186f6b6457e09190a35050565b6001600160a01b0381166000908152600183016020526040812054151561221b565b600061221b836001600160a01b0384166128d8565b600061221b83836128d8565b600061221b8383612927565b6001600160a01b0382166000908152600b6020526040812060010154819081906127109061236f9086613273565b6123799190613292565b6001600160a01b0386166000908152600b6020526040902060020154909250612710906123a69086613273565b6123b09190613292565b9050806123bd83866130ba565b6123c791906130ba565b92509250925092565b600061221b836001600160a01b038416612927565b612406846323b872dd60e01b8585856040516024016122509392919061320e565b50505050565b60016001600160a01b0385166000908152600b602052604090205460ff16600281111561243b5761243b612e0d565b146124885760405162461bcd60e51b815260206004820152601b60248201527f436f6c6c656374696f6e3a204e6f7420666f722074726164696e67000000000060448201526064016107ea565b6001600160a01b0384166000908152600a602052604090206124aa9084612207565b6124ea5760405162461bcd60e51b81526020600482015260116024820152704275793a204e6f7420666f722073616c6560781b60448201526064016107ea565b6001600160a01b0380851660009081526009602090815260408083208784528252918290208251808401909352805490931682526001909201549181018290529083146125705760405162461bcd60e51b81526020600482015260146024820152734275793a20496e636f727265637420707269636560601b60448201526064016107ea565b80516001600160a01b031633036125c95760405162461bcd60e51b815260206004820152601b60248201527f4275793a2042757965722063616e6e6f742062652073656c6c6572000000000060448201526064016107ea565b60008060006125d88887612341565b86516001600160a01b039081166000908152600c60209081526040808320938f1683529290522092955090935091506126119088612335565b506001600160a01b03881660008181526009602090815260408083208b8452825280832080546001600160a01b0319168155600101839055928252600a90522061265b9088612335565b508351612693906001600160a01b037f0000000000000000000000000000000000000000000000000000000000000000169085612224565b80156126dd576001600160a01b038089166000908152600b6020908152604080832054610100900490931682526006905290812080548392906126d79084906130d1565b90915550505b8115612713576003546001600160a01b03166000908152600660205260408120805484929061270d9084906130d1565b90915550505b604051632142170760e11b81526001600160a01b038916906342842e0e9061274390309033908c9060040161320e565b600060405180830381600087803b15801561275d57600080fd5b505af1158015612771573d6000803e3d6000fd5b5050855160408051338152602081018b905290810187905288151560608201526001600160a01b0391821693508a9250908b16907fdaac0e40b8f01e970d08d4e8ae57ac31a5845fffde104c43f05e19bbec78491e9060800160405180910390a45050505050505050565b6000612831826040518060400160405280602081526020017f5361666545524332303a206c6f772d6c6576656c2063616c6c206661696c6564815250856001600160a01b0316612a1a9092919063ffffffff16565b805190915015612287578080602001905181019061284f9190613118565b6122875760405162461bcd60e51b815260206004820152602a60248201527f5361666545524332303a204552433230206f7065726174696f6e20646964206e6044820152691bdd081cdd58d8d9595960b21b60648201526084016107ea565b60008260000182815481106128c5576128c5613027565b9060005260206000200154905092915050565b600081815260018301602052604081205461291f5750815460018181018455600084815260208082209093018490558454848252828601909352604090209190915561221e565b50600061221e565b60008181526001830160205260408120548015612a1057600061294b6001836130ba565b855490915060009061295f906001906130ba565b90508181146129c457600086600001828154811061297f5761297f613027565b90600052602060002001549050808760000184815481106129a2576129a2613027565b6000918252602080832090910192909255918252600188019052604090208390555b85548690806129d5576129d56132b4565b60019003818190600052602060002001600090559055856001016000868152602001908152602001600020600090556001935050505061221e565b600091505061221e565b6060612a298484600085612a33565b90505b9392505050565b606082471015612a945760405162461bcd60e51b815260206004820152602660248201527f416464726573733a20696e73756666696369656e742062616c616e636520666f6044820152651c8818d85b1b60d21b60648201526084016107ea565b843b612ae25760405162461bcd60e51b815260206004820152601d60248201527f416464726573733a2063616c6c20746f206e6f6e2d636f6e747261637400000060448201526064016107ea565b600080866001600160a01b03168587604051612afe91906132f6565b60006040518083038185875af1925050503d8060008114612b3b576040519150601f19603f3d011682016040523d82523d6000602084013e612b40565b606091505b5091509150612b50828286612b5b565b979650505050505050565b60608315612b6a575081612a2c565b825115612b7a5782518084602001fd5b8160405162461bcd60e51b81526004016107ea9190613312565b80356001600160a01b0381168114612bab57600080fd5b919050565b634e487b7160e01b600052604160045260246000fd5b60008060008060808587031215612bdc57600080fd5b612be585612b94565b9350612bf360208601612b94565b925060408501359150606085013567ffffffffffffffff80821115612c1757600080fd5b818701915087601f830112612c2b57600080fd5b813581811115612c3d57612c3d612bb0565b604051601f8201601f19908116603f01168101908382118183101715612c6557612c65612bb0565b816040528281528a6020848701011115612c7e57600080fd5b82602086016020830137600060208483010152809550505050505092959194509250565b600060208284031215612cb457600080fd5b61221b82612b94565b600080600060408486031215612cd257600080fd5b612cdb84612b94565b9250602084013567ffffffffffffffff80821115612cf857600080fd5b818601915086601f830112612d0c57600080fd5b813581811115612d1b57600080fd5b8760208260051b8501011115612d3057600080fd5b6020830194508093505050509250925092565b600081518084526020808501945080840160005b83811015612d8757815180516001600160a01b031688528301518388015260409096019590820190600101612d57565b509495945050505050565b604080825283519082018190526000906020906060840190828701845b82811015612dcd578151151584529284019290840190600101612daf565b50505083810382850152612de18186612d43565b9695505050505050565b60008060408385031215612dfe57600080fd5b50508035926020909101359150565b634e487b7160e01b600052602160045260246000fd5b6060808252845182820181905260009190608090818501906020808a01865b83811015612e675781516001600160a01b031685529382019390820190600101612e42565b5050868303818801528851808452898201938201925060005b81811015612ede578451805160038110612eaa57634e487b7160e01b600052602160045260246000fd5b8552808401516001600160a01b03168486015260408082015190860152870151878501529382019392850192600101612e80565b50505080945050505050826040830152949350505050565b60008060008060808587031215612f0c57600080fd5b612f1585612b94565b9350612f2360208601612b94565b93969395505050506040820135916060013590565b60008060408385031215612f4b57600080fd5b612f5483612b94565b9150612f6260208401612b94565b90509250929050565b600080600060608486031215612f8057600080fd5b612f8984612b94565b95602085013595506040909401359392505050565b606080825284519082018190526000906020906080840190828801845b82811015612fd757815184529284019290840190600101612fbb565b50505083810382850152612feb8187612d43565b92505050826040830152949350505050565b6000806040838503121561301057600080fd5b61301983612b94565b946020939093013593505050565b634e487b7160e01b600052603260045260246000fd5b634e487b7160e01b600052601160045260246000fd5b6000600182016130655761306561303d565b5060010190565b6020808252818101527f4f776e61626c653a2063616c6c6572206973206e6f7420746865206f776e6572604082015260600190565b6000602082840312156130b357600080fd5b5051919050565b6000828210156130cc576130cc61303d565b500390565b600082198211156130e4576130e461303d565b500190565b60208082526015908201527426b0b730b3b2b6b2b73a1d102737ba1030b236b4b760591b604082015260600190565b60006020828403121561312a57600080fd5b81518015158114612a2c57600080fd5b60208082526028908201527f4f7065726174696f6e733a2043726561746f7220706172616d657465727320696040820152671b98dbdc9c9958dd60c21b606082015260800190565b60208082526035908201527f4f7065726174696f6e733a2053756d206f6620666565206d75737420696e666560408201527472696f7220746f20544f54414c5f4d41585f46454560581b606082015260800190565b6020808252601f908201527f5265656e7472616e637947756172643a207265656e7472616e742063616c6c00604082015260600190565b6001600160a01b039384168152919092166020820152604081019190915260600190565b60208082526021908201527f4f7065726174696f6e733a20436f6c6c656374696f6e206e6f74206c697374656040820152601960fa1b606082015260800190565b600081600019048311821515161561328d5761328d61303d565b500290565b6000826132af57634e487b7160e01b600052601260045260246000fd5b500490565b634e487b7160e01b600052603160045260246000fd5b60005b838110156132e55781810151838201526020016132cd565b838111156124065750506000910152565b600082516133088184602087016132ca565b9190910192915050565b60208152600082518060208401526133318160408501602087016132ca565b601f01601f1916919091016040019291505056fea264697066735822122051cd952a5d1680b414113983ed077537cf31081ef8792a342bac0975a7bec24464736f6c634300080e0033",
    "sourcePath": "/home/sa/Desktop/Sayed/sayed12/Sayed/contracts/NFT.sol",
    "compiler": {
        "name": "solc",
        "version": "0.8.14+commit.80d49f37"
    },
    "functionHashes": {
        "TOTAL_MAX_FEE()": "209cbe7e",
        "WBNB()": "8dd95002",
        "addCollection(address,address,uint256,uint256)": "76a9dfea",
        "adminAddress()": "fc6f9468",
        "buyTokenUsingBNB(address,uint256)": "fb9fe938",
        "buyTokenUsingWBNB(address,uint256,uint256)": "ed140e86",
        "calculatePriceAndFeesForCollection(address,uint256)": "9e0140c8",
        "cancelAskOrder(address,uint256)": "95f42098",
        "claimPendingRevenue()": "b6c1d2cf",
        "closeCollectionForTradingAndListing(address)": "ddf9ba6f",
        "createAskOrder(address,uint256,uint256)": "803b64a1",
        "maximumAskPrice()": "98a5155a",
        "minimumAskPrice()": "4f06d441",
        "modifyAskOrder(address,uint256,uint256)": "9b2adcdc",
        "modifyCollection(address,address,uint256,uint256)": "b3936e6b",
        "onERC721Received(address,address,uint256,bytes)": "150b7a02",
        "owner()": "8da5cb5b",
        "pendingRevenue(address)": "20b6b2fc",
        "recoverFungibleTokens(address)": "3ffd1781",
        "recoverNonFungibleToken(address,uint256)": "bb0fd147",
        "renounceOwnership()": "715018a6",
        "setAdminAndTreasuryAddresses(address,address)": "791e8018",
        "transferOwnership(address)": "f2fde38b",
        "treasuryAddress()": "c5f956af",
        "updateMinimumAndMaximumPrices(uint256,uint256)": "b2ea3931",
        "viewAsksByCollection(address,uint256,uint256)": "84a40864",
        "viewAsksByCollectionAndSeller(address,address,uint256,uint256)": "d286ef74",
        "viewAsksByCollectionAndTokenIds(address,uint256[])": "22f67b6d",
        "viewCollections(uint256,uint256)": "51c383ea"
    },
    "gasEstimates": {
        "creation": {
            "codeDepositCost": "2635800",
            "executionCost": "infinite",
            "totalCost": "infinite"
        },
        "external": {
            "TOTAL_MAX_FEE()": "264",
            "WBNB()": "infinite",
            "addCollection(address,address,uint256,uint256)": "infinite",
            "adminAddress()": "2447",
            "buyTokenUsingBNB(address,uint256)": "infinite",
            "buyTokenUsingWBNB(address,uint256,uint256)": "infinite",
            "calculatePriceAndFeesForCollection(address,uint256)": "infinite",
            "cancelAskOrder(address,uint256)": "infinite",
            "claimPendingRevenue()": "infinite",
            "closeCollectionForTradingAndListing(address)": "infinite",
            "createAskOrder(address,uint256,uint256)": "infinite",
            "maximumAskPrice()": "2363",
            "minimumAskPrice()": "2385",
            "modifyAskOrder(address,uint256,uint256)": "80164",
            "modifyCollection(address,address,uint256,uint256)": "infinite",
            "onERC721Received(address,address,uint256,bytes)": "infinite",
            "owner()": "2409",
            "pendingRevenue(address)": "2614",
            "recoverFungibleTokens(address)": "infinite",
            "recoverNonFungibleToken(address,uint256)": "infinite",
            "renounceOwnership()": "28160",
            "setAdminAndTreasuryAddresses(address,address)": "infinite",
            "transferOwnership(address)": "28379",
            "treasuryAddress()": "2404",
            "updateMinimumAndMaximumPrices(uint256,uint256)": "48030",
            "viewAsksByCollection(address,uint256,uint256)": "infinite",
            "viewAsksByCollectionAndSeller(address,address,uint256,uint256)": "infinite",
            "viewAsksByCollectionAndTokenIds(address,uint256[])": "infinite",
            "viewCollections(uint256,uint256)": "infinite"
        },
        "internal": {
            "_buyToken(address,uint256,uint256,bool)": "infinite",
            "_calculatePriceAndFeesForCollection(address,uint256)": "infinite"
        }
    }
}