{
  "contractName": "Marketplace",
  "abi": [
    {
      "inputs": [],
      "stateMutability": "nonpayable",
      "type": "constructor"
    },
    {
      "anonymous": false,
      "inputs": [
        {
          "indexed": true,
          "internalType": "address",
          "name": "owner",
          "type": "address"
        },
        {
          "indexed": true,
          "internalType": "address",
          "name": "approved",
          "type": "address"
        },
        {
          "indexed": true,
          "internalType": "uint256",
          "name": "tokenId",
          "type": "uint256"
        }
      ],
      "name": "Approval",
      "type": "event"
    },
    {
      "anonymous": false,
      "inputs": [
        {
          "indexed": true,
          "internalType": "address",
          "name": "owner",
          "type": "address"
        },
        {
          "indexed": true,
          "internalType": "address",
          "name": "operator",
          "type": "address"
        },
        {
          "indexed": false,
          "internalType": "bool",
          "name": "approved",
          "type": "bool"
        }
      ],
      "name": "ApprovalForAll",
      "type": "event"
    },
    {
      "anonymous": false,
      "inputs": [
        {
          "indexed": false,
          "internalType": "uint256",
          "name": "auctionIndex",
          "type": "uint256"
        },
        {
          "indexed": false,
          "internalType": "uint256",
          "name": "Pirce",
          "type": "uint256"
        },
        {
          "indexed": false,
          "internalType": "bool",
          "name": "sold",
          "type": "bool"
        },
        {
          "indexed": false,
          "internalType": "uint256",
          "name": "nftId",
          "type": "uint256"
        }
      ],
      "name": "BuyPriceSell",
      "type": "event"
    },
    {
      "anonymous": false,
      "inputs": [
        {
          "indexed": false,
          "internalType": "uint256",
          "name": "tokenId",
          "type": "uint256"
        },
        {
          "indexed": false,
          "internalType": "address",
          "name": "mintaddress",
          "type": "address"
        },
        {
          "indexed": false,
          "internalType": "string",
          "name": "metaUrl",
          "type": "string"
        }
      ],
      "name": "MintnewNFT",
      "type": "event"
    },
    {
      "anonymous": false,
      "inputs": [
        {
          "indexed": false,
          "internalType": "uint256",
          "name": "auctionIndex",
          "type": "uint256"
        },
        {
          "indexed": false,
          "internalType": "uint256",
          "name": "nftId",
          "type": "uint256"
        },
        {
          "indexed": false,
          "internalType": "address",
          "name": "claimedBy",
          "type": "address"
        }
      ],
      "name": "NFTClaimed",
      "type": "event"
    },
    {
      "anonymous": false,
      "inputs": [
        {
          "indexed": false,
          "internalType": "uint256",
          "name": "auctionIndex",
          "type": "uint256"
        },
        {
          "indexed": false,
          "internalType": "uint256",
          "name": "nftId",
          "type": "uint256"
        },
        {
          "indexed": false,
          "internalType": "address",
          "name": "claimedBy",
          "type": "address"
        }
      ],
      "name": "NFTRefunded",
      "type": "event"
    },
    {
      "anonymous": false,
      "inputs": [
        {
          "indexed": false,
          "internalType": "uint256",
          "name": "index",
          "type": "uint256"
        },
        {
          "indexed": false,
          "internalType": "address",
          "name": "addressNFTCollection",
          "type": "address"
        },
        {
          "indexed": false,
          "internalType": "address",
          "name": "addressPaymentToken",
          "type": "address"
        },
        {
          "indexed": false,
          "internalType": "uint256",
          "name": "nftId",
          "type": "uint256"
        },
        {
          "indexed": false,
          "internalType": "address",
          "name": "mintedBy",
          "type": "address"
        },
        {
          "indexed": false,
          "internalType": "address",
          "name": "currentBidOwner",
          "type": "address"
        },
        {
          "indexed": false,
          "internalType": "uint256",
          "name": "currentBidPrice",
          "type": "uint256"
        },
        {
          "indexed": false,
          "internalType": "uint256",
          "name": "BuyNowprice",
          "type": "uint256"
        },
        {
          "indexed": false,
          "internalType": "uint256",
          "name": "endAuction",
          "type": "uint256"
        },
        {
          "indexed": false,
          "internalType": "uint256",
          "name": "bidCount",
          "type": "uint256"
        },
        {
          "indexed": false,
          "internalType": "bool",
          "name": "sold",
          "type": "bool"
        }
      ],
      "name": "NewAuction",
      "type": "event"
    },
    {
      "anonymous": false,
      "inputs": [
        {
          "indexed": false,
          "internalType": "uint256",
          "name": "auctionIndex",
          "type": "uint256"
        },
        {
          "indexed": false,
          "internalType": "uint256",
          "name": "newBid",
          "type": "uint256"
        },
        {
          "indexed": false,
          "internalType": "uint256",
          "name": "nftId",
          "type": "uint256"
        }
      ],
      "name": "NewBidOnAuction",
      "type": "event"
    },
    {
      "anonymous": false,
      "inputs": [
        {
          "indexed": false,
          "internalType": "uint256",
          "name": "auctionIndex",
          "type": "uint256"
        },
        {
          "indexed": false,
          "internalType": "uint256",
          "name": "nftId",
          "type": "uint256"
        },
        {
          "indexed": false,
          "internalType": "address",
          "name": "claimedBy",
          "type": "address"
        },
        {
          "indexed": false,
          "internalType": "uint256",
          "name": "price",
          "type": "uint256"
        },
        {
          "indexed": false,
          "internalType": "bool",
          "name": "sold",
          "type": "bool"
        }
      ],
      "name": "Nftselltotopbidder",
      "type": "event"
    },
    {
      "anonymous": false,
      "inputs": [
        {
          "indexed": false,
          "internalType": "uint256",
          "name": "auctionIndex",
          "type": "uint256"
        },
        {
          "indexed": false,
          "internalType": "uint256",
          "name": "nftId",
          "type": "uint256"
        },
        {
          "indexed": false,
          "internalType": "address",
          "name": "claimedBy",
          "type": "address"
        }
      ],
      "name": "TokensClaimed",
      "type": "event"
    },
    {
      "anonymous": false,
      "inputs": [
        {
          "indexed": true,
          "internalType": "address",
          "name": "from",
          "type": "address"
        },
        {
          "indexed": true,
          "internalType": "address",
          "name": "to",
          "type": "address"
        },
        {
          "indexed": true,
          "internalType": "uint256",
          "name": "tokenId",
          "type": "uint256"
        }
      ],
      "name": "Transfer",
      "type": "event"
    },
    {
      "anonymous": false,
      "inputs": [
        {
          "indexed": false,
          "internalType": "uint256",
          "name": "auctionIndex",
          "type": "uint256"
        },
        {
          "indexed": false,
          "internalType": "uint256",
          "name": "newpirce",
          "type": "uint256"
        },
        {
          "indexed": false,
          "internalType": "uint256",
          "name": "nftId",
          "type": "uint256"
        }
      ],
      "name": "Updatebuyprice",
      "type": "event"
    },
    {
      "inputs": [
        {
          "internalType": "address",
          "name": "to",
          "type": "address"
        },
        {
          "internalType": "uint256",
          "name": "tokenId",
          "type": "uint256"
        }
      ],
      "name": "approve",
      "outputs": [],
      "stateMutability": "nonpayable",
      "type": "function"
    },
    {
      "inputs": [
        {
          "internalType": "address",
          "name": "owner",
          "type": "address"
        }
      ],
      "name": "balanceOf",
      "outputs": [
        {
          "internalType": "uint256",
          "name": "",
          "type": "uint256"
        }
      ],
      "stateMutability": "view",
      "type": "function",
      "constant": true
    },
    {
      "inputs": [
        {
          "internalType": "uint256",
          "name": "tokenId",
          "type": "uint256"
        }
      ],
      "name": "getApproved",
      "outputs": [
        {
          "internalType": "address",
          "name": "",
          "type": "address"
        }
      ],
      "stateMutability": "view",
      "type": "function",
      "constant": true
    },
    {
      "inputs": [],
      "name": "index",
      "outputs": [
        {
          "internalType": "uint256",
          "name": "",
          "type": "uint256"
        }
      ],
      "stateMutability": "view",
      "type": "function",
      "constant": true
    },
    {
      "inputs": [
        {
          "internalType": "address",
          "name": "owner",
          "type": "address"
        },
        {
          "internalType": "address",
          "name": "operator",
          "type": "address"
        }
      ],
      "name": "isApprovedForAll",
      "outputs": [
        {
          "internalType": "bool",
          "name": "",
          "type": "bool"
        }
      ],
      "stateMutability": "view",
      "type": "function",
      "constant": true
    },
    {
      "inputs": [],
      "name": "name",
      "outputs": [
        {
          "internalType": "string",
          "name": "",
          "type": "string"
        }
      ],
      "stateMutability": "view",
      "type": "function",
      "constant": true
    },
    {
      "inputs": [
        {
          "internalType": "uint256",
          "name": "tokenId",
          "type": "uint256"
        }
      ],
      "name": "ownerOf",
      "outputs": [
        {
          "internalType": "address",
          "name": "",
          "type": "address"
        }
      ],
      "stateMutability": "view",
      "type": "function",
      "constant": true
    },
    {
      "inputs": [
        {
          "internalType": "address",
          "name": "from",
          "type": "address"
        },
        {
          "internalType": "address",
          "name": "to",
          "type": "address"
        },
        {
          "internalType": "uint256",
          "name": "tokenId",
          "type": "uint256"
        }
      ],
      "name": "safeTransferFrom",
      "outputs": [],
      "stateMutability": "nonpayable",
      "type": "function"
    },
    {
      "inputs": [
        {
          "internalType": "address",
          "name": "from",
          "type": "address"
        },
        {
          "internalType": "address",
          "name": "to",
          "type": "address"
        },
        {
          "internalType": "uint256",
          "name": "tokenId",
          "type": "uint256"
        },
        {
          "internalType": "bytes",
          "name": "_data",
          "type": "bytes"
        }
      ],
      "name": "safeTransferFrom",
      "outputs": [],
      "stateMutability": "nonpayable",
      "type": "function"
    },
    {
      "inputs": [
        {
          "internalType": "address",
          "name": "operator",
          "type": "address"
        },
        {
          "internalType": "bool",
          "name": "approved",
          "type": "bool"
        }
      ],
      "name": "setApprovalForAll",
      "outputs": [],
      "stateMutability": "nonpayable",
      "type": "function"
    },
    {
      "inputs": [
        {
          "internalType": "bytes4",
          "name": "interfaceId",
          "type": "bytes4"
        }
      ],
      "name": "supportsInterface",
      "outputs": [
        {
          "internalType": "bool",
          "name": "",
          "type": "bool"
        }
      ],
      "stateMutability": "view",
      "type": "function",
      "constant": true
    },
    {
      "inputs": [],
      "name": "symbol",
      "outputs": [
        {
          "internalType": "string",
          "name": "",
          "type": "string"
        }
      ],
      "stateMutability": "view",
      "type": "function",
      "constant": true
    },
    {
      "inputs": [
        {
          "internalType": "uint256",
          "name": "tokenId",
          "type": "uint256"
        }
      ],
      "name": "tokenURI",
      "outputs": [
        {
          "internalType": "string",
          "name": "",
          "type": "string"
        }
      ],
      "stateMutability": "view",
      "type": "function",
      "constant": true
    },
    {
      "inputs": [
        {
          "internalType": "address",
          "name": "from",
          "type": "address"
        },
        {
          "internalType": "address",
          "name": "to",
          "type": "address"
        },
        {
          "internalType": "uint256",
          "name": "tokenId",
          "type": "uint256"
        }
      ],
      "name": "transferFrom",
      "outputs": [],
      "stateMutability": "nonpayable",
      "type": "function"
    },
    {
      "inputs": [
        {
          "internalType": "string",
          "name": "tokenURI",
          "type": "string"
        }
      ],
      "name": "createToken",
      "outputs": [],
      "stateMutability": "nonpayable",
      "type": "function"
    },
    {
      "inputs": [
        {
          "internalType": "address",
          "name": "_addressNFTCollection",
          "type": "address"
        },
        {
          "internalType": "address",
          "name": "_addressPaymentToken",
          "type": "address"
        },
        {
          "internalType": "uint256",
          "name": "_nftId",
          "type": "uint256"
        },
        {
          "internalType": "uint256",
          "name": "_endAuction",
          "type": "uint256"
        },
        {
          "internalType": "uint256",
          "name": "_Buynowprice",
          "type": "uint256"
        }
      ],
      "name": "createAuction",
      "outputs": [
        {
          "internalType": "uint256",
          "name": "",
          "type": "uint256"
        }
      ],
      "stateMutability": "nonpayable",
      "type": "function"
    },
    {
      "inputs": [
        {
          "internalType": "address",
          "name": "_addressPaymentToken",
          "type": "address"
        },
        {
          "internalType": "uint256",
          "name": "_nftId",
          "type": "uint256"
        },
        {
          "internalType": "uint256",
          "name": "_endAuction",
          "type": "uint256"
        },
        {
          "internalType": "uint256",
          "name": "_Buynowprice",
          "type": "uint256"
        }
      ],
      "name": "owncreateAuction",
      "outputs": [
        {
          "internalType": "uint256",
          "name": "",
          "type": "uint256"
        }
      ],
      "stateMutability": "nonpayable",
      "type": "function"
    },
    {
      "inputs": [
        {
          "internalType": "uint256",
          "name": "_auctionIndex",
          "type": "uint256"
        }
      ],
      "name": "isOpen",
      "outputs": [
        {
          "internalType": "bool",
          "name": "",
          "type": "bool"
        }
      ],
      "stateMutability": "view",
      "type": "function",
      "constant": true
    },
    {
      "inputs": [
        {
          "internalType": "address",
          "name": "from",
          "type": "address"
        },
        {
          "internalType": "address",
          "name": "to",
          "type": "address"
        },
        {
          "internalType": "uint256",
          "name": "tokenId",
          "type": "uint256"
        }
      ],
      "name": "transferNFTFrom",
      "outputs": [
        {
          "internalType": "bool",
          "name": "",
          "type": "bool"
        }
      ],
      "stateMutability": "nonpayable",
      "type": "function"
    },
    {
      "inputs": [
        {
          "internalType": "uint256",
          "name": "_auctionIndex",
          "type": "uint256"
        }
      ],
      "name": "getCurrentBidOwner",
      "outputs": [
        {
          "internalType": "address",
          "name": "",
          "type": "address"
        }
      ],
      "stateMutability": "view",
      "type": "function",
      "constant": true
    },
    {
      "inputs": [
        {
          "internalType": "uint256",
          "name": "_auctionIndex",
          "type": "uint256"
        }
      ],
      "name": "getCurrentBid",
      "outputs": [
        {
          "internalType": "uint256",
          "name": "",
          "type": "uint256"
        }
      ],
      "stateMutability": "view",
      "type": "function",
      "constant": true
    },
    {
      "inputs": [
        {
          "internalType": "uint256",
          "name": "_auctionIndex",
          "type": "uint256"
        }
      ],
      "name": "isSelldone",
      "outputs": [
        {
          "internalType": "bool",
          "name": "",
          "type": "bool"
        }
      ],
      "stateMutability": "view",
      "type": "function",
      "constant": true
    },
    {
      "inputs": [
        {
          "internalType": "uint256",
          "name": "_auctionIndex",
          "type": "uint256"
        },
        {
          "internalType": "uint256",
          "name": "_newBid",
          "type": "uint256"
        }
      ],
      "name": "bid",
      "outputs": [
        {
          "internalType": "bool",
          "name": "",
          "type": "bool"
        }
      ],
      "stateMutability": "nonpayable",
      "type": "function"
    },
    {
      "inputs": [
        {
          "internalType": "uint256",
          "name": "_auctionIndex",
          "type": "uint256"
        },
        {
          "internalType": "uint256",
          "name": "_price",
          "type": "uint256"
        }
      ],
      "name": "DirectBuy",
      "outputs": [],
      "stateMutability": "nonpayable",
      "type": "function"
    },
    {
      "inputs": [
        {
          "internalType": "uint256",
          "name": "_auctionIndex",
          "type": "uint256"
        }
      ],
      "name": "claimNFT",
      "outputs": [],
      "stateMutability": "nonpayable",
      "type": "function"
    },
    {
      "inputs": [
        {
          "internalType": "uint256",
          "name": "_auctionIndex",
          "type": "uint256"
        }
      ],
      "name": "claimToken",
      "outputs": [],
      "stateMutability": "nonpayable",
      "type": "function"
    },
    {
      "inputs": [
        {
          "internalType": "uint256",
          "name": "_auctionIndex",
          "type": "uint256"
        }
      ],
      "name": "SellTokenToBider",
      "outputs": [],
      "stateMutability": "nonpayable",
      "type": "function"
    },
    {
      "inputs": [
        {
          "internalType": "uint256",
          "name": "_auctionIndex",
          "type": "uint256"
        },
        {
          "internalType": "uint256",
          "name": "_price",
          "type": "uint256"
        }
      ],
      "name": "Updateauctionprice",
      "outputs": [],
      "stateMutability": "nonpayable",
      "type": "function"
    },
    {
      "inputs": [
        {
          "internalType": "uint256",
          "name": "_auctionIndex",
          "type": "uint256"
        }
      ],
      "name": "refund",
      "outputs": [],
      "stateMutability": "nonpayable",
      "type": "function"
    },
    {
      "inputs": [
        {
          "internalType": "address",
          "name": "",
          "type": "address"
        },
        {
          "internalType": "address",
          "name": "",
          "type": "address"
        },
        {
          "internalType": "uint256",
          "name": "",
          "type": "uint256"
        },
        {
          "internalType": "bytes",
          "name": "",
          "type": "bytes"
        }
      ],
      "name": "onERC721Received",
      "outputs": [
        {
          "internalType": "bytes4",
          "name": "",
          "type": "bytes4"
        }
      ],
      "stateMutability": "nonpayable",
      "type": "function"
    }
  ],
  "bytecode": "0x608060405260006009553480156200001657600080fd5b50604080518082018252601081526f4d657461766572736520546f6b656e7360801b6020808301918252835180850190945260048452631351551560e21b9084015281519192916200006b916000916200008f565b508051620000819060019060208401906200008f565b505060016007555062000172565b8280546200009d9062000135565b90600052602060002090601f016020900481019282620000c157600085556200010c565b82601f10620000dc57805160ff19168380011785556200010c565b828001600101855582156200010c579182015b828111156200010c578251825591602001919060010190620000ef565b506200011a9291506200011e565b5090565b5b808211156200011a57600081556001016200011f565b600181811c908216806200014a57607f821691505b602082108114156200016c57634e487b7160e01b600052602260045260246000fd5b50919050565b61388880620001826000396000f3fe608060405234801561001057600080fd5b50600436106101da5760003560e01c80636352211e11610104578063acbdcfea116100a2578063cf3f487d11610071578063cf3f487d14610410578063da4e364f14610423578063e985e9c514610436578063fe5c873a1461047257600080fd5b8063acbdcfea146103c4578063b88d4fde146103d7578063c87b56dd146103ea578063cde08c40146103fd57600080fd5b806386b46073116100de57806386b460731461038357806395d89b4114610396578063a22cb4651461039e578063a9e7c2e5146103b157600080fd5b80636352211e1461034a57806370a082311461035d5780637ac9b35e1461037057600080fd5b8063278ecde11161017c57806345576f941161014b57806345576f94146102fe5780634d6861a61461031157806357defe8114610324578063598647f81461033757600080fd5b8063278ecde1146102ae5780632986c0e5146102c1578063310bf583146102d857806342842e0e146102eb57600080fd5b8063095ea7b3116101b8578063095ea7b3146102475780630e16de611461025c578063150b7a021461026f57806323b872dd1461029b57600080fd5b806301ffc9a7146101df57806306fdde0314610207578063081812fc1461021c575b600080fd5b6101f26101ed3660046131cf565b610485565b60405190151581526020015b60405180910390f35b61020f6104d7565b6040516101fe9190613372565b61022f61022a36600461327b565b610569565b6040516001600160a01b0390911681526020016101fe565b61025a61025536600461314b565b6105f6565b005b61025a61026a366004613294565b61070c565b61028261027d366004612fec565b610b1f565b6040516001600160e01b031990911681526020016101fe565b61025a6102a9366004612fab565b610b30565b61025a6102bc36600461327b565b610b61565b6102ca60095481565b6040519081526020016101fe565b6102ca6102e63660046130cc565b610d6c565b61025a6102f9366004612fab565b61123a565b61025a61030c366004613209565b611255565b6101f261031f36600461327b565b6112fc565b61025a610332366004613294565b61133f565b6101f2610345366004613294565b6114be565b61022f61035836600461327b565b611820565b6102ca61036b366004612f38565b611897565b6101f261037e36600461327b565b61191e565b61022f61039136600461327b565b611952565b61020f6119ac565b61025a6103ac36600461311d565b6119bb565b61025a6103bf36600461327b565b6119ca565b6102ca6103d2366004613177565b611be3565b61025a6103e5366004612fec565b611ef8565b61020f6103f836600461327b565b611f30565b6101f261040b366004612fab565b61209f565b61025a61041e36600461327b565b6120b6565b6102ca61043136600461327b565b61231a565b6101f2610444366004612f72565b6001600160a01b03918216600090815260056020908152604080832093909416825291909152205460ff1690565b61025a61048036600461327b565b61236a565b60006001600160e01b031982166380ac58cd60e01b14806104b657506001600160e01b03198216635b5e139f60e01b145b806104d157506301ffc9a760e01b6001600160e01b03198316145b92915050565b6060600080546104e690613754565b80601f016020809104026020016040519081016040528092919081815260200182805461051290613754565b801561055f5780601f106105345761010080835404028352916020019161055f565b820191906000526020600020905b81548152906001019060200180831161054257829003601f168201915b5050505050905090565b6000610574826125ee565b6105da5760405162461bcd60e51b815260206004820152602c60248201527f4552433732313a20617070726f76656420717565727920666f72206e6f6e657860448201526b34b9ba32b73a103a37b5b2b760a11b60648201526084015b60405180910390fd5b506000908152600460205260409020546001600160a01b031690565b600061060182611820565b9050806001600160a01b0316836001600160a01b0316141561066f5760405162461bcd60e51b815260206004820152602160248201527f4552433732313a20617070726f76616c20746f2063757272656e74206f776e656044820152603960f91b60648201526084016105d1565b336001600160a01b038216148061068b575061068b8133610444565b6106fd5760405162461bcd60e51b815260206004820152603860248201527f4552433732313a20617070726f76652063616c6c6572206973206e6f74206f7760448201527f6e6572206e6f7220617070726f76656420666f7220616c6c000000000000000060648201526084016105d1565b610707838361260b565b505050565b6002600754141561072f5760405162461bcd60e51b81526004016105d1906135a5565b6002600755600a5482106107555760405162461bcd60e51b81526004016105d19061349c565b61075e8261191e565b1561077b5760405162461bcd60e51b81526004016105d19061344c565b806107985760405162461bcd60e51b81526004016105d19061346e565b6000600a83815481106107ad576107ad6137ea565b60009182526020909120600b90910201600181015460068201549192506001600160a01b0316908310156108325760405162461bcd60e51b815260206004820152602660248201527f596f752063616e27742062757920746869732e2e546f70206269646465722063604482015265616e2062757960d01b60648201526084016105d1565b600282015460078301546001600160a01b039091169084146108875760405162461bcd60e51b815260206004820152600e60248201526d7072696365206e6f742073616d6560901b60448201526064016105d1565b6003830154604051630337823160e61b81526001600160a01b0384169163cde08c40916108bb913091339190600401613311565b602060405180830381600087803b1580156108d557600080fd5b505af11580156108e9573d6000803e3d6000fd5b505050506040513d601f19601f8201168201806040525081019061090d91906131b2565b61094f5760405162461bcd60e51b815260206004820152601360248201527213999d081d1c9cd85b99995c8819985a5b1959606a1b60448201526064016105d1565b6004838101546040516323b872dd60e01b81526001600160a01b03848116936323b872dd93610986933393909116918a9101613311565b602060405180830381600087803b1580156109a057600080fd5b505af11580156109b4573d6000803e3d6000fd5b505050506040513d601f19601f820116820180604052508101906109d891906131b2565b610a1e5760405162461bcd60e51b8152602060048201526017602482015276151c985b99995c881bd9881d1bdad95b8819985a5b1959604a1b60448201526064016105d1565b6005830154600684015460405163a9059cbb60e01b81526001600160a01b03928316600482015260248101919091529082169063a9059cbb90604401602060405180830381600087803b158015610a7457600080fd5b505af1158015610a88573d6000803e3d6000fd5b505050506040513d601f19601f82011682018060405250810190610aac91906131b2565b610ab557600080fd5b600a8301805460ff19166001908117909155600384015460408051888152602081018890529081019290925260608201527fd5b4f0a2de92dbfb4c3c4f5d5d2268e6d4893b5807a5006f909e2fec3a7173f19060800160405180910390a150506001600755505050565b630a85bd0160e11b5b949350505050565b610b3a3382612679565b610b565760405162461bcd60e51b81526004016105d19061350d565b61070783838361275f565b60026007541415610b845760405162461bcd60e51b81526004016105d1906135a5565b6002600755600a548110610baa5760405162461bcd60e51b81526004016105d19061349c565b610bb3816112fc565b15610bd05760405162461bcd60e51b81526004016105d19061341d565b610bd98161191e565b15610bf65760405162461bcd60e51b81526004016105d19061344c565b6000600a8281548110610c0b57610c0b6137ea565b600091825260209091206004600b90920201908101549091506001600160a01b03163314610c4b5760405162461bcd60e51b81526004016105d1906135dc565b60058101546001600160a01b031615610ca65760405162461bcd60e51b815260206004820152601f60248201527f4578697374696e6720626964657220666f7220746869732061756374696f6e0060448201526064016105d1565b600181015460048083015460038401546040516323b872dd60e01b81526001600160a01b039485169485946323b872dd94610ce994309491909316929101613311565b600060405180830381600087803b158015610d0357600080fd5b505af1158015610d17573d6000803e3d6000fd5b505050600383015460408051868152602081019290925233908201527f7dfbb77cc823ba323508cf4299ef206c31bf00a33e43ac269c79f793f6bd12c791506060015b60405180910390a15050600160075550565b6000853b610dcc5760405162461bcd60e51b815260206004820152602760248201527f496e76616c6964204e465420436f6c6c656374696f6e20636f6e7472616374206044820152666164647265737360c81b60648201526084016105d1565b843b610dea5760405162461bcd60e51b81526004016105d190613385565b428311610e395760405162461bcd60e51b815260206004820152601c60248201527f496e76616c696420656e64206461746520666f722061756374696f6e0000000060448201526064016105d1565b6040516331a9108f60e11b815260048101859052869033906001600160a01b03831690636352211e9060240160206040518083038186803b158015610e7d57600080fd5b505afa158015610e91573d6000803e3d6000fd5b505050506040513d601f19601f82011682018060405250810190610eb59190612f55565b6001600160a01b031614610edb5760405162461bcd60e51b81526004016105d1906134cb565b60405163020604bf60e21b81526004810186905230906001600160a01b0383169063081812fc9060240160206040518083038186803b158015610f1d57600080fd5b505afa158015610f31573d6000803e3d6000fd5b505050506040513d601f19601f82011682018060405250810190610f559190612f55565b6001600160a01b031614610f7b5760405162461bcd60e51b81526004016105d19061355e565b604051630337823160e61b81526001600160a01b0382169063cde08c4090610fab90339030908a90600401613311565b602060405180830381600087803b158015610fc557600080fd5b505af1158015610fd9573d6000803e3d6000fd5b505050506040513d601f19601f82011682018060405250810190610ffd91906131b2565b61100657600080fd5b60008060405180610160016040528060095481526020018a6001600160a01b03168152602001896001600160a01b03168152602001888152602001336001600160a01b03168152602001836001600160a01b031681526020016000815260200186815260200187815260200160008152602001600015158152509050600a8190806001815401808255809150506001900390600052602060002090600b02016000909190919091506000820151816000015560208201518160010160006101000a8154816001600160a01b0302191690836001600160a01b0316021790555060408201518160020160006101000a8154816001600160a01b0302191690836001600160a01b031602179055506060820151816003015560808201518160040160006101000a8154816001600160a01b0302191690836001600160a01b0316021790555060a08201518160050160006101000a8154816001600160a01b0302191690836001600160a01b0316021790555060c0820151816006015560e082015181600701556101008201518160080155610120820151816009015561014082015181600a0160006101000a81548160ff0219169083151502179055505050600960008154809291906111d69061378f565b91905055507f4db52e819f4f8f2b2c7ba879aad0561b329e8d6cce01cee8f9fd46598405680b6009548a8a8a338760008c8e6000806040516112229b9a99989796959493929190613639565b60405180910390a15050600954979650505050505050565b61070783838360405180602001604052806000815250611ef8565b611263600880546001019055565b600061126e60085490565b905061127a33826128ff565b6112ba8184848080601f016020809104026020016040519081016040528093929190818152602001838380828437600092019190915250612a3292505050565b7f30b4178dc768bc3b3f77f0cce16699e8061104c7bf408d66c5f0543dc55cf940813385856040516112ef949392919061369e565b60405180910390a1505050565b600080600a8381548110611312576113126137ea565b90600052602060002090600b02019050806008015442106113365750600092915050565b50600192915050565b600260075414156113625760405162461bcd60e51b81526004016105d1906135a5565b6002600755600a5482106113885760405162461bcd60e51b81526004016105d19061349c565b6113918261191e565b156113ae5760405162461bcd60e51b81526004016105d19061344c565b6000600a83815481106113c3576113c36137ea565b90600052602060002090600b0201905081600014156113f45760405162461bcd60e51b81526004016105d19061346e565b806007015482116114475760405162461bcd60e51b815260206004820152601760248201527f7072696365206e656564206269672066726f6d206f6c6400000000000000000060448201526064016105d1565b60048101546001600160a01b031633146114735760405162461bcd60e51b81526004016105d1906135dc565b6007810182905560038101546040805185815260208101859052908101919091527fe02d7f12f5a52a7577f0099d897c1b02e8be7b694f8c0ee4c446ceda74411c1b90606001610d5a565b600a5460009083106114e25760405162461bcd60e51b81526004016105d19061349c565b6000600a84815481106114f7576114f76137ea565b90600052602060002090600b02019050611510846112fc565b6115525760405162461bcd60e51b815260206004820152601360248201527220bab1ba34b7b71034b9903737ba1037b832b760691b60448201526064016105d1565b806006015483116115bf5760405162461bcd60e51b815260206004820152603160248201527f4e657720626964207072696365206d75737420626520686967686572207468616044820152701b881d1a194818dd5c9c995b9d08189a59607a1b60648201526084016105d1565b60048101546001600160a01b03163314156116305760405162461bcd60e51b815260206004820152602b60248201527f43726561746f72206f66207468652061756374696f6e2063616e6e6f7420706c60448201526a1858d9481b995dc8189a5960aa1b60648201526084016105d1565b60028101546040516323b872dd60e01b81526001600160a01b039091169081906323b872dd9061166890339030908990600401613311565b602060405180830381600087803b15801561168257600080fd5b505af1158015611696573d6000803e3d6000fd5b505050506040513d601f19601f820116820180604052508101906116ba91906131b2565b6117005760405162461bcd60e51b8152602060048201526017602482015276151c985b99995c881bd9881d1bdad95b8819985a5b1959604a1b60448201526064016105d1565b60098201541561179a576005820154600683015460405163a9059cbb60e01b81526001600160a01b03928316600482015260248101919091529082169063a9059cbb90604401602060405180830381600087803b15801561176057600080fd5b505af1158015611774573d6000803e3d6000fd5b505050506040513d601f19601f8201168201806040525081019061179891906131b2565b505b6005820180546001600160a01b03191633908117909155600683018590556009830180549060006117ca8361378f565b90915550506003830154604080518881526020810188905280820192909252517f324953bed51faac4f02b228da4d94c15ea94b1184923d2b9171d4aa808128ba49181900360600190a150600195945050505050565b6000818152600260205260408120546001600160a01b0316806104d15760405162461bcd60e51b815260206004820152602960248201527f4552433732313a206f776e657220717565727920666f72206e6f6e657869737460448201526832b73a103a37b5b2b760b91b60648201526084016105d1565b60006001600160a01b0382166119025760405162461bcd60e51b815260206004820152602a60248201527f4552433732313a2062616c616e636520717565727920666f7220746865207a65604482015269726f206164647265737360b01b60648201526084016105d1565b506001600160a01b031660009081526003602052604090205490565b600080600a8381548110611934576119346137ea565b60009182526020909120600a600b90920201015460ff169392505050565b600a5460009082106119765760405162461bcd60e51b81526004016105d19061349c565b600a8281548110611989576119896137ea565b600091825260209091206005600b9092020101546001600160a01b031692915050565b6060600180546104e690613754565b6119c6338383612abd565b5050565b600a5481106119eb5760405162461bcd60e51b81526004016105d19061349c565b6119f4816112fc565b15611a115760405162461bcd60e51b81526004016105d19061341d565b611a1a8161191e565b15611a375760405162461bcd60e51b81526004016105d19061344c565b6000600a8281548110611a4c57611a4c6137ea565b600091825260209091206004600b90920201908101549091506001600160a01b03163314611a8c5760405162461bcd60e51b81526004016105d1906135dc565b6001810154600582015460038301546040516323b872dd60e01b81526001600160a01b039384169384936323b872dd93611ace93309390921691600401613311565b600060405180830381600087803b158015611ae857600080fd5b505af1158015611afc573d6000803e3d6000fd5b505050506002820154600480840154600685015460405163a9059cbb60e01b81526001600160a01b0392831693810193909352602483015290911690819063a9059cbb90604401602060405180830381600087803b158015611b5d57600080fd5b505af1158015611b71573d6000803e3d6000fd5b505050506040513d601f19601f82011682018060405250810190611b9591906131b2565b50600383015460408051868152602081019290925233908201527f74d693d132dbe07a071ac2e6d043de8ca215aeaa3df9b1150643fd73f2027254906060015b60405180910390a150505050565b6000843b611c035760405162461bcd60e51b81526004016105d190613385565b428311611c525760405162461bcd60e51b815260206004820152601c60248201527f496e76616c696420656e64206461746520666f722061756374696f6e0000000060448201526064016105d1565b33611c5c85611820565b6001600160a01b031614611c825760405162461bcd60e51b81526004016105d1906134cb565b30611c8c85610569565b6001600160a01b031614611cb25760405162461bcd60e51b81526004016105d19061355e565b611cbd33308661209f565b611cc657600080fd5b6000806040518061016001604052806009548152602001306001600160a01b03168152602001886001600160a01b03168152602001878152602001336001600160a01b03168152602001836001600160a01b031681526020016000815260200185815260200186815260200160008152602001600015158152509050600a8190806001815401808255809150506001900390600052602060002090600b02016000909190919091506000820151816000015560208201518160010160006101000a8154816001600160a01b0302191690836001600160a01b0316021790555060408201518160020160006101000a8154816001600160a01b0302191690836001600160a01b031602179055506060820151816003015560808201518160040160006101000a8154816001600160a01b0302191690836001600160a01b0316021790555060a08201518160050160006101000a8154816001600160a01b0302191690836001600160a01b0316021790555060c0820151816006015560e082015181600701556101008201518160080155610120820151816009015561014082015181600a0160006101000a81548160ff021916908315150217905550505060096000815480929190611e969061378f565b91905055507f4db52e819f4f8f2b2c7ba879aad0561b329e8d6cce01cee8f9fd46598405680b600954308989338760008b8d600080604051611ee29b9a99989796959493929190613639565b60405180910390a1505060095495945050505050565b611f023383612679565b611f1e5760405162461bcd60e51b81526004016105d19061350d565b611f2a84848484612b8c565b50505050565b6060611f3b826125ee565b611fa15760405162461bcd60e51b815260206004820152603160248201527f45524337323155524953746f726167653a2055524920717565727920666f72206044820152703737b732bc34b9ba32b73a103a37b5b2b760791b60648201526084016105d1565b60008281526006602052604081208054611fba90613754565b80601f0160208091040260200160405190810160405280929190818152602001828054611fe690613754565b80156120335780601f1061200857610100808354040283529160200191612033565b820191906000526020600020905b81548152906001019060200180831161201657829003601f168201915b50505050509050600061205160408051602081019091526000815290565b9050805160001415612064575092915050565b81511561209657808260405160200161207e9291906132e2565b60405160208183030381529060405292505050919050565b610b2884612bbf565b60006120ac84848461123a565b5060019392505050565b600260075414156120d95760405162461bcd60e51b81526004016105d1906135a5565b6002600755600a5481106120ff5760405162461bcd60e51b81526004016105d19061349c565b6121088161191e565b156121255760405162461bcd60e51b81526004016105d19061344c565b6000600a828154811061213a5761213a6137ea565b90600052602060002090600b0201905080600601546000141561216f5760405162461bcd60e51b81526004016105d19061346e565b60048101546001600160a01b0316331461219b5760405162461bcd60e51b81526004016105d1906135dc565b6001810154600582015460038301546040516323b872dd60e01b81526001600160a01b039384169384936323b872dd936121dd93309390921691600401613311565b600060405180830381600087803b1580156121f757600080fd5b505af115801561220b573d6000803e3d6000fd5b505050506002820154600480840154600685015460405163a9059cbb60e01b81526001600160a01b0392831693810193909352602483015290911690819063a9059cbb90604401602060405180830381600087803b15801561226c57600080fd5b505af1158015612280573d6000803e3d6000fd5b505050506040513d601f19601f820116820180604052508101906122a491906131b2565b50600a8301805460ff19166001908117909155600384015460068501546040805188815260208101939093523390830152606082015260808101919091527f1a03a39bb4d48ea285e8778d7e3e9d3235009301156d02cc0d2d13d55350e3bc9060a00160405180910390a1505060016007555050565b600a54600090821061233e5760405162461bcd60e51b81526004016105d19061349c565b600a8281548110612351576123516137ea565b90600052602060002090600b0201600601549050919050565b600a54811061238b5760405162461bcd60e51b81526004016105d19061349c565b6123948161191e565b156123b15760405162461bcd60e51b81526004016105d19061344c565b6123ba816112fc565b156123d75760405162461bcd60e51b81526004016105d19061341d565b6000600a82815481106123ec576123ec6137ea565b600091825260209091206005600b90920201908101549091506001600160a01b031633146124755760405162461bcd60e51b815260206004820152603060248201527f4e46542063616e20626520636c61696d6564206f6e6c7920627920746865206360448201526f3ab93932b73a103134b21037bbb732b960811b60648201526084016105d1565b60018101546005820154604051630337823160e61b81526001600160a01b0392831692839263cde08c40926124b292309216908890600401613311565b602060405180830381600087803b1580156124cc57600080fd5b505af11580156124e0573d6000803e3d6000fd5b505050506040513d601f19601f8201168201806040525081019061250491906131b2565b61250d57600080fd5b6002820154600480840154600685015460405163a9059cbb60e01b81526001600160a01b0392831693810193909352602483015290911690819063a9059cbb90604401602060405180830381600087803b15801561256a57600080fd5b505af115801561257e573d6000803e3d6000fd5b505050506040513d601f19601f820116820180604052508101906125a291906131b2565b6125ab57600080fd5b600383015460408051868152602081019290925233908201527f7d4f7628c7b4939e94b123a69aabebcd8fbc8bac313fa8c20b7b71cb1601d39690606001611bd5565b6000908152600260205260409020546001600160a01b0316151590565b600081815260046020526040902080546001600160a01b0319166001600160a01b038416908117909155819061264082611820565b6001600160a01b03167f8c5be1e5ebec7d5bd14f71427d1e84f3dd0314c0f7b2291e5b200ac8c7c3b92560405160405180910390a45050565b6000612684826125ee565b6126e55760405162461bcd60e51b815260206004820152602c60248201527f4552433732313a206f70657261746f7220717565727920666f72206e6f6e657860448201526b34b9ba32b73a103a37b5b2b760a11b60648201526084016105d1565b60006126f083611820565b9050806001600160a01b0316846001600160a01b0316148061272b5750836001600160a01b031661272084610569565b6001600160a01b0316145b80610b2857506001600160a01b0380821660009081526005602090815260408083209388168352929052205460ff16610b28565b826001600160a01b031661277282611820565b6001600160a01b0316146127da5760405162461bcd60e51b815260206004820152602960248201527f4552433732313a207472616e73666572206f6620746f6b656e2074686174206960448201526839903737ba1037bbb760b91b60648201526084016105d1565b6001600160a01b03821661283c5760405162461bcd60e51b8152602060048201526024808201527f4552433732313a207472616e7366657220746f20746865207a65726f206164646044820152637265737360e01b60648201526084016105d1565b61284760008261260b565b6001600160a01b0383166000908152600360205260408120805460019290612870908490613711565b90915550506001600160a01b038216600090815260036020526040812080546001929061289e9084906136e5565b909155505060008181526002602052604080822080546001600160a01b0319166001600160a01b0386811691821790925591518493918716917fddf252ad1be2c89b69c2b068fc378daa952ba7f163c4a11628f55a4df523b3ef91a4505050565b6001600160a01b0382166129555760405162461bcd60e51b815260206004820181905260248201527f4552433732313a206d696e7420746f20746865207a65726f206164647265737360448201526064016105d1565b61295e816125ee565b156129ab5760405162461bcd60e51b815260206004820152601c60248201527f4552433732313a20746f6b656e20616c7265616479206d696e7465640000000060448201526064016105d1565b6001600160a01b03821660009081526003602052604081208054600192906129d49084906136e5565b909155505060008181526002602052604080822080546001600160a01b0319166001600160a01b03861690811790915590518392907fddf252ad1be2c89b69c2b068fc378daa952ba7f163c4a11628f55a4df523b3ef908290a45050565b612a3b826125ee565b612a9e5760405162461bcd60e51b815260206004820152602e60248201527f45524337323155524953746f726167653a2055524920736574206f66206e6f6e60448201526d32bc34b9ba32b73a103a37b5b2b760911b60648201526084016105d1565b6000828152600660209081526040909120825161070792840190612e9f565b816001600160a01b0316836001600160a01b03161415612b1f5760405162461bcd60e51b815260206004820152601960248201527f4552433732313a20617070726f766520746f2063616c6c65720000000000000060448201526064016105d1565b6001600160a01b03838116600081815260056020908152604080832094871680845294825291829020805460ff191686151590811790915591519182527f17307eab39ab6107e8899845ad3d59bd9653f200f220920489ca2b5937696c31910160405180910390a3505050565b612b9784848461275f565b612ba384848484612c97565b611f2a5760405162461bcd60e51b81526004016105d1906133cb565b6060612bca826125ee565b612c2e5760405162461bcd60e51b815260206004820152602f60248201527f4552433732314d657461646174613a2055524920717565727920666f72206e6f60448201526e3732bc34b9ba32b73a103a37b5b2b760891b60648201526084016105d1565b6000612c4560408051602081019091526000815290565b90506000815111612c655760405180602001604052806000815250612c90565b80612c6f84612da1565b604051602001612c809291906132e2565b6040516020818303038152906040525b9392505050565b60006001600160a01b0384163b15612d9957604051630a85bd0160e11b81526001600160a01b0385169063150b7a0290612cdb903390899088908890600401613335565b602060405180830381600087803b158015612cf557600080fd5b505af1925050508015612d25575060408051601f3d908101601f19168201909252612d22918101906131ec565b60015b612d7f573d808015612d53576040519150601f19603f3d011682016040523d82523d6000602084013e612d58565b606091505b508051612d775760405162461bcd60e51b81526004016105d1906133cb565b805181602001fd5b6001600160e01b031916630a85bd0160e11b149050610b28565b506001610b28565b606081612dc55750506040805180820190915260018152600360fc1b602082015290565b8160005b8115612def5780612dd98161378f565b9150612de89050600a836136fd565b9150612dc9565b60008167ffffffffffffffff811115612e0a57612e0a613800565b6040519080825280601f01601f191660200182016040528015612e34576020820181803683370190505b5090505b8415610b2857612e49600183613711565b9150612e56600a866137aa565b612e619060306136e5565b60f81b818381518110612e7657612e766137ea565b60200101906001600160f81b031916908160001a905350612e98600a866136fd565b9450612e38565b828054612eab90613754565b90600052602060002090601f016020900481019282612ecd5760008555612f13565b82601f10612ee657805160ff1916838001178555612f13565b82800160010185558215612f13579182015b82811115612f13578251825591602001919060010190612ef8565b50612f1f929150612f23565b5090565b5b80821115612f1f5760008155600101612f24565b600060208284031215612f4a57600080fd5b8135612c9081613816565b600060208284031215612f6757600080fd5b8151612c9081613816565b60008060408385031215612f8557600080fd5b8235612f9081613816565b91506020830135612fa081613816565b809150509250929050565b600080600060608486031215612fc057600080fd5b8335612fcb81613816565b92506020840135612fdb81613816565b929592945050506040919091013590565b6000806000806080858703121561300257600080fd5b843561300d81613816565b9350602085013561301d81613816565b925060408501359150606085013567ffffffffffffffff8082111561304157600080fd5b818701915087601f83011261305557600080fd5b81358181111561306757613067613800565b604051601f8201601f19908116603f0116810190838211818310171561308f5761308f613800565b816040528281528a60208487010111156130a857600080fd5b82602086016020830137600060208483010152809550505050505092959194509250565b600080600080600060a086880312156130e457600080fd5b85356130ef81613816565b945060208601356130ff81613816565b94979496505050506040830135926060810135926080909101359150565b6000806040838503121561313057600080fd5b823561313b81613816565b91506020830135612fa08161382e565b6000806040838503121561315e57600080fd5b823561316981613816565b946020939093013593505050565b6000806000806080858703121561318d57600080fd5b843561319881613816565b966020860135965060408601359560600135945092505050565b6000602082840312156131c457600080fd5b8151612c908161382e565b6000602082840312156131e157600080fd5b8135612c908161383c565b6000602082840312156131fe57600080fd5b8151612c908161383c565b6000806020838503121561321c57600080fd5b823567ffffffffffffffff8082111561323457600080fd5b818501915085601f83011261324857600080fd5b81358181111561325757600080fd5b86602082850101111561326957600080fd5b60209290920196919550909350505050565b60006020828403121561328d57600080fd5b5035919050565b600080604083850312156132a757600080fd5b50508035926020909101359150565b600081518084526132ce816020860160208601613728565b601f01601f19169290920160200192915050565b600083516132f4818460208801613728565b835190830190613308818360208801613728565b01949350505050565b6001600160a01b039384168152919092166020820152604081019190915260600190565b6001600160a01b0385811682528416602082015260408101839052608060608201819052600090613368908301846132b6565b9695505050505050565b602081526000612c9060208301846132b6565b60208082526026908201527f496e76616c6964205061796d656e7420546f6b656e20636f6e7472616374206160408201526564647265737360d01b606082015260800190565b60208082526032908201527f4552433732313a207472616e7366657220746f206e6f6e20455243373231526560408201527131b2b4bb32b91034b6b83632b6b2b73a32b960711b606082015260800190565b60208082526015908201527420bab1ba34b7b71034b99039ba34b6361037b832b760591b604082015260600190565b602080825260089082015267139195081cdbdb1960c21b604082015260600190565b6020808252601490820152737a65726f207072696365206e6f7420616c6c6f7760601b604082015260600190565b602080825260159082015274092dcecc2d8d2c840c2eac6e8d2dedc40d2dcc8caf605b1b604082015260600190565b60208082526022908201527f43616c6c6572206973206e6f7420746865206f776e6572206f6620746865204e604082015261119560f21b606082015260800190565b60208082526031908201527f4552433732313a207472616e736665722063616c6c6572206973206e6f74206f6040820152701ddb995c881b9bdc88185c1c1c9bdd9959607a1b606082015260800190565b60208082526027908201527f52657175697265204e4654206f776e657273686970207472616e7366657220616040820152661c1c1c9bdd985b60ca1b606082015260800190565b6020808252601f908201527f5265656e7472616e637947756172643a207265656e7472616e742063616c6c00604082015260600190565b60208082526038908201527f546f6b656e732063616e20626520636c61696d6564206f6e6c7920627920746860408201527f652063726561746f72206f66207468652061756374696f6e0000000000000000606082015260800190565b9a8b526001600160a01b03998a1660208c015297891660408b015260608a019690965293871660808901529190951660a087015260c086019490945260e085019390935261010084019290925261012083019190915215156101408201526101600190565b8481526001600160a01b03841660208201526060604082018190528101829052818360808301376000818301608090810191909152601f909201601f191601019392505050565b600082198211156136f8576136f86137be565b500190565b60008261370c5761370c6137d4565b500490565b600082821015613723576137236137be565b500390565b60005b8381101561374357818101518382015260200161372b565b83811115611f2a5750506000910152565b600181811c9082168061376857607f821691505b6020821081141561378957634e487b7160e01b600052602260045260246000fd5b50919050565b60006000198214156137a3576137a36137be565b5060010190565b6000826137b9576137b96137d4565b500690565b634e487b7160e01b600052601160045260246000fd5b634e487b7160e01b600052601260045260246000fd5b634e487b7160e01b600052603260045260246000fd5b634e487b7160e01b600052604160045260246000fd5b6001600160a01b038116811461382b57600080fd5b50565b801515811461382b57600080fd5b6001600160e01b03198116811461382b57600080fdfea26469706673582212205b310c1bdf1ccb4f5daf01bea42bf8bd43c6dd6cec95ef69b656d59d926e4bda64736f6c63430008070033",
  "immutableReferences": {},
  "source": "// SPDX-License-Identifier: MIT\npragma solidity ^0.8.0;\n\nimport \"./ERC20.sol\";\nimport \"./NFTCollection.sol\";\nimport \"@openzeppelin/contracts/token/ERC721/IERC721Receiver.sol\";\nimport \"@openzeppelin/contracts/security/ReentrancyGuard.sol\";\nimport \"@openzeppelin/contracts/utils/Counters.sol\";\nimport \"@openzeppelin/contracts/token/ERC721/extensions/ERC721URIStorage.sol\";\n\ncontract Marketplace is ERC721URIStorage,\nReentrancyGuard {\n       using Counters for Counters.Counter;\n       Counters.Counter private _tokenIds;\n\n\n\n    // Index of auctions\n    uint256 public index = 0;\n\n    // Structure to define auction properties\n    struct Auction {\n        uint256 index; // Auction Index\n        address addressNFTCollection; // Address of the ERC721 NFT Collection contract\n        address addressPaymentToken; // Address of the ERC20 Payment Token contract\n        uint256 nftId; // NFT Id\n        address creator; // Creator of the Auction\n        address payable currentBidOwner; // Address of the highest bider\n        uint256 currentBidPrice; // Current highest bid for the auction\n        uint256 BuyNowprice; // user don't need to bid..\n        uint256 endAuction; // Timestamp for the end day&time of the auction\n        uint256 bidCount; // Number of bid placed on the auction\n        bool sold;\n    }\n\n    // Array will all auctions\n    Auction[] private allAuctions;\n\n    event NewAuction(\n        uint256 index,\n        address addressNFTCollection,\n        address addressPaymentToken,\n        uint256 nftId,\n        address mintedBy,\n        address currentBidOwner,\n        uint256 currentBidPrice,\n        uint256 BuyNowprice,\n        uint256 endAuction,\n        uint256 bidCount,\n        bool sold\n    );\n    event NewBidOnAuction(uint256 auctionIndex, uint256 newBid,uint256 nftId);\n    event NFTClaimed(uint256 auctionIndex, uint256 nftId, address claimedBy);\n    event TokensClaimed(uint256 auctionIndex, uint256 nftId, address claimedBy);\n    event Nftselltotopbidder(uint256 auctionIndex, uint256 nftId, address claimedBy,uint256 price,bool sold);\n    event NFTRefunded(uint256 auctionIndex, uint256 nftId, address claimedBy);\n    event BuyPriceSell(uint256 auctionIndex,uint256 Pirce,bool sold,uint256 nftId);\n    event Updatebuyprice(uint256 auctionIndex,uint256 newpirce,uint256 nftId);\n    event MintnewNFT(uint256 tokenId,address mintaddress,string metaUrl);\n\n\nconstructor() ERC721(\"Metaverse Tokens\", \"METT\") {}\n    /**\n     * Check if a specific address is\n     * a contract address\n     * @param _addr: address to verify\n     */\n    function isContract(address _addr) private view returns (bool) {\n        uint256 size;\n        assembly {\n            size := extcodesize(_addr)\n        }\n        return size > 0;\n    }\n\n\n\n /* Mints a token and lists it in the marketplace */\n    function createToken(string calldata tokenURI) public {\n      _tokenIds.increment();\n      uint256 newTokenId = _tokenIds.current();\n      _mint(msg.sender, newTokenId);\n      _setTokenURI(newTokenId, tokenURI);\n      emit MintnewNFT(newTokenId,msg.sender,tokenURI);\n    }\n\n\n    function createAuction(\n        address _addressNFTCollection,\n        address _addressPaymentToken,\n        uint256 _nftId,\n        uint256 _endAuction,\n        uint256 _Buynowprice\n    ) external returns (uint256) {\n        //Check is addresses are valid\n        require(\n            isContract(_addressNFTCollection),\n            \"Invalid NFT Collection contract address\"\n        );\n        require(\n            isContract(_addressPaymentToken),\n            \"Invalid Payment Token contract address\"\n        );\n\n        // Check if the endAuction time is valid\n        require(_endAuction > block.timestamp, \"Invalid end date for auction\");\n\n        // Check if the initial bid price is > 0\n        // require(_initialBid > 0, \"Invalid initial bid price\");\n\n        // Get NFT collection contract\n        NFTCollection nftCollection = NFTCollection(_addressNFTCollection);\n\n        // Make sure the sender that wants to create a new auction\n        // for a specific NFT is the owner of this NFT\n        require(\n            nftCollection.ownerOf(_nftId) == msg.sender,\n            \"Caller is not the owner of the NFT\"\n        );\n\n        // Make sure the owner of the NFT approved that the MarketPlace contract\n        // is allowed to change ownership of the NFT\n        require(\n            nftCollection.getApproved(_nftId) == address(this),\n            \"Require NFT ownership transfer approval\"\n        );\n        \n        // Lock NFT in Marketplace contract\n        require(nftCollection.transferNFTFrom(msg.sender, address(this), _nftId));\n   // \n      \n\n        //Casting from address to address payable\n        address payable currentBidOwner = payable(address(0));\n        // Create new Auction object\n        Auction memory newAuction = Auction({\n            index: index,\n            addressNFTCollection: _addressNFTCollection,\n            addressPaymentToken: _addressPaymentToken,\n            nftId: _nftId,\n            creator: msg.sender,\n            currentBidOwner: currentBidOwner,\n            currentBidPrice: 0,\n            BuyNowprice:_Buynowprice,\n            endAuction: _endAuction,\n            bidCount: 0,\n            sold:false\n        });\n\n        //update list\n        allAuctions.push(newAuction);\n\n        // increment auction sequence\n        index++;\n\n        // Trigger event and return index of new auction\n           emit NewAuction(\n            index,\n            _addressNFTCollection,\n            _addressPaymentToken,\n            _nftId,\n            msg.sender,\n            currentBidOwner,\n            0,\n            _Buynowprice,\n            _endAuction,\n            0,\n            false\n        );\n        return index;\n    }\n\n\n//this is call when we create listed own collection..\n    function owncreateAuction(\n        address _addressPaymentToken,\n        uint256 _nftId,\n        uint256 _endAuction,\n        uint256 _Buynowprice\n    ) external returns (uint256) {\n        //Check is addresses are valid\n        require(\n            isContract(_addressPaymentToken),\n            \"Invalid Payment Token contract address\"\n        );\n\n        // Check if the endAuction time is valid\n        require(_endAuction > block.timestamp, \"Invalid end date for auction\");\n\n        // Check if the initial bid price is > 0\n        // require(_initialBid > 0, \"Invalid initial bid price\");\n\n        // Make sure the sender that wants to create a new auction\n        // for a specific NFT is the owner of this NFT\n        require(\n            ownerOf(_nftId) == msg.sender,\n            \"Caller is not the owner of the NFT\"\n        );\n        require(\n            getApproved(_nftId) == address(this),\n            \"Require NFT ownership transfer approval\"\n        );\n        \n        // Lock NFT in Marketplace contract\n        require(transferNFTFrom(msg.sender, address(this), _nftId));\n   // \n      \n\n        //Casting from address to address payable\n        address payable currentBidOwner = payable(address(0));\n        // Create new Auction object\n        Auction memory newAuction = Auction({\n            index: index,\n            addressNFTCollection: address(this),\n            addressPaymentToken: _addressPaymentToken,\n            nftId: _nftId,\n            creator: msg.sender,\n            currentBidOwner: currentBidOwner,\n            currentBidPrice: 0,\n            BuyNowprice:_Buynowprice,\n            endAuction: _endAuction,\n            bidCount: 0,\n            sold:false\n        });\n\n        //update list\n        allAuctions.push(newAuction);\n\n        // increment auction sequence\n        index++;\n\n        // Trigger event and return index of new auction\n           emit NewAuction(\n            index,\n            address(this),\n            _addressPaymentToken,\n            _nftId,\n            msg.sender,\n            currentBidOwner,\n            0,\n            _Buynowprice,\n            _endAuction,\n            0,\n            false\n        );\n        return index;\n    }\n\n\n\n\n\n\n\n\n\n    /**\n     * Check if an auction is open\n     * @param _auctionIndex Index of the auction\n     */\n    function isOpen(uint256 _auctionIndex) public view returns (bool) {\n        Auction storage auction = allAuctions[_auctionIndex];\n        if (block.timestamp >= auction.endAuction) return false;\n        return true;\n    }\n\n    function transferNFTFrom(\n        address from,\n        address to,\n        uint256 tokenId\n    ) public virtual returns (bool) {\n        safeTransferFrom(from, to, tokenId);\n        return true;\n    }\n\n\n\n    /**\n     * Return the address of the current highest bider\n     * for a specific auction\n     * @param _auctionIndex Index of the auction\n     */\n    function getCurrentBidOwner(uint256 _auctionIndex)\n        public\n        view\n        returns (address)\n    {\n        require(_auctionIndex < allAuctions.length, \"Invalid auction index\");\n        return allAuctions[_auctionIndex].currentBidOwner;\n    }\n\n    /**\n     * Return the current highest bid price\n     * for a specific auction\n     * @param _auctionIndex Index of the auction\n     */\n    function getCurrentBid(uint256 _auctionIndex)\n        public\n        view\n        returns (uint256)\n    {\n        require(_auctionIndex < allAuctions.length, \"Invalid auction index\");\n        return allAuctions[_auctionIndex].currentBidPrice;\n    }\n\n\n   // is sell done\n  function isSelldone(uint256 _auctionIndex)\n        public\n        view\n        returns (bool)\n    {\n          Auction storage auction = allAuctions[_auctionIndex];\n        return auction.sold;\n    }\n\n\n\n\n    /**\n     * Place new bid on a specific auction\n     * @param _auctionIndex Index of auction\n     * @param _newBid New bid price\n     */\n    function bid(uint256 _auctionIndex, uint256 _newBid)\n        external\n        returns (bool)\n    {\n        require(_auctionIndex < allAuctions.length, \"Invalid auction index\");\n        Auction storage auction = allAuctions[_auctionIndex];\n\n        // check if auction is still open\n        require(isOpen(_auctionIndex), \"Auction is not open\");\n\n        // check if new bid price is higher than the current one\n        require(\n            _newBid > auction.currentBidPrice,\n            \"New bid price must be higher than the current bid\"\n        );\n\n        // check if new bider is not the owner\n        require(\n            msg.sender != auction.creator,\n            \"Creator of the auction cannot place new bid\"\n        );\n\n        // get ERC20 token contract\n        ERC20 paymentToken = ERC20(auction.addressPaymentToken);\n\n        // new bid is better than current bid!\n\n        // transfer token from new bider account to the marketplace account\n        // to lock the tokens\n        require(\n            paymentToken.transferFrom(msg.sender, address(this), _newBid),\n            \"Tranfer of token failed\"\n        );\n\n        // new bid is valid so must refund the current bid owner (if there is one!)\n        if (auction.bidCount > 0) {\n            paymentToken.transfer(\n                auction.currentBidOwner,\n                auction.currentBidPrice\n            );\n        }\n\n        // update auction info\n        address payable newBidOwner = payable(msg.sender);\n        auction.currentBidOwner = newBidOwner;\n        auction.currentBidPrice = _newBid;\n        auction.bidCount++;\n\n        // Trigger public event\n       emit NewBidOnAuction(_auctionIndex, _newBid,auction.nftId);\n        return true;\n    }\n\n    /**\n     * Function used by the winner of an auction\n     * to withdraw his NFT.\n     * When the NFT is withdrawn, the creator of the\n     * auction will receive the payment tokens in his wallet\n     * @param _auctionIndex Index of auction\n     */\n    \n\n  function DirectBuy(uint256 _auctionIndex,uint256 _price) external nonReentrant{\n\n   require(_auctionIndex < allAuctions.length, \"Invalid auction index\");\n\n        // Check if the auction is closed\n    require(!isSelldone(_auctionIndex),\"NFT sold\");\n       // require(!isOpen(_auctionIndex), \"Auction is still open\");\n        //price !=0\n        require(_price!=0,\"zero price not allow\");\n         // Get auction\n        Auction storage auction = allAuctions[_auctionIndex];\n            NFTCollection nftCollection = NFTCollection(\n            auction.addressNFTCollection\n        );\n       require(auction.currentBidPrice<=_price,\"You can't buy this..Top bidder can buy\");\n        // get ERC20 token contract\n        ERC20 paymentToken = ERC20(auction.addressPaymentToken);\n       require(auction.BuyNowprice==_price,\"price not same\");\n       require(nftCollection.transferNFTFrom(\n                address(this),\n                msg.sender,\n                auction.nftId\n               \n            ),\"Nft trsanfer failed\");\n\n        require(\n            paymentToken.transferFrom(msg.sender,auction.creator, _price),\n            \"Tranfer of token failed\"\n        );\n\n        // Transfer locked token from the marketplace\n        // contract to the auction creator address\n        require(\n            paymentToken.transfer(auction.currentBidOwner, auction.currentBidPrice)\n        );\n        auction.sold = true;\n\nemit BuyPriceSell(\n_auctionIndex,\n_price,\ntrue,\nauction.nftId\n);\n  }\n\n    function claimNFT(uint256 _auctionIndex) external {\n        require(_auctionIndex < allAuctions.length, \"Invalid auction index\");\n        ///is sold\n        require(!isSelldone(_auctionIndex),\"NFT sold\");\n        // Check if the auction is closed\n        require(!isOpen(_auctionIndex), \"Auction is still open\");\n\n        // Get auction\n        Auction storage auction = allAuctions[_auctionIndex];\n\n        // Check if the caller is the winner of the auction\n        require(\n            auction.currentBidOwner == msg.sender,\n            \"NFT can be claimed only by the current bid owner\"\n        );\n\n        // Get NFT collection contract\n        NFTCollection nftCollection = NFTCollection(\n            auction.addressNFTCollection\n        );\n        // Transfer NFT from marketplace contract\n        // to the winner address\n        require(\n            nftCollection.transferNFTFrom(\n                address(this),\n                auction.currentBidOwner,\n                _auctionIndex\n            )\n        );\n\n        // Get ERC20 Payment token contract\n        ERC20 paymentToken = ERC20(auction.addressPaymentToken);\n        // Transfer locked token from the marketplace\n        // contract to the auction creator address\n        require(\n            paymentToken.transfer(auction.creator, auction.currentBidPrice)\n        );\n\n        emit NFTClaimed(_auctionIndex, auction.nftId, msg.sender);\n    }\n\n    /**\n     * Function used by the creator of an auction\n     * to withdraw his tokens when the auction is closed\n     * When the Token are withdrawn, the winned of the\n     * auction will receive the NFT in his walled\n     * @param _auctionIndex Index of the auction\n     */\n\n    function claimToken(uint256 _auctionIndex) external {\n        require(_auctionIndex < allAuctions.length, \"Invalid auction index\"); // XXX Optimize\n\n        // Check if the auction is closed\n        require(!isOpen(_auctionIndex), \"Auction is still open\");\n        \n        require(!isSelldone(_auctionIndex),\"NFT sold\");\n        // Get auction\n        Auction storage auction = allAuctions[_auctionIndex];\n\n        // Check if the caller is the creator of the auction\n        require(\n            auction.creator == msg.sender,\n            \"Tokens can be claimed only by the creator of the auction\"\n        );\n\n        // Get NFT Collection contract\n        NFTCollection nftCollection = NFTCollection(\n            auction.addressNFTCollection\n        );\n        // Transfer NFT from marketplace contract\n        // to the winned of the auction\n        nftCollection.transferFrom(\n            address(this),\n            auction.currentBidOwner,\n            auction.nftId\n        );\n\n        // Get ERC20 Payment token contract\n        ERC20 paymentToken = ERC20(auction.addressPaymentToken);\n        // Transfer locked tokens from the market place contract\n        // to the wallet of the creator of the auction\n        paymentToken.transfer(auction.creator, auction.currentBidPrice);\n\n        emit TokensClaimed(_auctionIndex, auction.nftId, msg.sender);\n    }\n\n\n\n   // this function will allow you to sell ur nft to highest bidder\n\n  function SellTokenToBider(uint256 _auctionIndex) external nonReentrant {\n\n        require(_auctionIndex < allAuctions.length, \"Invalid auction index\"); // XXX Optimize\n         \n        require(!isSelldone(_auctionIndex),\"NFT sold\");\n        // Get auction\n        Auction storage auction = allAuctions[_auctionIndex];\n         require(auction.currentBidPrice!=0,\"zero price not allow\");\n        // Check if the caller is the creator of the auction\n        require(\n            auction.creator == msg.sender,\n            \"Tokens can be claimed only by the creator of the auction\"\n        );\n\n        // Get NFT Collection contract\n        NFTCollection nftCollection = NFTCollection(\n            auction.addressNFTCollection\n        );\n        // Transfer NFT from marketplace contract\n        // to the winned of the auction\n        nftCollection.transferFrom(\n            address(this),\n            auction.currentBidOwner,\n            auction.nftId\n        );\n\n        // Get ERC20 Payment token contract\n        ERC20 paymentToken = ERC20(auction.addressPaymentToken);\n        // Transfer locked tokens from the market place contract\n        // to the wallet of the creator of the auction\n        paymentToken.transfer(auction.creator, auction.currentBidPrice);\n        auction.sold = true;  \n        emit Nftselltotopbidder(\n    _auctionIndex,\n         auction.nftId,\n       msg.sender,\n       auction.currentBidPrice,\n       true);\n    }\n\n\n\n\n\n  function Updateauctionprice(uint256 _auctionIndex,uint256 _price) external nonReentrant {\n\n        require(_auctionIndex < allAuctions.length, \"Invalid auction index\"); // XXX Optimize\n         \n        require(!isSelldone(_auctionIndex),\"NFT sold\");\n        // Get auction\n        Auction storage auction = allAuctions[_auctionIndex];\n         require(_price!=0,\"zero price not allow\");\n        require(_price>auction.BuyNowprice,\"price need big from old\");\n        // Check if the caller is the creator of the auction\n        require(\n            auction.creator == msg.sender,\n            \"Tokens can be claimed only by the creator of the auction\"\n        );\n\n        auction.BuyNowprice = _price;  \n        emit Updatebuyprice(_auctionIndex,_price,auction.nftId);\n    }\n\n\n    /**\n     * Function used by the creator of an auction\n     * to get his NFT back in case the auction is closed\n     * but there is no bider to make the NFT won't stay locked\n     * in the contract\n     * @param _auctionIndex Index of the auction\n     */\n    function refund(uint256 _auctionIndex) external nonReentrant {\n        require(_auctionIndex < allAuctions.length, \"Invalid auction index\");\n\n        // Check if the auction is closed\n        require(!isOpen(_auctionIndex), \"Auction is still open\");\n        // Check if the auction is sold or not..\n        require(!isSelldone(_auctionIndex),\"NFT sold\");\n        // Get auction\n        Auction storage auction = allAuctions[_auctionIndex];\n\n        // Check if the caller is the creator of the auction\n        require(\n            auction.creator == msg.sender,\n            \"Tokens can be claimed only by the creator of the auction\"\n        );\n\n        require(\n            auction.currentBidOwner == address(0),\n            \"Existing bider for this auction\"\n        );\n\n        // Get NFT Collection contract\n        NFTCollection nftCollection = NFTCollection(\n            auction.addressNFTCollection\n        );\n        // Transfer NFT back from marketplace contract\n        // to the creator of the auction\n        nftCollection.transferFrom(\n            address(this),\n            auction.creator,\n            auction.nftId\n        );\n        emit NFTRefunded(_auctionIndex, auction.nftId, msg.sender);\n    }\n\n\n\n\n    function onERC721Received(\n        address,\n        address,\n        uint256,\n        bytes memory\n    ) public virtual  returns (bytes4) {\n        return this.onERC721Received.selector;\n    }\n}\n",
  "sourcePath": "/home/sa/Desktop/All Folder/Sayed/sayed12/Sayed/contracts/Marketplace.sol",
  "compiler": {
    "name": "solc",
    "version": "0.8.7+commit.e28d00a7.Emscripten.clang"
  },
  "schemaVersion": "3.4.4",
  "updatedAt": "2022-07-28T11:29:52.074Z",
  "networkType": "ethereum",
  "devdoc": {
    "kind": "dev",
    "methods": {
      "DirectBuy(uint256,uint256)": {
        "params": {
          "_auctionIndex": "Index of auction"
        }
      },
      "approve(address,uint256)": {
        "details": "See {IERC721-approve}."
      },
      "balanceOf(address)": {
        "details": "See {IERC721-balanceOf}."
      },
      "bid(uint256,uint256)": {
        "params": {
          "_auctionIndex": "Index of auction",
          "_newBid": "New bid price"
        }
      },
      "claimToken(uint256)": {
        "params": {
          "_auctionIndex": "Index of the auction"
        }
      },
      "getApproved(uint256)": {
        "details": "See {IERC721-getApproved}."
      },
      "getCurrentBid(uint256)": {
        "params": {
          "_auctionIndex": "Index of the auction"
        }
      },
      "getCurrentBidOwner(uint256)": {
        "params": {
          "_auctionIndex": "Index of the auction"
        }
      },
      "isApprovedForAll(address,address)": {
        "details": "See {IERC721-isApprovedForAll}."
      },
      "isOpen(uint256)": {
        "params": {
          "_auctionIndex": "Index of the auction"
        }
      },
      "name()": {
        "details": "See {IERC721Metadata-name}."
      },
      "ownerOf(uint256)": {
        "details": "See {IERC721-ownerOf}."
      },
      "refund(uint256)": {
        "params": {
          "_auctionIndex": "Index of the auction"
        }
      },
      "safeTransferFrom(address,address,uint256)": {
        "details": "See {IERC721-safeTransferFrom}."
      },
      "safeTransferFrom(address,address,uint256,bytes)": {
        "details": "See {IERC721-safeTransferFrom}."
      },
      "setApprovalForAll(address,bool)": {
        "details": "See {IERC721-setApprovalForAll}."
      },
      "supportsInterface(bytes4)": {
        "details": "See {IERC165-supportsInterface}."
      },
      "symbol()": {
        "details": "See {IERC721Metadata-symbol}."
      },
      "tokenURI(uint256)": {
        "details": "See {IERC721Metadata-tokenURI}."
      },
      "transferFrom(address,address,uint256)": {
        "details": "See {IERC721-transferFrom}."
      }
    },
    "version": 1
  },
  "userdoc": {
    "kind": "user",
    "methods": {
      "DirectBuy(uint256,uint256)": {
        "notice": "Function used by the winner of an auction to withdraw his NFT. When the NFT is withdrawn, the creator of the auction will receive the payment tokens in his wallet"
      },
      "bid(uint256,uint256)": {
        "notice": "Place new bid on a specific auction"
      },
      "claimToken(uint256)": {
        "notice": "Function used by the creator of an auction to withdraw his tokens when the auction is closed When the Token are withdrawn, the winned of the auction will receive the NFT in his walled"
      },
      "getCurrentBid(uint256)": {
        "notice": "Return the current highest bid price for a specific auction"
      },
      "getCurrentBidOwner(uint256)": {
        "notice": "Return the address of the current highest bider for a specific auction"
      },
      "isOpen(uint256)": {
        "notice": "Check if an auction is open"
      },
      "refund(uint256)": {
        "notice": "Function used by the creator of an auction to get his NFT back in case the auction is closed but there is no bider to make the NFT won't stay locked in the contract"
      }
    },
    "version": 1
  }
}