{
  "contractName": "NFTCollectible",
  "abi": [
    {
      "inputs": [
        {
          "internalType": "string",
          "name": "baseURI",
          "type": "string"
        },
        {
          "internalType": "bytes32",
          "name": "_root",
          "type": "bytes32"
        }
      ],
      "stateMutability": "nonpayable",
      "type": "constructor"
    },
    {
      "anonymous": false,
      "inputs": [
        {
          "indexed": true,
          "internalType": "address",
          "name": "owner",
          "type": "address"
        },
        {
          "indexed": true,
          "internalType": "address",
          "name": "approved",
          "type": "address"
        },
        {
          "indexed": true,
          "internalType": "uint256",
          "name": "tokenId",
          "type": "uint256"
        }
      ],
      "name": "Approval",
      "type": "event"
    },
    {
      "anonymous": false,
      "inputs": [
        {
          "indexed": true,
          "internalType": "address",
          "name": "owner",
          "type": "address"
        },
        {
          "indexed": true,
          "internalType": "address",
          "name": "operator",
          "type": "address"
        },
        {
          "indexed": false,
          "internalType": "bool",
          "name": "approved",
          "type": "bool"
        }
      ],
      "name": "ApprovalForAll",
      "type": "event"
    },
    {
      "anonymous": false,
      "inputs": [
        {
          "indexed": true,
          "internalType": "address",
          "name": "previousOwner",
          "type": "address"
        },
        {
          "indexed": true,
          "internalType": "address",
          "name": "newOwner",
          "type": "address"
        }
      ],
      "name": "OwnershipTransferred",
      "type": "event"
    },
    {
      "anonymous": false,
      "inputs": [
        {
          "indexed": true,
          "internalType": "address",
          "name": "from",
          "type": "address"
        },
        {
          "indexed": true,
          "internalType": "address",
          "name": "to",
          "type": "address"
        },
        {
          "indexed": true,
          "internalType": "uint256",
          "name": "tokenId",
          "type": "uint256"
        }
      ],
      "name": "Transfer",
      "type": "event"
    },
    {
      "inputs": [
        {
          "internalType": "uint256",
          "name": "",
          "type": "uint256"
        }
      ],
      "name": "AllowedCrypto",
      "outputs": [
        {
          "internalType": "contract IERC20",
          "name": "paytoken",
          "type": "address"
        },
        {
          "internalType": "uint256",
          "name": "costvalue",
          "type": "uint256"
        }
      ],
      "stateMutability": "view",
      "type": "function"
    },
    {
      "inputs": [],
      "name": "MAX_PER_MINT",
      "outputs": [
        {
          "internalType": "uint256",
          "name": "",
          "type": "uint256"
        }
      ],
      "stateMutability": "view",
      "type": "function"
    },
    {
      "inputs": [],
      "name": "MAX_SUPPLY",
      "outputs": [
        {
          "internalType": "uint256",
          "name": "",
          "type": "uint256"
        }
      ],
      "stateMutability": "view",
      "type": "function"
    },
    {
      "inputs": [],
      "name": "PRICE",
      "outputs": [
        {
          "internalType": "uint256",
          "name": "",
          "type": "uint256"
        }
      ],
      "stateMutability": "view",
      "type": "function"
    },
    {
      "inputs": [
        {
          "internalType": "address",
          "name": "to",
          "type": "address"
        },
        {
          "internalType": "uint256",
          "name": "tokenId",
          "type": "uint256"
        }
      ],
      "name": "approve",
      "outputs": [],
      "stateMutability": "nonpayable",
      "type": "function"
    },
    {
      "inputs": [
        {
          "internalType": "address",
          "name": "owner",
          "type": "address"
        }
      ],
      "name": "balanceOf",
      "outputs": [
        {
          "internalType": "uint256",
          "name": "",
          "type": "uint256"
        }
      ],
      "stateMutability": "view",
      "type": "function"
    },
    {
      "inputs": [],
      "name": "baseTokenURI",
      "outputs": [
        {
          "internalType": "string",
          "name": "",
          "type": "string"
        }
      ],
      "stateMutability": "view",
      "type": "function"
    },
    {
      "inputs": [],
      "name": "end",
      "outputs": [
        {
          "internalType": "uint256",
          "name": "",
          "type": "uint256"
        }
      ],
      "stateMutability": "view",
      "type": "function"
    },
    {
      "inputs": [
        {
          "internalType": "uint256",
          "name": "tokenId",
          "type": "uint256"
        }
      ],
      "name": "getApproved",
      "outputs": [
        {
          "internalType": "address",
          "name": "",
          "type": "address"
        }
      ],
      "stateMutability": "view",
      "type": "function"
    },
    {
      "inputs": [
        {
          "internalType": "address",
          "name": "owner",
          "type": "address"
        },
        {
          "internalType": "address",
          "name": "operator",
          "type": "address"
        }
      ],
      "name": "isApprovedForAll",
      "outputs": [
        {
          "internalType": "bool",
          "name": "",
          "type": "bool"
        }
      ],
      "stateMutability": "view",
      "type": "function"
    },
    {
      "inputs": [],
      "name": "name",
      "outputs": [
        {
          "internalType": "string",
          "name": "",
          "type": "string"
        }
      ],
      "stateMutability": "view",
      "type": "function"
    },
    {
      "inputs": [],
      "name": "owner",
      "outputs": [
        {
          "internalType": "address",
          "name": "",
          "type": "address"
        }
      ],
      "stateMutability": "view",
      "type": "function"
    },
    {
      "inputs": [
        {
          "internalType": "uint256",
          "name": "tokenId",
          "type": "uint256"
        }
      ],
      "name": "ownerOf",
      "outputs": [
        {
          "internalType": "address",
          "name": "",
          "type": "address"
        }
      ],
      "stateMutability": "view",
      "type": "function"
    },
    {
      "inputs": [],
      "name": "renounceOwnership",
      "outputs": [],
      "stateMutability": "nonpayable",
      "type": "function"
    },
    {
      "inputs": [],
      "name": "revealed",
      "outputs": [
        {
          "internalType": "bool",
          "name": "",
          "type": "bool"
        }
      ],
      "stateMutability": "view",
      "type": "function"
    },
    {
      "inputs": [],
      "name": "root",
      "outputs": [
        {
          "internalType": "bytes32",
          "name": "",
          "type": "bytes32"
        }
      ],
      "stateMutability": "view",
      "type": "function"
    },
    {
      "inputs": [
        {
          "internalType": "address",
          "name": "from",
          "type": "address"
        },
        {
          "internalType": "address",
          "name": "to",
          "type": "address"
        },
        {
          "internalType": "uint256",
          "name": "tokenId",
          "type": "uint256"
        }
      ],
      "name": "safeTransferFrom",
      "outputs": [],
      "stateMutability": "nonpayable",
      "type": "function"
    },
    {
      "inputs": [
        {
          "internalType": "address",
          "name": "from",
          "type": "address"
        },
        {
          "internalType": "address",
          "name": "to",
          "type": "address"
        },
        {
          "internalType": "uint256",
          "name": "tokenId",
          "type": "uint256"
        },
        {
          "internalType": "bytes",
          "name": "_data",
          "type": "bytes"
        }
      ],
      "name": "safeTransferFrom",
      "outputs": [],
      "stateMutability": "nonpayable",
      "type": "function"
    },
    {
      "inputs": [
        {
          "internalType": "address",
          "name": "operator",
          "type": "address"
        },
        {
          "internalType": "bool",
          "name": "approved",
          "type": "bool"
        }
      ],
      "name": "setApprovalForAll",
      "outputs": [],
      "stateMutability": "nonpayable",
      "type": "function"
    },
    {
      "inputs": [
        {
          "internalType": "bytes4",
          "name": "interfaceId",
          "type": "bytes4"
        }
      ],
      "name": "supportsInterface",
      "outputs": [
        {
          "internalType": "bool",
          "name": "",
          "type": "bool"
        }
      ],
      "stateMutability": "view",
      "type": "function"
    },
    {
      "inputs": [],
      "name": "symbol",
      "outputs": [
        {
          "internalType": "string",
          "name": "",
          "type": "string"
        }
      ],
      "stateMutability": "view",
      "type": "function"
    },
    {
      "inputs": [
        {
          "internalType": "uint256",
          "name": "index",
          "type": "uint256"
        }
      ],
      "name": "tokenByIndex",
      "outputs": [
        {
          "internalType": "uint256",
          "name": "",
          "type": "uint256"
        }
      ],
      "stateMutability": "view",
      "type": "function"
    },
    {
      "inputs": [
        {
          "internalType": "address",
          "name": "owner",
          "type": "address"
        },
        {
          "internalType": "uint256",
          "name": "index",
          "type": "uint256"
        }
      ],
      "name": "tokenOfOwnerByIndex",
      "outputs": [
        {
          "internalType": "uint256",
          "name": "",
          "type": "uint256"
        }
      ],
      "stateMutability": "view",
      "type": "function"
    },
    {
      "inputs": [],
      "name": "totalSupply",
      "outputs": [
        {
          "internalType": "uint256",
          "name": "",
          "type": "uint256"
        }
      ],
      "stateMutability": "view",
      "type": "function"
    },
    {
      "inputs": [
        {
          "internalType": "address",
          "name": "from",
          "type": "address"
        },
        {
          "internalType": "address",
          "name": "to",
          "type": "address"
        },
        {
          "internalType": "uint256",
          "name": "tokenId",
          "type": "uint256"
        }
      ],
      "name": "transferFrom",
      "outputs": [],
      "stateMutability": "nonpayable",
      "type": "function"
    },
    {
      "inputs": [
        {
          "internalType": "address",
          "name": "newOwner",
          "type": "address"
        }
      ],
      "name": "transferOwnership",
      "outputs": [],
      "stateMutability": "nonpayable",
      "type": "function"
    },
    {
      "inputs": [],
      "name": "reserveNFTs",
      "outputs": [],
      "stateMutability": "nonpayable",
      "type": "function"
    },
    {
      "inputs": [
        {
          "internalType": "uint256",
          "name": "period",
          "type": "uint256"
        }
      ],
      "name": "endTimer",
      "outputs": [],
      "stateMutability": "nonpayable",
      "type": "function"
    },
    {
      "inputs": [],
      "name": "Countdown",
      "outputs": [
        {
          "internalType": "bool",
          "name": "",
          "type": "bool"
        }
      ],
      "stateMutability": "view",
      "type": "function"
    },
    {
      "inputs": [],
      "name": "timeLeft",
      "outputs": [
        {
          "internalType": "uint256",
          "name": "",
          "type": "uint256"
        }
      ],
      "stateMutability": "view",
      "type": "function"
    },
    {
      "inputs": [
        {
          "internalType": "string",
          "name": "_baseTokenURI",
          "type": "string"
        }
      ],
      "name": "setBaseURI",
      "outputs": [],
      "stateMutability": "nonpayable",
      "type": "function"
    },
    {
      "inputs": [
        {
          "internalType": "uint256",
          "name": "_newMax",
          "type": "uint256"
        }
      ],
      "name": "SetMaxmint",
      "outputs": [],
      "stateMutability": "nonpayable",
      "type": "function"
    },
    {
      "inputs": [
        {
          "internalType": "uint256",
          "name": "_PRICE",
          "type": "uint256"
        }
      ],
      "name": "SetNewPrice",
      "outputs": [],
      "stateMutability": "nonpayable",
      "type": "function"
    },
    {
      "inputs": [
        {
          "internalType": "bool",
          "name": "_revealed",
          "type": "bool"
        }
      ],
      "name": "changeRevealed",
      "outputs": [],
      "stateMutability": "nonpayable",
      "type": "function"
    },
    {
      "inputs": [
        {
          "internalType": "uint256",
          "name": "tokenId",
          "type": "uint256"
        }
      ],
      "name": "tokenURI",
      "outputs": [
        {
          "internalType": "string",
          "name": "",
          "type": "string"
        }
      ],
      "stateMutability": "view",
      "type": "function"
    },
    {
      "inputs": [
        {
          "internalType": "contract IERC20",
          "name": "_paytoken",
          "type": "address"
        },
        {
          "internalType": "uint256",
          "name": "_costvalue",
          "type": "uint256"
        }
      ],
      "name": "addCurrency",
      "outputs": [],
      "stateMutability": "nonpayable",
      "type": "function"
    },
    {
      "inputs": [
        {
          "internalType": "uint256",
          "name": "_count",
          "type": "uint256"
        },
        {
          "internalType": "bytes32[]",
          "name": "proof",
          "type": "bytes32[]"
        },
        {
          "internalType": "uint256",
          "name": "_pid",
          "type": "uint256"
        }
      ],
      "name": "mintNFTs",
      "outputs": [],
      "stateMutability": "payable",
      "type": "function"
    },
    {
      "inputs": [
        {
          "internalType": "bytes32[]",
          "name": "proof",
          "type": "bytes32[]"
        },
        {
          "internalType": "bytes32",
          "name": "leaf",
          "type": "bytes32"
        }
      ],
      "name": "isValid",
      "outputs": [
        {
          "internalType": "bool",
          "name": "",
          "type": "bool"
        }
      ],
      "stateMutability": "view",
      "type": "function"
    },
    {
      "inputs": [
        {
          "internalType": "address",
          "name": "_owner",
          "type": "address"
        }
      ],
      "name": "tokensOfOwner",
      "outputs": [
        {
          "internalType": "uint256[]",
          "name": "",
          "type": "uint256[]"
        }
      ],
      "stateMutability": "view",
      "type": "function"
    },
    {
      "inputs": [],
      "name": "withdraw",
      "outputs": [],
      "stateMutability": "payable",
      "type": "function"
    }
  ],
  "bytecode": "0x6080604052600e805460ff19169055606460105560056011553480156200002557600080fd5b5060405162002dfe38038062002dfe833981016040819052620000489162000257565b604080518082018252600f81526e4e465420436f6c6c65637469626c6560881b6020808301918252835180850190945260048452634e46544360e01b9084015281519192916200009b91600091620001b1565b508051620000b1906001906020840190620001b1565b505050620000ce620000c8620000e360201b60201c565b620000e7565b620000d98262000139565b600b55506200038f565b3390565b600a80546001600160a01b038381166001600160a01b0319831681179093556040519116919082907f8be0079c531659141344cd1fd0a4f28419497f9722a3daafe3b4186f6b6457e090600090a35050565b600a546001600160a01b03163314620001985760405162461bcd60e51b815260206004820181905260248201527f4f776e61626c653a2063616c6c6572206973206e6f7420746865206f776e6572604482015260640160405180910390fd5b8051620001ad906012906020840190620001b1565b5050565b828054620001bf906200033c565b90600052602060002090601f016020900481019282620001e357600085556200022e565b82601f10620001fe57805160ff19168380011785556200022e565b828001600101855582156200022e579182015b828111156200022e57825182559160200191906001019062000211565b506200023c92915062000240565b5090565b5b808211156200023c576000815560010162000241565b600080604083850312156200026b57600080fd5b82516001600160401b03808211156200028357600080fd5b818501915085601f8301126200029857600080fd5b815181811115620002ad57620002ad62000379565b604051601f8201601f19908116603f01168101908382118183101715620002d857620002d862000379565b81604052828152602093508884848701011115620002f557600080fd5b600091505b82821015620003195784820184015181830185015290830190620002fa565b828211156200032b5760008484830101525b969092015195979596505050505050565b600181811c908216806200035157607f821691505b602082108114156200037357634e487b7160e01b600052602260045260246000fd5b50919050565b634e487b7160e01b600052604160045260246000fd5b612a5f806200039f6000396000f3fe60806040526004361061023b5760003560e01c8063690e4fc31161012e578063b88d4fde116100ab578063e985e9c51161006f578063e985e9c514610672578063ebf0c717146106bb578063efbe1c1c146106d1578063f2fde38b146106e7578063f668615c1461070757600080fd5b8063b88d4fde146105dd578063b8a20ed0146105fd578063c87b56dd1461061d578063cf3604dc1461063d578063d547cfb71461065d57600080fd5b80638da5cb5b116100f25780638da5cb5b1461054a57806395d89b41146105685780639c0fe4251461057d578063a22cb4651461059d578063b0daa260146105bd57600080fd5b8063690e4fc3146104b257806370a08231146104d2578063715018a6146104f25780638462151c146105075780638d859f3e1461053457600080fd5b806326c91cad116101bc5780634f6ccce7116101805780634f6ccce714610425578063518302271461044557806351ae43011461045f57806355f804b3146104725780636352211e1461049257600080fd5b806326c91cad146103895780632f745c59146103c857806332cb6b0c146103e85780633ccfd60b146103fd57806342842e0e1461040557600080fd5b80631300a6d1116102035780631300a6d114610315578063144100c71461032a57806318160ddd1461033f5780631acabb801461035457806323b872dd1461036957600080fd5b806301ffc9a71461024057806306fdde0314610275578063081812fc14610297578063095ea7b3146102cf57806309d42b30146102f1575b600080fd5b34801561024c57600080fd5b5061026061025b36600461259b565b610727565b60405190151581526020015b60405180910390f35b34801561028157600080fd5b5061028a610752565b60405161026c91906127a5565b3480156102a357600080fd5b506102b76102b236600461261e565b6107e4565b6040516001600160a01b03909116815260200161026c565b3480156102db57600080fd5b506102ef6102ea3660046124e9565b61087e565b005b3480156102fd57600080fd5b5061030760115481565b60405190815260200161026c565b34801561032157600080fd5b50610307610994565b34801561033657600080fd5b506102ef6109a9565b34801561034b57600080fd5b50600854610307565b34801561036057600080fd5b50610260610a82565b34801561037557600080fd5b506102ef6103843660046123fa565b610a99565b34801561039557600080fd5b506103a96103a436600461261e565b610aca565b604080516001600160a01b03909316835260208301919091520161026c565b3480156103d457600080fd5b506103076103e33660046124e9565b610b02565b3480156103f457600080fd5b50610307606481565b6102ef610b98565b34801561041157600080fd5b506102ef6104203660046123fa565b610c9b565b34801561043157600080fd5b5061030761044036600461261e565b610cb6565b34801561045157600080fd5b50600e546102609060ff1681565b6102ef61046d366004612637565b610d49565b34801561047e57600080fd5b506102ef61048d3660046125d5565b611076565b34801561049e57600080fd5b506102b76104ad36600461261e565b6110b3565b3480156104be57600080fd5b506102ef6104cd3660046124e9565b61112a565b3480156104de57600080fd5b506103076104ed3660046123a4565b6111e9565b3480156104fe57600080fd5b506102ef611270565b34801561051357600080fd5b506105276105223660046123a4565b6112a6565b60405161026c9190612761565b34801561054057600080fd5b5061030760105481565b34801561055657600080fd5b50600a546001600160a01b03166102b7565b34801561057457600080fd5b5061028a611348565b34801561058957600080fd5b506102ef61059836600461261e565b611357565b3480156105a957600080fd5b506102ef6105b83660046124bb565b611386565b3480156105c957600080fd5b506102ef6105d836600461261e565b611391565b3480156105e957600080fd5b506102ef6105f836600461243b565b6113c0565b34801561060957600080fd5b50610260610618366004612515565b6113f8565b34801561062957600080fd5b5061028a61063836600461261e565b611443565b34801561064957600080fd5b506102ef610658366004612561565b611541565b34801561066957600080fd5b5061028a61157e565b34801561067e57600080fd5b5061026061068d3660046123c1565b6001600160a01b03918216600090815260056020908152604080832093909416825291909152205460ff1690565b3480156106c757600080fd5b50610307600b5481565b3480156106dd57600080fd5b50610307600c5481565b3480156106f357600080fd5b506102ef6107023660046123a4565b61160c565b34801561071357600080fd5b506102ef61072236600461261e565b6116a7565b60006001600160e01b0319821663780e9d6360e01b148061074c575061074c826116d6565b92915050565b6060600080546107619061291e565b80601f016020809104026020016040519081016040528092919081815260200182805461078d9061291e565b80156107da5780601f106107af576101008083540402835291602001916107da565b820191906000526020600020905b8154815290600101906020018083116107bd57829003601f168201915b5050505050905090565b6000818152600260205260408120546001600160a01b03166108625760405162461bcd60e51b815260206004820152602c60248201527f4552433732313a20617070726f76656420717565727920666f72206e6f6e657860448201526b34b9ba32b73a103a37b5b2b760a11b60648201526084015b60405180910390fd5b506000908152600460205260409020546001600160a01b031690565b6000610889826110b3565b9050806001600160a01b0316836001600160a01b031614156108f75760405162461bcd60e51b815260206004820152602160248201527f4552433732313a20617070726f76616c20746f2063757272656e74206f776e656044820152603960f91b6064820152608401610859565b336001600160a01b03821614806109135750610913813361068d565b6109855760405162461bcd60e51b815260206004820152603860248201527f4552433732313a20617070726f76652063616c6c6572206973206e6f74206f7760448201527f6e6572206e6f7220617070726f76656420666f7220616c6c00000000000000006064820152608401610859565b61098f8383611726565b505050565b600042600c546109a491906128db565b905090565b600a546001600160a01b031633146109d35760405162461bcd60e51b81526004016108599061280a565b60006109de600d5490565b905060646109ed82600a611794565b10610a3a5760405162461bcd60e51b815260206004820152601f60248201527f4e6f7420656e6f756768204e465473206c65667420746f2072657365727665006044820152606401610859565b60005b600a811015610a7e576000610a51600d5490565b9050610a5d33826117a0565b610a6b600d80546001019055565b5080610a7681612953565b915050610a3d565b5050565b6000600c544210610a935750600190565b50600090565b610aa333826117ba565b610abf5760405162461bcd60e51b81526004016108599061283f565b61098f8383836118ad565b600f8181548110610ada57600080fd5b6000918252602090912060029091020180546001909101546001600160a01b03909116915082565b6000610b0d836111e9565b8210610b6f5760405162461bcd60e51b815260206004820152602b60248201527f455243373231456e756d657261626c653a206f776e657220696e646578206f7560448201526a74206f6620626f756e647360a81b6064820152608401610859565b506001600160a01b03919091166000908152600660209081526040808320938352929052205490565b600a546001600160a01b03163314610bc25760405162461bcd60e51b81526004016108599061280a565b4780610c105760405162461bcd60e51b815260206004820152601960248201527f4e6f206574686572206c65667420746f207769746864726177000000000000006044820152606401610859565b604051600090339083908381818185875af1925050503d8060008114610c52576040519150601f19603f3d011682016040523d82523d6000602084013e610c57565b606091505b5050905080610a7e5760405162461bcd60e51b815260206004820152601060248201526f2a3930b739b332b9103330b4b632b21760811b6044820152606401610859565b61098f838383604051806020016040528060008152506113c0565b6000610cc160085490565b8210610d245760405162461bcd60e51b815260206004820152602c60248201527f455243373231456e756d657261626c653a20676c6f62616c20696e646578206f60448201526b7574206f6620626f756e647360a01b6064820152608401610859565b60088281548110610d3757610d376129c4565b90600052602060002001549050919050565b610d51610a82565b610d8f5760405162461bcd60e51b815260206004820152600f60248201526e1b9bdd081cdd185c9d19590816595d608a1b6044820152606401610859565b6000600f8281548110610da457610da46129c4565b600091825260209182902060029190910201805460018201546040516bffffffffffffffffffffffff193360601b16948101949094529193506001600160a01b031691610e0d9087908790603401604051602081830303815290604052805190602001206113f8565b610e595760405162461bcd60e51b815260206004820152601760248201527f4e6f7420612070617274206f6620416c6c6f776c6973740000000000000000006044820152606401610859565b6000610e64600d5490565b90506064610e72828a611794565b1115610eb85760405162461bcd60e51b81526020600482015260156024820152744e6f7420656e6f756768204e465473206c6566742160581b6044820152606401610859565b600088118015610eca57506011548811155b610f245760405162461bcd60e51b815260206004820152602560248201527f43616e6e6f74206d696e7420737065636966696564206e756d626572206f662060448201526427232a399760d91b6064820152608401610859565b600a546001600160a01b03163314610fa257610f4088836128bc565b3414610fa25760405162461bcd60e51b815260206004820152602b60248201527f4e6f7420656e6f7567682062616c616e636520746f20636f6d706c657465207460448201526a3930b739b0b1ba34b7b71760a91b6064820152608401610859565b60015b88811161106b576040516323b872dd60e01b8152336004820152306024820152604481018490526001600160a01b038516906323b872dd90606401602060405180830381600087803b158015610ffa57600080fd5b505af115801561100e573d6000803e3d6000fd5b505050506040513d601f19601f82011682018060405250810190611032919061257e565b50600061103e600d5490565b905061104a33826117a0565b611058600d80546001019055565b508061106381612953565b915050610fa5565b505050505050505050565b600a546001600160a01b031633146110a05760405162461bcd60e51b81526004016108599061280a565b8051610a7e906012906020840190612249565b6000818152600260205260408120546001600160a01b03168061074c5760405162461bcd60e51b815260206004820152602960248201527f4552433732313a206f776e657220717565727920666f72206e6f6e657869737460448201526832b73a103a37b5b2b760b91b6064820152608401610859565b600a546001600160a01b031633146111545760405162461bcd60e51b81526004016108599061280a565b604080518082019091526001600160a01b03928316815260208101918252600f805460018101825560009190915290517f8d1108e10bcb7c27dddfc02ed9d693a074039d026cf4ea4240b40f7d581ac802600290920291820180546001600160a01b0319169190941617909255517f8d1108e10bcb7c27dddfc02ed9d693a074039d026cf4ea4240b40f7d581ac80390910155565b60006001600160a01b0382166112545760405162461bcd60e51b815260206004820152602a60248201527f4552433732313a2062616c616e636520717565727920666f7220746865207a65604482015269726f206164647265737360b01b6064820152608401610859565b506001600160a01b031660009081526003602052604090205490565b600a546001600160a01b0316331461129a5760405162461bcd60e51b81526004016108599061280a565b6112a46000611a58565b565b606060006112b3836111e9565b905060008167ffffffffffffffff8111156112d0576112d06129da565b6040519080825280602002602001820160405280156112f9578160200160208202803683370190505b50905060005b82811015611340576113118582610b02565b828281518110611323576113236129c4565b60209081029190910101528061133881612953565b9150506112ff565b509392505050565b6060600180546107619061291e565b600a546001600160a01b031633146113815760405162461bcd60e51b81526004016108599061280a565b601155565b610a7e338383611aaa565b600a546001600160a01b031633146113bb5760405162461bcd60e51b81526004016108599061280a565b601055565b6113ca33836117ba565b6113e65760405162461bcd60e51b81526004016108599061283f565b6113f284848484611b79565b50505050565b600061143b84848080602002602001604051908101604052809392919081815260200183836020028082843760009201919091525050600b549150859050611bac565b949350505050565b6000818152600260205260409020546060906001600160a01b03166114c25760405162461bcd60e51b815260206004820152602f60248201527f4552433732314d657461646174613a2055524920717565727920666f72206e6f60448201526e3732bc34b9ba32b73a103a37b5b2b760891b6064820152608401610859565b60006114cc611bc2565b600e5490915060ff161561152a5760008151116114f85760405180602001604052806000815250611523565b8061150284611bd1565b6040516020016115139291906126b6565b6040516020818303038152906040525b9392505050565b8060405160200161151391906126f5565b50919050565b600a546001600160a01b0316331461156b5760405162461bcd60e51b81526004016108599061280a565b600e805460ff1916911515919091179055565b6012805461158b9061291e565b80601f01602080910402602001604051908101604052809291908181526020018280546115b79061291e565b80156116045780601f106115d957610100808354040283529160200191611604565b820191906000526020600020905b8154815290600101906020018083116115e757829003601f168201915b505050505081565b600a546001600160a01b031633146116365760405162461bcd60e51b81526004016108599061280a565b6001600160a01b03811661169b5760405162461bcd60e51b815260206004820152602660248201527f4f776e61626c653a206e6577206f776e657220697320746865207a65726f206160448201526564647265737360d01b6064820152608401610859565b6116a481611a58565b50565b600a546001600160a01b031633146116d15760405162461bcd60e51b81526004016108599061280a565b600c55565b60006001600160e01b031982166380ac58cd60e01b148061170757506001600160e01b03198216635b5e139f60e01b145b8061074c57506301ffc9a760e01b6001600160e01b031983161461074c565b600081815260046020526040902080546001600160a01b0319166001600160a01b038416908117909155819061175b826110b3565b6001600160a01b03167f8c5be1e5ebec7d5bd14f71427d1e84f3dd0314c0f7b2291e5b200ac8c7c3b92560405160405180910390a45050565b60006115238284612890565b610a7e828260405180602001604052806000815250611ccf565b6000818152600260205260408120546001600160a01b03166118335760405162461bcd60e51b815260206004820152602c60248201527f4552433732313a206f70657261746f7220717565727920666f72206e6f6e657860448201526b34b9ba32b73a103a37b5b2b760a11b6064820152608401610859565b600061183e836110b3565b9050806001600160a01b0316846001600160a01b031614806118795750836001600160a01b031661186e846107e4565b6001600160a01b0316145b8061143b57506001600160a01b0380821660009081526005602090815260408083209388168352929052205460ff1661143b565b826001600160a01b03166118c0826110b3565b6001600160a01b0316146119285760405162461bcd60e51b815260206004820152602960248201527f4552433732313a207472616e73666572206f6620746f6b656e2074686174206960448201526839903737ba1037bbb760b91b6064820152608401610859565b6001600160a01b03821661198a5760405162461bcd60e51b8152602060048201526024808201527f4552433732313a207472616e7366657220746f20746865207a65726f206164646044820152637265737360e01b6064820152608401610859565b611995838383611d02565b6119a0600082611726565b6001600160a01b03831660009081526003602052604081208054600192906119c99084906128db565b90915550506001600160a01b03821660009081526003602052604081208054600192906119f7908490612890565b909155505060008181526002602052604080822080546001600160a01b0319166001600160a01b0386811691821790925591518493918716917fddf252ad1be2c89b69c2b068fc378daa952ba7f163c4a11628f55a4df523b3ef91a4505050565b600a80546001600160a01b038381166001600160a01b0319831681179093556040519116919082907f8be0079c531659141344cd1fd0a4f28419497f9722a3daafe3b4186f6b6457e090600090a35050565b816001600160a01b0316836001600160a01b03161415611b0c5760405162461bcd60e51b815260206004820152601960248201527f4552433732313a20617070726f766520746f2063616c6c6572000000000000006044820152606401610859565b6001600160a01b03838116600081815260056020908152604080832094871680845294825291829020805460ff191686151590811790915591519182527f17307eab39ab6107e8899845ad3d59bd9653f200f220920489ca2b5937696c31910160405180910390a3505050565b611b848484846118ad565b611b9084848484611dba565b6113f25760405162461bcd60e51b8152600401610859906127b8565b600082611bb98584611ec7565b14949350505050565b6060601280546107619061291e565b606081611bf55750506040805180820190915260018152600360fc1b602082015290565b8160005b8115611c1f5780611c0981612953565b9150611c189050600a836128a8565b9150611bf9565b60008167ffffffffffffffff811115611c3a57611c3a6129da565b6040519080825280601f01601f191660200182016040528015611c64576020820181803683370190505b5090505b841561143b57611c796001836128db565b9150611c86600a8661296e565b611c91906030612890565b60f81b818381518110611ca657611ca66129c4565b60200101906001600160f81b031916908160001a905350611cc8600a866128a8565b9450611c68565b611cd98383611f6b565b611ce66000848484611dba565b61098f5760405162461bcd60e51b8152600401610859906127b8565b6001600160a01b038316611d5d57611d5881600880546000838152600960205260408120829055600182018355919091527ff3f7a9fe364faab93b216da50a3214154f22a0a2b415b23a84c8169e8b636ee30155565b611d80565b816001600160a01b0316836001600160a01b031614611d8057611d8083826120b9565b6001600160a01b038216611d975761098f81612156565b826001600160a01b0316826001600160a01b03161461098f5761098f8282612205565b60006001600160a01b0384163b15611ebc57604051630a85bd0160e11b81526001600160a01b0385169063150b7a0290611dfe903390899088908890600401612724565b602060405180830381600087803b158015611e1857600080fd5b505af1925050508015611e48575060408051601f3d908101601f19168201909252611e45918101906125b8565b60015b611ea2573d808015611e76576040519150601f19603f3d011682016040523d82523d6000602084013e611e7b565b606091505b508051611e9a5760405162461bcd60e51b8152600401610859906127b8565b805181602001fd5b6001600160e01b031916630a85bd0160e11b14905061143b565b506001949350505050565b600081815b8451811015611340576000858281518110611ee957611ee96129c4565b60200260200101519050808311611f2b576040805160208101859052908101829052606001604051602081830303815290604052805190602001209250611f58565b60408051602081018390529081018490526060016040516020818303038152906040528051906020012092505b5080611f6381612953565b915050611ecc565b6001600160a01b038216611fc15760405162461bcd60e51b815260206004820181905260248201527f4552433732313a206d696e7420746f20746865207a65726f20616464726573736044820152606401610859565b6000818152600260205260409020546001600160a01b0316156120265760405162461bcd60e51b815260206004820152601c60248201527f4552433732313a20746f6b656e20616c7265616479206d696e746564000000006044820152606401610859565b61203260008383611d02565b6001600160a01b038216600090815260036020526040812080546001929061205b908490612890565b909155505060008181526002602052604080822080546001600160a01b0319166001600160a01b03861690811790915590518392907fddf252ad1be2c89b69c2b068fc378daa952ba7f163c4a11628f55a4df523b3ef908290a45050565b600060016120c6846111e9565b6120d091906128db565b600083815260076020526040902054909150808214612123576001600160a01b03841660009081526006602090815260408083208584528252808320548484528184208190558352600790915290208190555b5060009182526007602090815260408084208490556001600160a01b039094168352600681528383209183525290812055565b600854600090612168906001906128db565b60008381526009602052604081205460088054939450909284908110612190576121906129c4565b9060005260206000200154905080600883815481106121b1576121b16129c4565b60009182526020808320909101929092558281526009909152604080822084905585825281205560088054806121e9576121e96129ae565b6001900381819060005260206000200160009055905550505050565b6000612210836111e9565b6001600160a01b039093166000908152600660209081526040808320868452825280832085905593825260079052919091209190915550565b8280546122559061291e565b90600052602060002090601f01602090048101928261227757600085556122bd565b82601f1061229057805160ff19168380011785556122bd565b828001600101855582156122bd579182015b828111156122bd5782518255916020019190600101906122a2565b506122c99291506122cd565b5090565b5b808211156122c957600081556001016122ce565b600067ffffffffffffffff808411156122fd576122fd6129da565b604051601f8501601f19908116603f01168101908282118183101715612325576123256129da565b8160405280935085815286868601111561233e57600080fd5b858560208301376000602087830101525050509392505050565b60008083601f84011261236a57600080fd5b50813567ffffffffffffffff81111561238257600080fd5b6020830191508360208260051b850101111561239d57600080fd5b9250929050565b6000602082840312156123b657600080fd5b8135611523816129f0565b600080604083850312156123d457600080fd5b82356123df816129f0565b915060208301356123ef816129f0565b809150509250929050565b60008060006060848603121561240f57600080fd5b833561241a816129f0565b9250602084013561242a816129f0565b929592945050506040919091013590565b6000806000806080858703121561245157600080fd5b843561245c816129f0565b9350602085013561246c816129f0565b925060408501359150606085013567ffffffffffffffff81111561248f57600080fd5b8501601f810187136124a057600080fd5b6124af878235602084016122e2565b91505092959194509250565b600080604083850312156124ce57600080fd5b82356124d9816129f0565b915060208301356123ef81612a05565b600080604083850312156124fc57600080fd5b8235612507816129f0565b946020939093013593505050565b60008060006040848603121561252a57600080fd5b833567ffffffffffffffff81111561254157600080fd5b61254d86828701612358565b909790965060209590950135949350505050565b60006020828403121561257357600080fd5b813561152381612a05565b60006020828403121561259057600080fd5b815161152381612a05565b6000602082840312156125ad57600080fd5b813561152381612a13565b6000602082840312156125ca57600080fd5b815161152381612a13565b6000602082840312156125e757600080fd5b813567ffffffffffffffff8111156125fe57600080fd5b8201601f8101841361260f57600080fd5b61143b848235602084016122e2565b60006020828403121561263057600080fd5b5035919050565b6000806000806060858703121561264d57600080fd5b84359350602085013567ffffffffffffffff81111561266b57600080fd5b61267787828801612358565b9598909750949560400135949350505050565b600081518084526126a28160208601602086016128f2565b601f01601f19169290920160200192915050565b600083516126c88184602088016128f2565b8351908301906126dc8183602088016128f2565b64173539b7b760d91b9101908152600501949350505050565b600082516127078184602087016128f2565b6a3434b23232b7173539b7b760a91b920191825250600b01919050565b6001600160a01b03858116825284166020820152604081018390526080606082018190526000906127579083018461268a565b9695505050505050565b6020808252825182820181905260009190848201906040850190845b818110156127995783518352928401929184019160010161277d565b50909695505050505050565b602081526000611523602083018461268a565b60208082526032908201527f4552433732313a207472616e7366657220746f206e6f6e20455243373231526560408201527131b2b4bb32b91034b6b83632b6b2b73a32b960711b606082015260800190565b6020808252818101527f4f776e61626c653a2063616c6c6572206973206e6f7420746865206f776e6572604082015260600190565b60208082526031908201527f4552433732313a207472616e736665722063616c6c6572206973206e6f74206f6040820152701ddb995c881b9bdc88185c1c1c9bdd9959607a1b606082015260800190565b600082198211156128a3576128a3612982565b500190565b6000826128b7576128b7612998565b500490565b60008160001904831182151516156128d6576128d6612982565b500290565b6000828210156128ed576128ed612982565b500390565b60005b8381101561290d5781810151838201526020016128f5565b838111156113f25750506000910152565b600181811c9082168061293257607f821691505b6020821081141561153b57634e487b7160e01b600052602260045260246000fd5b600060001982141561296757612967612982565b5060010190565b60008261297d5761297d612998565b500690565b634e487b7160e01b600052601160045260246000fd5b634e487b7160e01b600052601260045260246000fd5b634e487b7160e01b600052603160045260246000fd5b634e487b7160e01b600052603260045260246000fd5b634e487b7160e01b600052604160045260246000fd5b6001600160a01b03811681146116a457600080fd5b80151581146116a457600080fd5b6001600160e01b0319811681146116a457600080fdfea2646970667358221220b4879cc3732903fbacab7d2110f9ff81208de60dd084a78d3e3002d676061a6564736f6c63430008070033",
  "immutableReferences": {},
  "source": "pragma solidity ^0.8.0;\n\nimport \"@openzeppelin/contracts/utils/Counters.sol\";\nimport \"@openzeppelin/contracts/access/Ownable.sol\";\nimport \"@openzeppelin/contracts/utils/math/SafeMath.sol\";\nimport \"@openzeppelin/contracts/token/ERC721/extensions/ERC721Enumerable.sol\";\nimport \"@openzeppelin/contracts/utils/cryptography/MerkleProof.sol\";\nimport \"@openzeppelin/contracts/token/ERC20/IERC20.sol\";\ncontract NFTCollectible is ERC721Enumerable, Ownable {\n    using SafeMath for uint256;\n    using Counters for Counters.Counter;\n    bytes32 public root;\n    uint public end;\n      //0xbe397a59186c9bf19dc618484690d99bfabf988ce2a5fc2e25ff5823d66bfa1b\n\n    Counters.Counter private _tokenIds;\n    bool public revealed = false;\n\n   //token info\n  \n    struct TokenInfo {\n        IERC20 paytoken;\n        uint256 costvalue;\n    }\n   \n  //allow token for minting \n    TokenInfo[] public AllowedCrypto;\n\n    uint public constant MAX_SUPPLY = 100;\n    uint256 public  PRICE = 0.0000000000000001 ether;\n    uint256 public  MAX_PER_MINT = 5;\n\n    string public baseTokenURI;\n\n    constructor(string memory baseURI,bytes32 _root) ERC721(\"NFT Collectible\", \"NFTC\") {\n        setBaseURI(baseURI);\n        root = _root;\n      \n    }\n\n    function reserveNFTs() public onlyOwner {\n        uint totalMinted = _tokenIds.current();\n\n        require(totalMinted.add(10) < MAX_SUPPLY, \"Not enough NFTs left to reserve\");\n\n        for (uint i = 0; i < 10; i++) {\n              uint newTokenID = _tokenIds.current();\n             _safeMint(msg.sender, newTokenID);\n             _tokenIds.increment();\n        }\n    }\n\n    function _baseURI() internal view virtual override returns (string memory) {\n        return baseTokenURI;\n    }\n\n//set when it will star\n  function endTimer(uint period) public onlyOwner {\n            end=period;\n        }\n//check countdown end or not\n  function Countdown() public view returns (bool) {\n if(block.timestamp >=end){\nreturn true;\n }else return false;\n\n  }\n\n//how much timeleft for starting NFT sale         \nfunction timeLeft() public view returns(uint){\n        return end-block.timestamp;\n}\n\n\n//only owner can call this function\n\n    function setBaseURI(string memory _baseTokenURI) public onlyOwner {\n        baseTokenURI = _baseTokenURI;\n    }\n\n//only owner can call this function\n\n     function SetMaxmint(uint256 _newMax) public onlyOwner{\n     MAX_PER_MINT = _newMax;\n      }\n\n//only owner can call this function\n     function SetNewPrice(uint256 _PRICE) public onlyOwner{\n       PRICE = _PRICE;\n      }\n\n  function changeRevealed(bool _revealed) public onlyOwner {\n        revealed = _revealed;\n    }\n\n//return Token URL\n  function tokenURI(uint256 tokenId) public view override returns (string memory) {\n        require(_exists(tokenId), \"ERC721Metadata: URI query for nonexistent token\");\n\n        string memory baseURI_ = _baseURI();\n\n        if (revealed) {\n            return bytes(baseURI_).length > 0 ? string(abi.encodePacked(baseURI_, Strings.toString(tokenId), \".json\")) : \"\";\n    } else {\n          return string(abi.encodePacked(baseURI_, \"hidden.json\"));\n        }\n    }\n\n//add Token for minting...\n function addCurrency(\n        IERC20 _paytoken,\n        uint256 _costvalue\n    ) public onlyOwner {\n        AllowedCrypto.push(\n            TokenInfo({\n                paytoken: _paytoken,\n                costvalue: _costvalue\n            })\n        );\n    }\n\n    function mintNFTs(uint _count,bytes32[] calldata proof,uint _pid) public  payable{\n        require(Countdown(),\"not started Yet\");\n        TokenInfo storage tokens = AllowedCrypto[_pid];\n        IERC20 paytoken;\n        paytoken = tokens.paytoken;\n        uint256 cost;\n        cost = tokens.costvalue;\n        require(isValid(proof, keccak256(abi.encodePacked(msg.sender))), \"Not a part of Allowlist\");\n        uint totalMinted = _tokenIds.current();\n        require(totalMinted.add(_count) <= MAX_SUPPLY, \"Not enough NFTs left!\");\n        require(_count >0 && _count <= MAX_PER_MINT, \"Cannot mint specified number of NFTs.\");\n        //require(msg.value >= PRICE.mul(_count), \"Not enough ether to purchase NFTs.\");\n        if (msg.sender != owner()) {\n            require(msg.value == cost * _count, \"Not enough balance to complete transaction.\");\n            }\n\n          for (uint256 i = 1; i <= _count; i++) {\n                paytoken.transferFrom(msg.sender, address(this), cost);\n                uint newTokenID = _tokenIds.current();\n                _safeMint(msg.sender, newTokenID);\n                 _tokenIds.increment();\n            }\n    }\n\n\n\n\n\n\n\n    //check is addresss is valid or not\n  function isValid(bytes32[] calldata proof, bytes32 leaf) public view returns (bool) {\n        return MerkleProof.verify(proof, root, leaf);\n    }\n\n    function tokensOfOwner(address _owner) external view returns (uint[] memory) {\n\n        uint tokenCount = balanceOf(_owner);\n        uint[] memory tokensId = new uint256[](tokenCount);\n\n        for (uint i = 0; i < tokenCount; i++) {\n            tokensId[i] = tokenOfOwnerByIndex(_owner, i);\n        }\n        return tokensId;\n    }\n\n    function withdraw() public payable onlyOwner {\n        uint balance = address(this).balance;\n        require(balance > 0, \"No ether left to withdraw\");\n\n        (bool success, ) = (msg.sender).call{value: balance}(\"\");\n        require(success, \"Transfer failed.\");\n    }\n\n}\n\n\n\n",
  "sourcePath": "/home/sa/Desktop/All Folder/Sayed/sayed12/Sayed/contracts/NFTCollectible.sol",
  "compiler": {
    "name": "solc",
    "version": "0.8.7+commit.e28d00a7.Emscripten.clang"
  },
  "schemaVersion": "3.4.4",
  "updatedAt": "2022-07-13T12:40:22.334Z",
  "devdoc": {
    "kind": "dev",
    "methods": {
      "approve(address,uint256)": {
        "details": "See {IERC721-approve}."
      },
      "balanceOf(address)": {
        "details": "See {IERC721-balanceOf}."
      },
      "getApproved(uint256)": {
        "details": "See {IERC721-getApproved}."
      },
      "isApprovedForAll(address,address)": {
        "details": "See {IERC721-isApprovedForAll}."
      },
      "name()": {
        "details": "See {IERC721Metadata-name}."
      },
      "owner()": {
        "details": "Returns the address of the current owner."
      },
      "ownerOf(uint256)": {
        "details": "See {IERC721-ownerOf}."
      },
      "renounceOwnership()": {
        "details": "Leaves the contract without owner. It will not be possible to call `onlyOwner` functions anymore. Can only be called by the current owner. NOTE: Renouncing ownership will leave the contract without an owner, thereby removing any functionality that is only available to the owner."
      },
      "safeTransferFrom(address,address,uint256)": {
        "details": "See {IERC721-safeTransferFrom}."
      },
      "safeTransferFrom(address,address,uint256,bytes)": {
        "details": "See {IERC721-safeTransferFrom}."
      },
      "setApprovalForAll(address,bool)": {
        "details": "See {IERC721-setApprovalForAll}."
      },
      "supportsInterface(bytes4)": {
        "details": "See {IERC165-supportsInterface}."
      },
      "symbol()": {
        "details": "See {IERC721Metadata-symbol}."
      },
      "tokenByIndex(uint256)": {
        "details": "See {IERC721Enumerable-tokenByIndex}."
      },
      "tokenOfOwnerByIndex(address,uint256)": {
        "details": "See {IERC721Enumerable-tokenOfOwnerByIndex}."
      },
      "tokenURI(uint256)": {
        "details": "See {IERC721Metadata-tokenURI}."
      },
      "totalSupply()": {
        "details": "See {IERC721Enumerable-totalSupply}."
      },
      "transferFrom(address,address,uint256)": {
        "details": "See {IERC721-transferFrom}."
      },
      "transferOwnership(address)": {
        "details": "Transfers ownership of the contract to a new account (`newOwner`). Can only be called by the current owner."
      }
    },
    "version": 1
  },
  "userdoc": {
    "kind": "user",
    "methods": {},
    "version": 1
  }
}