{
  "contractName": "NFTCollection",
  "abi": [
    {
      "inputs": [],
      "stateMutability": "nonpayable",
      "type": "constructor"
    },
    {
      "anonymous": false,
      "inputs": [
        {
          "indexed": true,
          "internalType": "address",
          "name": "owner",
          "type": "address"
        },
        {
          "indexed": true,
          "internalType": "address",
          "name": "approved",
          "type": "address"
        },
        {
          "indexed": true,
          "internalType": "uint256",
          "name": "tokenId",
          "type": "uint256"
        }
      ],
      "name": "Approval",
      "type": "event"
    },
    {
      "anonymous": false,
      "inputs": [
        {
          "indexed": true,
          "internalType": "address",
          "name": "owner",
          "type": "address"
        },
        {
          "indexed": true,
          "internalType": "address",
          "name": "operator",
          "type": "address"
        },
        {
          "indexed": false,
          "internalType": "bool",
          "name": "approved",
          "type": "bool"
        }
      ],
      "name": "ApprovalForAll",
      "type": "event"
    },
    {
      "anonymous": false,
      "inputs": [
        {
          "indexed": false,
          "internalType": "uint256",
          "name": "index",
          "type": "uint256"
        },
        {
          "indexed": true,
          "internalType": "address",
          "name": "mintedBy",
          "type": "address"
        }
      ],
      "name": "Mint",
      "type": "event"
    },
    {
      "anonymous": false,
      "inputs": [
        {
          "indexed": true,
          "internalType": "address",
          "name": "from",
          "type": "address"
        },
        {
          "indexed": true,
          "internalType": "address",
          "name": "to",
          "type": "address"
        },
        {
          "indexed": true,
          "internalType": "uint256",
          "name": "tokenId",
          "type": "uint256"
        }
      ],
      "name": "Transfer",
      "type": "event"
    },
    {
      "inputs": [
        {
          "internalType": "address",
          "name": "to",
          "type": "address"
        },
        {
          "internalType": "uint256",
          "name": "tokenId",
          "type": "uint256"
        }
      ],
      "name": "approve",
      "outputs": [],
      "stateMutability": "nonpayable",
      "type": "function"
    },
    {
      "inputs": [
        {
          "internalType": "address",
          "name": "owner",
          "type": "address"
        }
      ],
      "name": "balanceOf",
      "outputs": [
        {
          "internalType": "uint256",
          "name": "",
          "type": "uint256"
        }
      ],
      "stateMutability": "view",
      "type": "function"
    },
    {
      "inputs": [
        {
          "internalType": "uint256",
          "name": "tokenId",
          "type": "uint256"
        }
      ],
      "name": "getApproved",
      "outputs": [
        {
          "internalType": "address",
          "name": "",
          "type": "address"
        }
      ],
      "stateMutability": "view",
      "type": "function"
    },
    {
      "inputs": [
        {
          "internalType": "address",
          "name": "owner",
          "type": "address"
        },
        {
          "internalType": "address",
          "name": "operator",
          "type": "address"
        }
      ],
      "name": "isApprovedForAll",
      "outputs": [
        {
          "internalType": "bool",
          "name": "",
          "type": "bool"
        }
      ],
      "stateMutability": "view",
      "type": "function"
    },
    {
      "inputs": [],
      "name": "name",
      "outputs": [
        {
          "internalType": "string",
          "name": "",
          "type": "string"
        }
      ],
      "stateMutability": "view",
      "type": "function"
    },
    {
      "inputs": [
        {
          "internalType": "uint256",
          "name": "tokenId",
          "type": "uint256"
        }
      ],
      "name": "ownerOf",
      "outputs": [
        {
          "internalType": "address",
          "name": "",
          "type": "address"
        }
      ],
      "stateMutability": "view",
      "type": "function"
    },
    {
      "inputs": [
        {
          "internalType": "address",
          "name": "from",
          "type": "address"
        },
        {
          "internalType": "address",
          "name": "to",
          "type": "address"
        },
        {
          "internalType": "uint256",
          "name": "tokenId",
          "type": "uint256"
        }
      ],
      "name": "safeTransferFrom",
      "outputs": [],
      "stateMutability": "nonpayable",
      "type": "function"
    },
    {
      "inputs": [
        {
          "internalType": "address",
          "name": "from",
          "type": "address"
        },
        {
          "internalType": "address",
          "name": "to",
          "type": "address"
        },
        {
          "internalType": "uint256",
          "name": "tokenId",
          "type": "uint256"
        },
        {
          "internalType": "bytes",
          "name": "_data",
          "type": "bytes"
        }
      ],
      "name": "safeTransferFrom",
      "outputs": [],
      "stateMutability": "nonpayable",
      "type": "function"
    },
    {
      "inputs": [
        {
          "internalType": "address",
          "name": "operator",
          "type": "address"
        },
        {
          "internalType": "bool",
          "name": "approved",
          "type": "bool"
        }
      ],
      "name": "setApprovalForAll",
      "outputs": [],
      "stateMutability": "nonpayable",
      "type": "function"
    },
    {
      "inputs": [
        {
          "internalType": "bytes4",
          "name": "interfaceId",
          "type": "bytes4"
        }
      ],
      "name": "supportsInterface",
      "outputs": [
        {
          "internalType": "bool",
          "name": "",
          "type": "bool"
        }
      ],
      "stateMutability": "view",
      "type": "function"
    },
    {
      "inputs": [],
      "name": "symbol",
      "outputs": [
        {
          "internalType": "string",
          "name": "",
          "type": "string"
        }
      ],
      "stateMutability": "view",
      "type": "function"
    },
    {
      "inputs": [
        {
          "internalType": "uint256",
          "name": "tokenId",
          "type": "uint256"
        }
      ],
      "name": "tokenURI",
      "outputs": [
        {
          "internalType": "string",
          "name": "",
          "type": "string"
        }
      ],
      "stateMutability": "view",
      "type": "function"
    },
    {
      "inputs": [
        {
          "internalType": "address",
          "name": "from",
          "type": "address"
        },
        {
          "internalType": "address",
          "name": "to",
          "type": "address"
        },
        {
          "internalType": "uint256",
          "name": "tokenId",
          "type": "uint256"
        }
      ],
      "name": "transferFrom",
      "outputs": [],
      "stateMutability": "nonpayable",
      "type": "function"
    },
    {
      "inputs": [
        {
          "internalType": "string",
          "name": "_nftName",
          "type": "string"
        },
        {
          "internalType": "string",
          "name": "_nftURI",
          "type": "string"
        }
      ],
      "name": "mintNFT",
      "outputs": [
        {
          "internalType": "uint256",
          "name": "",
          "type": "uint256"
        }
      ],
      "stateMutability": "nonpayable",
      "type": "function"
    },
    {
      "inputs": [
        {
          "internalType": "address",
          "name": "from",
          "type": "address"
        },
        {
          "internalType": "address",
          "name": "to",
          "type": "address"
        },
        {
          "internalType": "uint256",
          "name": "tokenId",
          "type": "uint256"
        }
      ],
      "name": "transferNFTFrom",
      "outputs": [
        {
          "internalType": "bool",
          "name": "",
          "type": "bool"
        }
      ],
      "stateMutability": "nonpayable",
      "type": "function"
    }
  ],
  "bytecode": "0x60806040523480156200001157600080fd5b50604080518082018252600e81526d27232a1021b7b63632b1ba34b7b760911b6020808301918252835180850190945260048452634e46544360e01b908401528151919291620000649160009162000083565b5080516200007a90600190602084019062000083565b50505062000166565b828054620000919062000129565b90600052602060002090601f016020900481019282620000b5576000855562000100565b82601f10620000d057805160ff191683800117855562000100565b8280016001018555821562000100579182015b8281111562000100578251825591602001919060010190620000e3565b506200010e92915062000112565b5090565b5b808211156200010e576000815560010162000113565b600181811c908216806200013e57607f821691505b602082108114156200016057634e487b7160e01b600052602260045260246000fd5b50919050565b61165a80620001766000396000f3fe608060405234801561001057600080fd5b50600436106100f55760003560e01c806370a0823111610097578063c87b56dd11610066578063c87b56dd146101ff578063cde08c4014610212578063e960554414610225578063e985e9c51461023857600080fd5b806370a08231146101b057806395d89b41146101d1578063a22cb465146101d9578063b88d4fde146101ec57600080fd5b8063095ea7b3116100d3578063095ea7b31461016257806323b872dd1461017757806342842e0e1461018a5780636352211e1461019d57600080fd5b806301ffc9a7146100fa57806306fdde0314610122578063081812fc14610137575b600080fd5b61010d6101083660046112d5565b610274565b60405190151581526020015b60405180910390f35b61012a6102c6565b6040516101199190611424565b61014a610145366004611373565b610358565b6040516001600160a01b039091168152602001610119565b6101756101703660046112ab565b6103f2565b005b6101756101853660046111b7565b610508565b6101756101983660046111b7565b610539565b61014a6101ab366004611373565b610554565b6101c36101be366004611169565b6105cb565b604051908152602001610119565b61012a610652565b6101756101e736600461126f565b610661565b6101756101fa3660046111f3565b610670565b61012a61020d366004611373565b6106a8565b61010d6102203660046111b7565b610790565b6101c361023336600461130f565b6107a7565b61010d610246366004611184565b6001600160a01b03918216600090815260056020908152604080832093909416825291909152205460ff1690565b60006001600160e01b031982166380ac58cd60e01b14806102a557506001600160e01b03198216635b5e139f60e01b145b806102c057506301ffc9a760e01b6001600160e01b03198316145b92915050565b6060600080546102d590611549565b80601f016020809104026020016040519081016040528092919081815260200182805461030190611549565b801561034e5780601f106103235761010080835404028352916020019161034e565b820191906000526020600020905b81548152906001019060200180831161033157829003601f168201915b5050505050905090565b6000818152600260205260408120546001600160a01b03166103d65760405162461bcd60e51b815260206004820152602c60248201527f4552433732313a20617070726f76656420717565727920666f72206e6f6e657860448201526b34b9ba32b73a103a37b5b2b760a11b60648201526084015b60405180910390fd5b506000908152600460205260409020546001600160a01b031690565b60006103fd82610554565b9050806001600160a01b0316836001600160a01b0316141561046b5760405162461bcd60e51b815260206004820152602160248201527f4552433732313a20617070726f76616c20746f2063757272656e74206f776e656044820152603960f91b60648201526084016103cd565b336001600160a01b038216148061048757506104878133610246565b6104f95760405162461bcd60e51b815260206004820152603860248201527f4552433732313a20617070726f76652063616c6c6572206973206e6f74206f7760448201527f6e6572206e6f7220617070726f76656420666f7220616c6c000000000000000060648201526084016103cd565b610503838361087d565b505050565b61051233826108eb565b61052e5760405162461bcd60e51b81526004016103cd90611489565b6105038383836109e2565b61050383838360405180602001604052806000815250610670565b6000818152600260205260408120546001600160a01b0316806102c05760405162461bcd60e51b815260206004820152602960248201527f4552433732313a206f776e657220717565727920666f72206e6f6e657869737460448201526832b73a103a37b5b2b760b91b60648201526084016103cd565b60006001600160a01b0382166106365760405162461bcd60e51b815260206004820152602a60248201527f4552433732313a2062616c616e636520717565727920666f7220746865207a65604482015269726f206164647265737360b01b60648201526084016103cd565b506001600160a01b031660009081526003602052604090205490565b6060600180546102d590611549565b61066c338383610b82565b5050565b61067a33836108eb565b6106965760405162461bcd60e51b81526004016103cd90611489565b6106a284848484610c51565b50505050565b6000818152600260205260409020546060906001600160a01b03166107275760405162461bcd60e51b815260206004820152602f60248201527f4552433732314d657461646174613a2055524920717565727920666f72206e6f60448201526e3732bc34b9ba32b73a103a37b5b2b760891b60648201526084016103cd565b600061073e60408051602081019091526000815290565b9050600081511161075e5760405180602001604052806000815250610789565b8061076884610c84565b6040516020016107799291906113b8565b6040516020818303038152906040525b9392505050565b600061079d848484610539565b5060019392505050565b6040805180820190915282815260208082018390526006805460018101825560009182528351805192949360029092027ff652222313e28459528d920b65115c16c04f3efc82aaedc97be59f3f377c0d3f0192610807928492019061101e565b506020828101518051610820926001850192019061101e565b50506006546000915061083590600190611506565b90506108413382610d82565b60405181815233907ff3cea5493d790af0133817606f7350a91d7f154ea52eaa79d179d4d231e501029060200160405180910390a29392505050565b600081815260046020526040902080546001600160a01b0319166001600160a01b03841690811790915581906108b282610554565b6001600160a01b03167f8c5be1e5ebec7d5bd14f71427d1e84f3dd0314c0f7b2291e5b200ac8c7c3b92560405160405180910390a45050565b6000818152600260205260408120546001600160a01b03166109645760405162461bcd60e51b815260206004820152602c60248201527f4552433732313a206f70657261746f7220717565727920666f72206e6f6e657860448201526b34b9ba32b73a103a37b5b2b760a11b60648201526084016103cd565b600061096f83610554565b9050806001600160a01b0316846001600160a01b031614806109aa5750836001600160a01b031661099f84610358565b6001600160a01b0316145b806109da57506001600160a01b0380821660009081526005602090815260408083209388168352929052205460ff165b949350505050565b826001600160a01b03166109f582610554565b6001600160a01b031614610a5d5760405162461bcd60e51b815260206004820152602960248201527f4552433732313a207472616e73666572206f6620746f6b656e2074686174206960448201526839903737ba1037bbb760b91b60648201526084016103cd565b6001600160a01b038216610abf5760405162461bcd60e51b8152602060048201526024808201527f4552433732313a207472616e7366657220746f20746865207a65726f206164646044820152637265737360e01b60648201526084016103cd565b610aca60008261087d565b6001600160a01b0383166000908152600360205260408120805460019290610af3908490611506565b90915550506001600160a01b0382166000908152600360205260408120805460019290610b219084906114da565b909155505060008181526002602052604080822080546001600160a01b0319166001600160a01b0386811691821790925591518493918716917fddf252ad1be2c89b69c2b068fc378daa952ba7f163c4a11628f55a4df523b3ef91a4505050565b816001600160a01b0316836001600160a01b03161415610be45760405162461bcd60e51b815260206004820152601960248201527f4552433732313a20617070726f766520746f2063616c6c65720000000000000060448201526064016103cd565b6001600160a01b03838116600081815260056020908152604080832094871680845294825291829020805460ff191686151590811790915591519182527f17307eab39ab6107e8899845ad3d59bd9653f200f220920489ca2b5937696c31910160405180910390a3505050565b610c5c8484846109e2565b610c6884848484610d9c565b6106a25760405162461bcd60e51b81526004016103cd90611437565b606081610ca85750506040805180820190915260018152600360fc1b602082015290565b8160005b8115610cd25780610cbc81611584565b9150610ccb9050600a836114f2565b9150610cac565b60008167ffffffffffffffff811115610ced57610ced6115f5565b6040519080825280601f01601f191660200182016040528015610d17576020820181803683370190505b5090505b84156109da57610d2c600183611506565b9150610d39600a8661159f565b610d449060306114da565b60f81b818381518110610d5957610d596115df565b60200101906001600160f81b031916908160001a905350610d7b600a866114f2565b9450610d1b565b61066c828260405180602001604052806000815250610ea9565b60006001600160a01b0384163b15610e9e57604051630a85bd0160e11b81526001600160a01b0385169063150b7a0290610de09033908990889088906004016113e7565b602060405180830381600087803b158015610dfa57600080fd5b505af1925050508015610e2a575060408051601f3d908101601f19168201909252610e27918101906112f2565b60015b610e84573d808015610e58576040519150601f19603f3d011682016040523d82523d6000602084013e610e5d565b606091505b508051610e7c5760405162461bcd60e51b81526004016103cd90611437565b805181602001fd5b6001600160e01b031916630a85bd0160e11b1490506109da565b506001949350505050565b610eb38383610edc565b610ec06000848484610d9c565b6105035760405162461bcd60e51b81526004016103cd90611437565b6001600160a01b038216610f325760405162461bcd60e51b815260206004820181905260248201527f4552433732313a206d696e7420746f20746865207a65726f206164647265737360448201526064016103cd565b6000818152600260205260409020546001600160a01b031615610f975760405162461bcd60e51b815260206004820152601c60248201527f4552433732313a20746f6b656e20616c7265616479206d696e7465640000000060448201526064016103cd565b6001600160a01b0382166000908152600360205260408120805460019290610fc09084906114da565b909155505060008181526002602052604080822080546001600160a01b0319166001600160a01b03861690811790915590518392907fddf252ad1be2c89b69c2b068fc378daa952ba7f163c4a11628f55a4df523b3ef908290a45050565b82805461102a90611549565b90600052602060002090601f01602090048101928261104c5760008555611092565b82601f1061106557805160ff1916838001178555611092565b82800160010185558215611092579182015b82811115611092578251825591602001919060010190611077565b5061109e9291506110a2565b5090565b5b8082111561109e57600081556001016110a3565b600067ffffffffffffffff808411156110d2576110d26115f5565b604051601f8501601f19908116603f011681019082821181831017156110fa576110fa6115f5565b8160405280935085815286868601111561111357600080fd5b858560208301376000602087830101525050509392505050565b80356001600160a01b038116811461114457600080fd5b919050565b600082601f83011261115a57600080fd5b610789838335602085016110b7565b60006020828403121561117b57600080fd5b6107898261112d565b6000806040838503121561119757600080fd5b6111a08361112d565b91506111ae6020840161112d565b90509250929050565b6000806000606084860312156111cc57600080fd5b6111d58461112d565b92506111e36020850161112d565b9150604084013590509250925092565b6000806000806080858703121561120957600080fd5b6112128561112d565b93506112206020860161112d565b925060408501359150606085013567ffffffffffffffff81111561124357600080fd5b8501601f8101871361125457600080fd5b611263878235602084016110b7565b91505092959194509250565b6000806040838503121561128257600080fd5b61128b8361112d565b9150602083013580151581146112a057600080fd5b809150509250929050565b600080604083850312156112be57600080fd5b6112c78361112d565b946020939093013593505050565b6000602082840312156112e757600080fd5b81356107898161160b565b60006020828403121561130457600080fd5b81516107898161160b565b6000806040838503121561132257600080fd5b823567ffffffffffffffff8082111561133a57600080fd5b61134686838701611149565b9350602085013591508082111561135c57600080fd5b5061136985828601611149565b9150509250929050565b60006020828403121561138557600080fd5b5035919050565b600081518084526113a481602086016020860161151d565b601f01601f19169290920160200192915050565b600083516113ca81846020880161151d565b8351908301906113de81836020880161151d565b01949350505050565b6001600160a01b038581168252841660208201526040810183905260806060820181905260009061141a9083018461138c565b9695505050505050565b602081526000610789602083018461138c565b60208082526032908201527f4552433732313a207472616e7366657220746f206e6f6e20455243373231526560408201527131b2b4bb32b91034b6b83632b6b2b73a32b960711b606082015260800190565b60208082526031908201527f4552433732313a207472616e736665722063616c6c6572206973206e6f74206f6040820152701ddb995c881b9bdc88185c1c1c9bdd9959607a1b606082015260800190565b600082198211156114ed576114ed6115b3565b500190565b600082611501576115016115c9565b500490565b600082821015611518576115186115b3565b500390565b60005b83811015611538578181015183820152602001611520565b838111156106a25750506000910152565b600181811c9082168061155d57607f821691505b6020821081141561157e57634e487b7160e01b600052602260045260246000fd5b50919050565b6000600019821415611598576115986115b3565b5060010190565b6000826115ae576115ae6115c9565b500690565b634e487b7160e01b600052601160045260246000fd5b634e487b7160e01b600052601260045260246000fd5b634e487b7160e01b600052603260045260246000fd5b634e487b7160e01b600052604160045260246000fd5b6001600160e01b03198116811461162157600080fd5b5056fea2646970667358221220a6935018c80940af65227cf36a75c497070f673990fcfb3b1f888a8b8d6044d664736f6c63430008070033",
  "immutableReferences": {},
  "source": "// SPDX-License-Identifier: MIT\npragma solidity ^0.8.0;\n\nimport \"@openzeppelin/contracts/token/ERC721/ERC721.sol\";\n\ncontract NFTCollection is ERC721 {\n    struct NFT {\n        string name;\n        string URI;\n    }\n\n    event Mint(uint256 index, address indexed mintedBy);\n\n    NFT[] private allNFTs;\n\n    constructor() ERC721(\"NFT Collection\", \"NFTC\") {}\n\n    // Mint a new NFT for Sale\n    function mintNFT(string memory _nftName, string memory _nftURI)\n        external\n        returns (uint256)\n    {\n        allNFTs.push(NFT({name: _nftName, URI: _nftURI}));\n\n        uint256 index = allNFTs.length - 1;\n\n        _safeMint(msg.sender, index);\n\n        emit Mint(index, msg.sender);\n        return index;\n    }\n\n    function transferNFTFrom(\n        address from,\n        address to,\n        uint256 tokenId\n    ) public virtual returns (bool) {\n        safeTransferFrom(from, to, tokenId);\n        return true;\n    }\n}\n",
  "sourcePath": "/home/sa/Desktop/All Folder/Sayed/sayed12/Sayed/contracts/NFTCollection.sol",
  "compiler": {
    "name": "solc",
    "version": "0.8.7+commit.e28d00a7.Emscripten.clang"
  },
  "schemaVersion": "3.4.4",
  "updatedAt": "2022-07-28T11:17:46.719Z",
  "devdoc": {
    "kind": "dev",
    "methods": {
      "approve(address,uint256)": {
        "details": "See {IERC721-approve}."
      },
      "balanceOf(address)": {
        "details": "See {IERC721-balanceOf}."
      },
      "getApproved(uint256)": {
        "details": "See {IERC721-getApproved}."
      },
      "isApprovedForAll(address,address)": {
        "details": "See {IERC721-isApprovedForAll}."
      },
      "name()": {
        "details": "See {IERC721Metadata-name}."
      },
      "ownerOf(uint256)": {
        "details": "See {IERC721-ownerOf}."
      },
      "safeTransferFrom(address,address,uint256)": {
        "details": "See {IERC721-safeTransferFrom}."
      },
      "safeTransferFrom(address,address,uint256,bytes)": {
        "details": "See {IERC721-safeTransferFrom}."
      },
      "setApprovalForAll(address,bool)": {
        "details": "See {IERC721-setApprovalForAll}."
      },
      "supportsInterface(bytes4)": {
        "details": "See {IERC165-supportsInterface}."
      },
      "symbol()": {
        "details": "See {IERC721Metadata-symbol}."
      },
      "tokenURI(uint256)": {
        "details": "See {IERC721Metadata-tokenURI}."
      },
      "transferFrom(address,address,uint256)": {
        "details": "See {IERC721-transferFrom}."
      }
    },
    "version": 1
  },
  "userdoc": {
    "kind": "user",
    "methods": {},
    "version": 1
  }
}