{
  "contractName": "SmartChefInitializable",
  "abi": [
    {
      "inputs": [],
      "stateMutability": "nonpayable",
      "type": "constructor"
    },
    {
      "anonymous": false,
      "inputs": [
        {
          "indexed": true,
          "internalType": "address",
          "name": "user",
          "type": "address"
        },
        {
          "indexed": false,
          "internalType": "uint256",
          "name": "amount",
          "type": "uint256"
        }
      ],
      "name": "Deposit",
      "type": "event"
    },
    {
      "anonymous": false,
      "inputs": [
        {
          "indexed": true,
          "internalType": "address",
          "name": "user",
          "type": "address"
        },
        {
          "indexed": false,
          "internalType": "uint256",
          "name": "amount",
          "type": "uint256"
        }
      ],
      "name": "EmergencyWithdraw",
      "type": "event"
    },
    {
      "anonymous": false,
      "inputs": [
        {
          "indexed": false,
          "internalType": "uint256",
          "name": "poolLimitPerUser",
          "type": "uint256"
        }
      ],
      "name": "NewPoolLimit",
      "type": "event"
    },
    {
      "anonymous": false,
      "inputs": [
        {
          "indexed": false,
          "internalType": "uint256",
          "name": "rewardPerBlock",
          "type": "uint256"
        }
      ],
      "name": "NewRewardPerBlock",
      "type": "event"
    },
    {
      "anonymous": false,
      "inputs": [
        {
          "indexed": false,
          "internalType": "uint256",
          "name": "startBlock",
          "type": "uint256"
        },
        {
          "indexed": false,
          "internalType": "uint256",
          "name": "endBlock",
          "type": "uint256"
        }
      ],
      "name": "NewStartAndEndBlocks",
      "type": "event"
    },
    {
      "anonymous": false,
      "inputs": [
        {
          "indexed": true,
          "internalType": "address",
          "name": "previousOwner",
          "type": "address"
        },
        {
          "indexed": true,
          "internalType": "address",
          "name": "newOwner",
          "type": "address"
        }
      ],
      "name": "OwnershipTransferred",
      "type": "event"
    },
    {
      "anonymous": false,
      "inputs": [
        {
          "indexed": false,
          "internalType": "uint256",
          "name": "blockNumber",
          "type": "uint256"
        }
      ],
      "name": "RewardsStop",
      "type": "event"
    },
    {
      "anonymous": false,
      "inputs": [
        {
          "indexed": true,
          "internalType": "address",
          "name": "token",
          "type": "address"
        },
        {
          "indexed": false,
          "internalType": "uint256",
          "name": "amount",
          "type": "uint256"
        }
      ],
      "name": "TokenRecovery",
      "type": "event"
    },
    {
      "anonymous": false,
      "inputs": [
        {
          "indexed": true,
          "internalType": "address",
          "name": "user",
          "type": "address"
        },
        {
          "indexed": false,
          "internalType": "uint256",
          "name": "amount",
          "type": "uint256"
        }
      ],
      "name": "Withdraw",
      "type": "event"
    },
    {
      "inputs": [],
      "name": "PRECISION_FACTOR",
      "outputs": [
        {
          "internalType": "uint256",
          "name": "",
          "type": "uint256"
        }
      ],
      "stateMutability": "view",
      "type": "function",
      "constant": true
    },
    {
      "inputs": [],
      "name": "SMART_CHEF_FACTORY",
      "outputs": [
        {
          "internalType": "address",
          "name": "",
          "type": "address"
        }
      ],
      "stateMutability": "view",
      "type": "function",
      "constant": true
    },
    {
      "inputs": [],
      "name": "accTokenPerShare",
      "outputs": [
        {
          "internalType": "uint256",
          "name": "",
          "type": "uint256"
        }
      ],
      "stateMutability": "view",
      "type": "function",
      "constant": true
    },
    {
      "inputs": [],
      "name": "bonusEndBlock",
      "outputs": [
        {
          "internalType": "uint256",
          "name": "",
          "type": "uint256"
        }
      ],
      "stateMutability": "view",
      "type": "function",
      "constant": true
    },
    {
      "inputs": [],
      "name": "isInitialized",
      "outputs": [
        {
          "internalType": "bool",
          "name": "",
          "type": "bool"
        }
      ],
      "stateMutability": "view",
      "type": "function",
      "constant": true
    },
    {
      "inputs": [],
      "name": "lastRewardBlock",
      "outputs": [
        {
          "internalType": "uint256",
          "name": "",
          "type": "uint256"
        }
      ],
      "stateMutability": "view",
      "type": "function",
      "constant": true
    },
    {
      "inputs": [],
      "name": "numberBlocksForUserLimit",
      "outputs": [
        {
          "internalType": "uint256",
          "name": "",
          "type": "uint256"
        }
      ],
      "stateMutability": "view",
      "type": "function",
      "constant": true
    },
    {
      "inputs": [],
      "name": "owner",
      "outputs": [
        {
          "internalType": "address",
          "name": "",
          "type": "address"
        }
      ],
      "stateMutability": "view",
      "type": "function",
      "constant": true
    },
    {
      "inputs": [],
      "name": "poolLimitPerUser",
      "outputs": [
        {
          "internalType": "uint256",
          "name": "",
          "type": "uint256"
        }
      ],
      "stateMutability": "view",
      "type": "function",
      "constant": true
    },
    {
      "inputs": [],
      "name": "renounceOwnership",
      "outputs": [],
      "stateMutability": "nonpayable",
      "type": "function"
    },
    {
      "inputs": [],
      "name": "rewardPerBlock",
      "outputs": [
        {
          "internalType": "uint256",
          "name": "",
          "type": "uint256"
        }
      ],
      "stateMutability": "view",
      "type": "function",
      "constant": true
    },
    {
      "inputs": [],
      "name": "rewardToken",
      "outputs": [
        {
          "internalType": "contract IERC20Metadata",
          "name": "",
          "type": "address"
        }
      ],
      "stateMutability": "view",
      "type": "function",
      "constant": true
    },
    {
      "inputs": [],
      "name": "stakedToken",
      "outputs": [
        {
          "internalType": "contract IERC20Metadata",
          "name": "",
          "type": "address"
        }
      ],
      "stateMutability": "view",
      "type": "function",
      "constant": true
    },
    {
      "inputs": [],
      "name": "startBlock",
      "outputs": [
        {
          "internalType": "uint256",
          "name": "",
          "type": "uint256"
        }
      ],
      "stateMutability": "view",
      "type": "function",
      "constant": true
    },
    {
      "inputs": [
        {
          "internalType": "address",
          "name": "newOwner",
          "type": "address"
        }
      ],
      "name": "transferOwnership",
      "outputs": [],
      "stateMutability": "nonpayable",
      "type": "function"
    },
    {
      "inputs": [
        {
          "internalType": "address",
          "name": "",
          "type": "address"
        }
      ],
      "name": "userInfo",
      "outputs": [
        {
          "internalType": "uint256",
          "name": "amount",
          "type": "uint256"
        },
        {
          "internalType": "uint256",
          "name": "rewardDebt",
          "type": "uint256"
        }
      ],
      "stateMutability": "view",
      "type": "function",
      "constant": true
    },
    {
      "inputs": [],
      "name": "userLimit",
      "outputs": [
        {
          "internalType": "bool",
          "name": "",
          "type": "bool"
        }
      ],
      "stateMutability": "view",
      "type": "function",
      "constant": true
    },
    {
      "inputs": [
        {
          "internalType": "contract IERC20Metadata",
          "name": "_stakedToken",
          "type": "address"
        },
        {
          "internalType": "contract IERC20Metadata",
          "name": "_rewardToken",
          "type": "address"
        },
        {
          "internalType": "uint256",
          "name": "_rewardPerBlock",
          "type": "uint256"
        },
        {
          "internalType": "uint256",
          "name": "_startBlock",
          "type": "uint256"
        },
        {
          "internalType": "uint256",
          "name": "_bonusEndBlock",
          "type": "uint256"
        },
        {
          "internalType": "uint256",
          "name": "_poolLimitPerUser",
          "type": "uint256"
        },
        {
          "internalType": "uint256",
          "name": "_numberBlocksForUserLimit",
          "type": "uint256"
        },
        {
          "internalType": "address",
          "name": "_admin",
          "type": "address"
        }
      ],
      "name": "initialize",
      "outputs": [],
      "stateMutability": "nonpayable",
      "type": "function"
    },
    {
      "inputs": [
        {
          "internalType": "uint256",
          "name": "_amount",
          "type": "uint256"
        }
      ],
      "name": "deposit",
      "outputs": [],
      "stateMutability": "nonpayable",
      "type": "function"
    },
    {
      "inputs": [
        {
          "internalType": "uint256",
          "name": "_amount",
          "type": "uint256"
        }
      ],
      "name": "withdraw",
      "outputs": [],
      "stateMutability": "nonpayable",
      "type": "function"
    },
    {
      "inputs": [],
      "name": "emergencyWithdraw",
      "outputs": [],
      "stateMutability": "nonpayable",
      "type": "function"
    },
    {
      "inputs": [
        {
          "internalType": "uint256",
          "name": "_amount",
          "type": "uint256"
        }
      ],
      "name": "emergencyRewardWithdraw",
      "outputs": [],
      "stateMutability": "nonpayable",
      "type": "function"
    },
    {
      "inputs": [
        {
          "internalType": "address",
          "name": "_token",
          "type": "address"
        }
      ],
      "name": "recoverToken",
      "outputs": [],
      "stateMutability": "nonpayable",
      "type": "function"
    },
    {
      "inputs": [],
      "name": "stopReward",
      "outputs": [],
      "stateMutability": "nonpayable",
      "type": "function"
    },
    {
      "inputs": [
        {
          "internalType": "bool",
          "name": "_userLimit",
          "type": "bool"
        },
        {
          "internalType": "uint256",
          "name": "_poolLimitPerUser",
          "type": "uint256"
        }
      ],
      "name": "updatePoolLimitPerUser",
      "outputs": [],
      "stateMutability": "nonpayable",
      "type": "function"
    },
    {
      "inputs": [
        {
          "internalType": "uint256",
          "name": "_rewardPerBlock",
          "type": "uint256"
        }
      ],
      "name": "updateRewardPerBlock",
      "outputs": [],
      "stateMutability": "nonpayable",
      "type": "function"
    },
    {
      "inputs": [
        {
          "internalType": "uint256",
          "name": "_startBlock",
          "type": "uint256"
        },
        {
          "internalType": "uint256",
          "name": "_bonusEndBlock",
          "type": "uint256"
        }
      ],
      "name": "updateStartAndEndBlocks",
      "outputs": [],
      "stateMutability": "nonpayable",
      "type": "function"
    },
    {
      "inputs": [
        {
          "internalType": "address",
          "name": "_user",
          "type": "address"
        }
      ],
      "name": "pendingReward",
      "outputs": [
        {
          "internalType": "uint256",
          "name": "",
          "type": "uint256"
        }
      ],
      "stateMutability": "view",
      "type": "function",
      "constant": true
    },
    {
      "inputs": [],
      "name": "hasUserLimit",
      "outputs": [
        {
          "internalType": "bool",
          "name": "",
          "type": "bool"
        }
      ],
      "stateMutability": "view",
      "type": "function",
      "constant": true
    }
  ],
  "bytecode": "0x60a060405234801561001057600080fd5b5061001a3361002a565b600180553360601b60805261007a565b600080546001600160a01b038381166001600160a01b0319831681178455604051919092169283917f8be0079c531659141344cd1fd0a4f28419497f9722a3daafe3b4186f6b6457e09190a35050565b60805160601c611a6f61009f6000396000818161036d01526104f70152611a6f6000f3fe608060405234801561001057600080fd5b50600436106101cf5760003560e01c80638da5cb5b11610104578063b6b55f25116100a2578063db2e21bc11610071578063db2e21bc146103ab578063f2fde38b146103b3578063f40f0f52146103c6578063f7c618c1146103d957600080fd5b8063b6b55f2514610355578063bd61719114610368578063cc7a262e1461038f578063ccd34cd5146103a257600080fd5b80639513997f116100de5780639513997f146103135780639be65a6014610326578063a0b4090514610339578063a9f8d1811461034c57600080fd5b80638da5cb5b146102dd5780638f6629151461030257806392e8990e1461030b57600080fd5b806348cd4cb111610171578063715018a61161014b578063715018a6146102bb57806380dc0672146102c35780638ad1071b146102cb5780638ae39cac146102d457600080fd5b806348cd4cb11461029c5780634a7c01ec146102a557806366fe9f8a146102b257600080fd5b80632aa2c381116101ad5780632aa2c381146102415780632e1a7d4d146102545780633279beab14610267578063392e53cd1461027a57600080fd5b806301f8a976146101d45780631959a002146101e95780631aed65531461022a575b600080fd5b6101e76101e2366004611747565b6103ec565b005b6102106101f7366004611665565b600d602052600090815260409020805460019091015482565b604080519283526020830191909152015b60405180910390f35b61023360045481565b604051908152602001610221565b6101e761024f3660046116cb565b61049e565b6101e7610262366004611747565b6106ba565b6101e7610275366004611747565b610824565b60025461028c90610100900460ff1681565b6040519015158152602001610221565b61023360055481565b60025461028c9060ff1681565b61023360075481565b6101e7610868565b6101e761089e565b61023360085481565b61023360095481565b6000546001600160a01b03165b6040516001600160a01b039091168152602001610221565b61023360035481565b61028c6108ce565b6101e7610321366004611779565b610903565b6101e7610334366004611665565b610a8c565b6101e761034736600461169f565b610cc6565b61023360065481565b6101e7610363366004611747565b610dd8565b6102ea7f000000000000000000000000000000000000000000000000000000000000000081565b600c546102ea906001600160a01b031681565b610233600a5481565b6101e7610f7b565b6101e76103c1366004611665565b611012565b6102336103d4366004611665565b6110aa565b600b546102ea906001600160a01b031681565b6000546001600160a01b0316331461041f5760405162461bcd60e51b81526004016104169061180d565b60405180910390fd5b60055443106104635760405162461bcd60e51b815260206004820152601060248201526f141bdbdb081a185cc81cdd185c9d195960821b6044820152606401610416565b60098190556040518181527f0c4d677eef92893ac7ec52faf8140fc6c851ab4736302b4f3a89dfb20696a0df9060200160405180910390a150565b600254610100900460ff16156104ec5760405162461bcd60e51b8152602060048201526013602482015272105b1c9958591e481a5b9a5d1a585b1a5e9959606a1b6044820152606401610416565b336001600160a01b037f000000000000000000000000000000000000000000000000000000000000000016146105525760405162461bcd60e51b815260206004820152600b60248201526a4e6f7420666163746f727960a81b6044820152606401610416565b6002805461ff001916610100179055600c80546001600160a01b03808b166001600160a01b031992831617909255600b8054928a169290911691909117905560098690556005859055600484905582156105be576002805460ff19166001179055600783905560088290555b600b546040805163313ce56760e01b815290516000926001600160a01b03169163313ce567916004808301926020929190829003018186803b15801561060357600080fd5b505afa158015610617573d6000803e3d6000fd5b505050506040513d601f19601f8201168201806040525081019061063b919061179b565b60ff169050601e81106106875760405162461bcd60e51b815260206004820152601460248201527304d757374206265206c657373207468616e2033360641b6044820152606401610416565b61069281601e6119bd565b61069d90600a6118f6565b600a556005546006556106af82611012565b505050505050505050565b600260015414156106dd5760405162461bcd60e51b815260040161041690611842565b6002600155336000908152600d6020526040902080548211156107425760405162461bcd60e51b815260206004820152601b60248201527f416d6f756e7420746f20776974686472617720746f6f206869676800000000006044820152606401610416565b61074a611209565b60008160010154600a546003548460000154610766919061199e565b6107709190611891565b61077a91906119bd565b905082156107a857815461078f9084906119bd565b8255600c546107a8906001600160a01b031633856112f2565b80156107c557600b546107c5906001600160a01b031633836112f2565b600a5460035483546107d7919061199e565b6107e19190611891565b600183015560405183815233907f884edad9ce6fa2440d8a54cc123490eb96d2768479d49ff9c7366125a94243649060200160405180910390a250506001805550565b6000546001600160a01b0316331461084e5760405162461bcd60e51b81526004016104169061180d565b600b54610865906001600160a01b031633836112f2565b50565b6000546001600160a01b031633146108925760405162461bcd60e51b81526004016104169061180d565b61089c600061135a565b565b6000546001600160a01b031633146108c85760405162461bcd60e51b81526004016104169061180d565b43600455565b60025460009060ff1615806108f257506008546005546108ee9190611879565b4310155b156108fd5750600090565b50600190565b6000546001600160a01b0316331461092d5760405162461bcd60e51b81526004016104169061180d565b60055443106109715760405162461bcd60e51b815260206004820152601060248201526f141bdbdb081a185cc81cdd185c9d195960821b6044820152606401610416565b8082106109d75760405162461bcd60e51b815260206004820152602e60248201527f4e6577207374617274426c6f636b206d757374206265206c6f7765722074686160448201526d6e206e657720656e64426c6f636b60901b6064820152608401610416565b814310610a3f5760405162461bcd60e51b815260206004820152603060248201527f4e6577207374617274426c6f636b206d7573742062652068696768657220746860448201526f616e2063757272656e7420626c6f636b60801b6064820152608401610416565b60058290556004819055600682905560408051838152602081018390527f7cd0ab87d19036f3dfadadb232c78aa4879dda3f0c994a9d637532410ee2ce0691015b60405180910390a15050565b6000546001600160a01b03163314610ab65760405162461bcd60e51b81526004016104169061180d565b600c546001600160a01b0382811691161415610b245760405162461bcd60e51b815260206004820152602760248201527f4f7065726174696f6e733a2043616e6e6f74207265636f766572207374616b6560448201526632103a37b5b2b760c91b6064820152608401610416565b600b546001600160a01b0382811691161415610b925760405162461bcd60e51b815260206004820152602760248201527f4f7065726174696f6e733a2043616e6e6f74207265636f76657220726577617260448201526632103a37b5b2b760c91b6064820152608401610416565b6040516370a0823160e01b81523060048201526000906001600160a01b038316906370a082319060240160206040518083038186803b158015610bd457600080fd5b505afa158015610be8573d6000803e3d6000fd5b505050506040513d601f19601f82011682018060405250810190610c0c9190611760565b905080610c6b5760405162461bcd60e51b815260206004820152602760248201527f4f7065726174696f6e733a2043616e6e6f74207265636f766572207a65726f2060448201526662616c616e636560c81b6064820152608401610416565b610c7f6001600160a01b03831633836112f2565b816001600160a01b03167f14f11966a996e0629572e51064726d2057a80fbd34efc066682c06a71dbb6e9882604051610cba91815260200190565b60405180910390a25050565b6000546001600160a01b03163314610cf05760405162461bcd60e51b81526004016104169061180d565b60025460ff16610d305760405162461bcd60e51b815260206004820152600b60248201526a135d5cdd081899481cd95d60aa1b6044820152606401610416565b8115610d91576007548111610d875760405162461bcd60e51b815260206004820152601860248201527f4e6577206c696d6974206d7573742062652068696768657200000000000000006044820152606401610416565b6007819055610da5565b6002805460ff191683151517905560006007555b7f241f67ee5f41b7a5cabf911367329be7215900f602ebfc47f89dce2a6bcd847c600754604051610a8091815260200190565b60026001541415610dfb5760405162461bcd60e51b815260040161041690611842565b6002600155336000908152600d60205260409020610e176108ce565b6002805460ff1916911515918217905560ff161580610e4357506007548154610e409084611879565b11155b610e8f5760405162461bcd60e51b815260206004820152601b60248201527f4465706f7369743a20416d6f756e742061626f7665206c696d697400000000006044820152606401610416565b610e97611209565b805415610eef5760008160010154600a546003548460000154610eba919061199e565b610ec49190611891565b610ece91906119bd565b90508015610eed57600b54610eed906001600160a01b031633836112f2565b505b8115610f1c578054610f02908390611879565b8155600c54610f1c906001600160a01b03163330856113aa565b600a546003548254610f2e919061199e565b610f389190611891565b600182015560405182815233907fe1fffcc4923d04b559f4d29a8bfc6cda04eb5b0d3c460751c2402c5c5cc9109c906020015b60405180910390a2505060018055565b60026001541415610f9e5760405162461bcd60e51b815260040161041690611842565b60026001908155336000908152600d60205260408120805482825592810191909155908015610fde57600c54610fde906001600160a01b031633836112f2565b815460405190815233907f5fafa99d0643513820be26656b45130b01e1c03062e1266bf36f88cbd3bd969590602001610f6b565b6000546001600160a01b0316331461103c5760405162461bcd60e51b81526004016104169061180d565b6001600160a01b0381166110a15760405162461bcd60e51b815260206004820152602660248201527f4f776e61626c653a206e6577206f776e657220697320746865207a65726f206160448201526564647265737360d01b6064820152608401610416565b6108658161135a565b6001600160a01b038181166000908152600d6020526040808220600c5491516370a0823160e01b8152306004820152929390928492909116906370a082319060240160206040518083038186803b15801561110457600080fd5b505afa158015611118573d6000803e3d6000fd5b505050506040513d601f19601f8201168201806040525081019061113c9190611760565b90506006544311801561114e57508015155b156111d6576000611161600654436113e8565b9050600060095482611173919061199e565b9050600083600a5483611186919061199e565b6111909190611891565b60035461119d9190611879565b90508460010154600a548287600001546111b7919061199e565b6111c19190611891565b6111cb91906119bd565b979650505050505050565b6001820154600a5460035484546111ed919061199e565b6111f79190611891565b61120191906119bd565b949350505050565b600654431161121457565b600c546040516370a0823160e01b81523060048201526000916001600160a01b0316906370a082319060240160206040518083038186803b15801561125857600080fd5b505afa15801561126c573d6000803e3d6000fd5b505050506040513d601f19601f820116820180604052508101906112909190611760565b90508061129e575043600655565b60006112ac600654436113e8565b90506000600954826112be919061199e565b905082600a54826112cf919061199e565b6112d99190611891565b6003546112e69190611879565b60035550504360065550565b6040516001600160a01b03831660248201526044810182905261135590849063a9059cbb60e01b906064015b60408051601f198184030181529190526020810180516001600160e01b03166001600160e01b031990931692909217909152611429565b505050565b600080546001600160a01b038381166001600160a01b0319831681178455604051919092169283917f8be0079c531659141344cd1fd0a4f28419497f9722a3daafe3b4186f6b6457e09190a35050565b6040516001600160a01b03808516602483015283166044820152606481018290526113e29085906323b872dd60e01b9060840161131e565b50505050565b60006004548211611404576113fd83836119bd565b9050611423565b600454831061141557506000611423565b826004546113fd91906119bd565b92915050565b600061147e826040518060400160405280602081526020017f5361666545524332303a206c6f772d6c6576656c2063616c6c206661696c6564815250856001600160a01b03166114fb9092919063ffffffff16565b805190915015611355578080602001905181019061149c9190611682565b6113555760405162461bcd60e51b815260206004820152602a60248201527f5361666545524332303a204552433230206f7065726174696f6e20646964206e6044820152691bdd081cdd58d8d9595960b21b6064820152608401610416565b606061150a8484600085611514565b90505b9392505050565b6060824710156115755760405162461bcd60e51b815260206004820152602660248201527f416464726573733a20696e73756666696369656e742062616c616e636520666f6044820152651c8818d85b1b60d21b6064820152608401610416565b843b6115c35760405162461bcd60e51b815260206004820152601d60248201527f416464726573733a2063616c6c20746f206e6f6e2d636f6e74726163740000006044820152606401610416565b600080866001600160a01b031685876040516115df91906117be565b60006040518083038185875af1925050503d806000811461161c576040519150601f19603f3d011682016040523d82523d6000602084013e611621565b606091505b50915091506111cb8282866060831561163b57508161150d565b82511561164b5782518084602001fd5b8160405162461bcd60e51b815260040161041691906117da565b60006020828403121561167757600080fd5b813561150d81611a16565b60006020828403121561169457600080fd5b815161150d81611a2b565b600080604083850312156116b257600080fd5b82356116bd81611a2b565b946020939093013593505050565b600080600080600080600080610100898b0312156116e857600080fd5b88356116f381611a16565b9750602089013561170381611a16565b965060408901359550606089013594506080890135935060a0890135925060c0890135915060e089013561173681611a16565b809150509295985092959890939650565b60006020828403121561175957600080fd5b5035919050565b60006020828403121561177257600080fd5b5051919050565b6000806040838503121561178c57600080fd5b50508035926020909101359150565b6000602082840312156117ad57600080fd5b815160ff8116811461150d57600080fd5b600082516117d08184602087016119d4565b9190910192915050565b60208152600082518060208401526117f98160408501602087016119d4565b601f01601f19169190910160400192915050565b6020808252818101527f4f776e61626c653a2063616c6c6572206973206e6f7420746865206f776e6572604082015260600190565b6020808252601f908201527f5265656e7472616e637947756172643a207265656e7472616e742063616c6c00604082015260600190565b6000821982111561188c5761188c611a00565b500190565b6000826118ae57634e487b7160e01b600052601260045260246000fd5b500490565b600181815b808511156118ee5781600019048211156118d4576118d4611a00565b808516156118e157918102915b93841c93908002906118b8565b509250929050565b600061150d838360008261190c57506001611423565b8161191957506000611423565b816001811461192f576002811461193957611955565b6001915050611423565b60ff84111561194a5761194a611a00565b50506001821b611423565b5060208310610133831016604e8410600b8410161715611978575081810a611423565b61198283836118b3565b806000190482111561199657611996611a00565b029392505050565b60008160001904831182151516156119b8576119b8611a00565b500290565b6000828210156119cf576119cf611a00565b500390565b60005b838110156119ef5781810151838201526020016119d7565b838111156113e25750506000910152565b634e487b7160e01b600052601160045260246000fd5b6001600160a01b038116811461086557600080fd5b801515811461086557600080fdfea2646970667358221220bf2f41663aa88951049b0191d1ed3dd616be8a2bb102730db59052e0b31fef8f64736f6c63430008070033",
  "immutableReferences": {
    "779": [
      {
        "length": 32,
        "start": 877
      },
      {
        "length": 32,
        "start": 1271
      }
    ]
  },
  "source": "/**\n *Submitted for verification at BscScan.com on 2021-05-05\n*/\n\n// File: @openzeppelin/contracts/utils/Context.sol\n\n// SPDX-License-Identifier: MIT\npragma solidity ^0.8.0;\n\n//import \"hardhat/console.sol\";\n\ninterface IERC20 {\n    /**\n     * @dev Returns the amount of tokens in existence.\n     */\n    function totalSupply() external view returns (uint256);\n\n    /**\n     * @dev Returns the amount of tokens owned by `account`.\n     */\n    function balanceOf(address account) external view returns (uint256);\n\n    /**\n     * @dev Moves `amount` tokens from the caller's account to `recipient`.\n     *\n     * Returns a boolean value indicating whether the operation succeeded.\n     *\n     * Emits a {Transfer} event.\n     */\n    function transfer(address recipient, uint256 amount) external returns (bool);\n\n    /**\n     * @dev Returns the remaining number of tokens that `spender` will be\n     * allowed to spend on behalf of `owner` through {transferFrom}. This is\n     * zero by default.\n     *\n     * This value changes when {approve} or {transferFrom} are called.\n     */\n    function allowance(address owner, address spender) external view returns (uint256);\n\n    /**\n     * @dev Sets `amount` as the allowance of `spender` over the caller's tokens.\n     *\n     * Returns a boolean value indicating whether the operation succeeded.\n     *\n     * IMPORTANT: Beware that changing an allowance with this method brings the risk\n     * that someone may use both the old and the new allowance by unfortunate\n     * transaction ordering. One possible solution to mitigate this race\n     * condition is to first reduce the spender's allowance to 0 and set the\n     * desired value afterwards:\n     * https://github.com/ethereum/EIPs/issues/20#issuecomment-263524729\n     *\n     * Emits an {Approval} event.\n     */\n    function approve(address spender, uint256 amount) external returns (bool);\n\n    /**\n     * @dev Moves `amount` tokens from `sender` to `recipient` using the\n     * allowance mechanism. `amount` is then deducted from the caller's\n     * allowance.\n     *\n     * Returns a boolean value indicating whether the operation succeeded.\n     *\n     * Emits a {Transfer} event.\n     */\n    function transferFrom(\n        address sender,\n        address recipient,\n        uint256 amount\n    ) external returns (bool);\n\n    /**\n     * @dev Emitted when `value` tokens are moved from one account (`from`) to\n     * another (`to`).\n     *\n     * Note that `value` may be zero.\n     */\n    event Transfer(address indexed from, address indexed to, uint256 value);\n\n    /**\n     * @dev Emitted when the allowance of a `spender` for an `owner` is set by\n     * a call to {approve}. `value` is the new allowance.\n     */\n    event Approval(address indexed owner, address indexed spender, uint256 value);\n}\n\n/**\n * @dev Interface for the optional metadata functions from the ERC20 standard.\n *\n * _Available since v4.1._\n */\ninterface IERC20Metadata is IERC20 {\n    /**\n     * @dev Returns the name of the token.\n     */\n    function name() external view returns (string memory);\n\n    /**\n     * @dev Returns the symbol of the token.\n     */\n    function symbol() external view returns (string memory);\n\n    /**\n     * @dev Returns the decimals places of the token.\n     */\n    function decimals() external view returns (uint8);\n}\n\n/*\n * @dev Provides information about the current execution context, including the\n * sender of the transaction and its data. While these are generally available\n * via msg.sender and msg.data, they should not be accessed in such a direct\n * manner, since when dealing with meta-transactions the account sending and\n * paying for execution may not be the actual sender (as far as an application\n * is concerned).\n *\n * This contract is only required for intermediate, library-like contracts.\n */\nabstract contract Context {\n    function _msgSender() internal view virtual returns (address) {\n        return msg.sender;\n    }\n\n    function _msgData() internal view virtual returns (bytes calldata) {\n        return msg.data;\n    }\n}\n\n// File: @openzeppelin/contracts/access/Ownable.sol\n\nabstract contract Ownable is Context {\n    address private _owner;\n\n    event OwnershipTransferred(address indexed previousOwner, address indexed newOwner);\n\n    /**\n     * @dev Initializes the contract setting the deployer as the initial owner.\n     */\n    constructor() {\n        _setOwner(_msgSender());\n    }\n\n    /**\n     * @dev Returns the address of the current owner.\n     */\n    function owner() public view virtual returns (address) {\n        return _owner;\n    }\n\n    /**\n     * @dev Throws if called by any account other than the owner.\n     */\n    modifier onlyOwner() {\n        require(owner() == _msgSender(), \"Ownable: caller is not the owner\");\n        _;\n    }\n\n    /**\n     * @dev Leaves the contract without owner. It will not be possible to call\n     * `onlyOwner` functions anymore. Can only be called by the current owner.\n     *\n     * NOTE: Renouncing ownership will leave the contract without an owner,\n     * thereby removing any functionality that is only available to the owner.\n     */\n    function renounceOwnership() public virtual onlyOwner {\n        _setOwner(address(0));\n    }\n\n    /**\n     * @dev Transfers ownership of the contract to a new account (`newOwner`).\n     * Can only be called by the current owner.\n     */\n    function transferOwnership(address newOwner) public virtual onlyOwner {\n        require(newOwner != address(0), \"Ownable: new owner is the zero address\");\n        _setOwner(newOwner);\n    }\n\n    function _setOwner(address newOwner) private {\n        address oldOwner = _owner;\n        _owner = newOwner;\n        emit OwnershipTransferred(oldOwner, newOwner);\n    }\n}\n\n// File: @openzeppelin/contracts/utils/ReentrancyGuard.sol\n\n/**\n * @dev Contract module that helps prevent reentrant calls to a function.\n *\n * Inheriting from `ReentrancyGuard` will make the {nonReentrant} modifier\n * available, which can be applied to functions to make sure there are no nested\n * (reentrant) calls to them.\n *\n * Note that because there is a single `nonReentrant` guard, functions marked as\n * `nonReentrant` may not call one another. This can be worked around by making\n * those functions `private`, and then adding `external` `nonReentrant` entry\n * points to them.\n *\n * TIP: If you would like to learn more about reentrancy and alternative ways\n * to protect against it, check out our blog post\n * https://blog.openzeppelin.com/reentrancy-after-istanbul/[Reentrancy After Istanbul].\n */\nabstract contract ReentrancyGuard {\n    // Booleans are more expensive than uint256 or any type that takes up a full\n    // word because each write operation emits an extra SLOAD to first read the\n    // slot's contents, replace the bits taken up by the boolean, and then write\n    // back. This is the compiler's defense against contract upgrades and\n    // pointer aliasing, and it cannot be disabled.\n\n    // The values being non-zero value makes deployment a bit more expensive,\n    // but in exchange the refund on every call to nonReentrant will be lower in\n    // amount. Since refunds are capped to a percentage of the total\n    // transaction's gas, it is best to keep them low in cases like this one, to\n    // increase the likelihood of the full refund coming into effect.\n    uint256 private constant _NOT_ENTERED = 1;\n    uint256 private constant _ENTERED = 2;\n\n    uint256 private _status;\n\n    constructor() {\n        _status = _NOT_ENTERED;\n    }\n\n    /**\n     * @dev Prevents a contract from calling itself, directly or indirectly.\n     * Calling a `nonReentrant` function from another `nonReentrant`\n     * function is not supported. It is possible to prevent this from happening\n     * by making the `nonReentrant` function external, and make it call a\n     * `private` function that does the actual work.\n     */\n    modifier nonReentrant() {\n        // On the first call to nonReentrant, _notEntered will be true\n        require(_status != _ENTERED, \"ReentrancyGuard: reentrant call\");\n\n        // Any calls to nonReentrant after this point will fail\n        _status = _ENTERED;\n\n        _;\n\n        // By storing the original value once again, a refund is triggered (see\n        // https://eips.ethereum.org/EIPS/eip-2200)\n        _status = _NOT_ENTERED;\n    }\n}\n\n// File: @openzeppelin/contracts/utils/Address.sol\n\n/**\n * @dev Collection of functions related to the address type\n */\nlibrary Address {\n    /**\n     * @dev Returns true if `account` is a contract.\n     *\n     * [IMPORTANT]\n     * ====\n     * It is unsafe to assume that an address for which this function returns\n     * false is an externally-owned account (EOA) and not a contract.\n     *\n     * Among others, `isContract` will return false for the following\n     * types of addresses:\n     *\n     *  - an externally-owned account\n     *  - a contract in construction\n     *  - an address where a contract will be created\n     *  - an address where a contract lived, but was destroyed\n     * ====\n     */\n    function isContract(address account) internal view returns (bool) {\n        // This method relies on extcodesize, which returns 0 for contracts in\n        // construction, since the code is only stored at the end of the\n        // constructor execution.\n\n        uint256 size;\n        assembly {\n            size := extcodesize(account)\n        }\n        return size > 0;\n    }\n\n    /**\n     * @dev Replacement for Solidity's `transfer`: sends `amount` wei to\n     * `recipient`, forwarding all available gas and reverting on errors.\n     *\n     * https://eips.ethereum.org/EIPS/eip-1884[EIP1884] increases the gas cost\n     * of certain opcodes, possibly making contracts go over the 2300 gas limit\n     * imposed by `transfer`, making them unable to receive funds via\n     * `transfer`. {sendValue} removes this limitation.\n     *\n     * https://diligence.consensys.net/posts/2019/09/stop-using-soliditys-transfer-now/[Learn more].\n     *\n     * IMPORTANT: because control is transferred to `recipient`, care must be\n     * taken to not create reentrancy vulnerabilities. Consider using\n     * {ReentrancyGuard} or the\n     * https://solidity.readthedocs.io/en/v0.5.11/security-considerations.html#use-the-checks-effects-interactions-pattern[checks-effects-interactions pattern].\n     */\n    function sendValue(address payable recipient, uint256 amount) internal {\n        require(address(this).balance >= amount, \"Address: insufficient balance\");\n\n        (bool success, ) = recipient.call{value: amount}(\"\");\n        require(success, \"Address: unable to send value, recipient may have reverted\");\n    }\n\n    /**\n     * @dev Performs a Solidity function call using a low level `call`. A\n     * plain `call` is an unsafe replacement for a function call: use this\n     * function instead.\n     *\n     * If `target` reverts with a revert reason, it is bubbled up by this\n     * function (like regular Solidity function calls).\n     *\n     * Returns the raw returned data. To convert to the expected return value,\n     * use https://solidity.readthedocs.io/en/latest/units-and-global-variables.html?highlight=abi.decode#abi-encoding-and-decoding-functions[`abi.decode`].\n     *\n     * Requirements:\n     *\n     * - `target` must be a contract.\n     * - calling `target` with `data` must not revert.\n     *\n     * _Available since v3.1._\n     */\n    function functionCall(address target, bytes memory data) internal returns (bytes memory) {\n        return functionCall(target, data, \"Address: low-level call failed\");\n    }\n\n    /**\n     * @dev Same as {xref-Address-functionCall-address-bytes-}[`functionCall`], but with\n     * `errorMessage` as a fallback revert reason when `target` reverts.\n     *\n     * _Available since v3.1._\n     */\n    function functionCall(\n        address target,\n        bytes memory data,\n        string memory errorMessage\n    ) internal returns (bytes memory) {\n        return functionCallWithValue(target, data, 0, errorMessage);\n    }\n\n    /**\n     * @dev Same as {xref-Address-functionCall-address-bytes-}[`functionCall`],\n     * but also transferring `value` wei to `target`.\n     *\n     * Requirements:\n     *\n     * - the calling contract must have an ETH balance of at least `value`.\n     * - the called Solidity function must be `payable`.\n     *\n     * _Available since v3.1._\n     */\n    function functionCallWithValue(\n        address target,\n        bytes memory data,\n        uint256 value\n    ) internal returns (bytes memory) {\n        return functionCallWithValue(target, data, value, \"Address: low-level call with value failed\");\n    }\n\n    /**\n     * @dev Same as {xref-Address-functionCallWithValue-address-bytes-uint256-}[`functionCallWithValue`], but\n     * with `errorMessage` as a fallback revert reason when `target` reverts.\n     *\n     * _Available since v3.1._\n     */\n    function functionCallWithValue(\n        address target,\n        bytes memory data,\n        uint256 value,\n        string memory errorMessage\n    ) internal returns (bytes memory) {\n        require(address(this).balance >= value, \"Address: insufficient balance for call\");\n        require(isContract(target), \"Address: call to non-contract\");\n\n        (bool success, bytes memory returndata) = target.call{value: value}(data);\n        return _verifyCallResult(success, returndata, errorMessage);\n    }\n\n    /**\n     * @dev Same as {xref-Address-functionCall-address-bytes-}[`functionCall`],\n     * but performing a static call.\n     *\n     * _Available since v3.3._\n     */\n    function functionStaticCall(address target, bytes memory data) internal view returns (bytes memory) {\n        return functionStaticCall(target, data, \"Address: low-level static call failed\");\n    }\n\n    /**\n     * @dev Same as {xref-Address-functionCall-address-bytes-string-}[`functionCall`],\n     * but performing a static call.\n     *\n     * _Available since v3.3._\n     */\n    function functionStaticCall(\n        address target,\n        bytes memory data,\n        string memory errorMessage\n    ) internal view returns (bytes memory) {\n        require(isContract(target), \"Address: static call to non-contract\");\n\n        (bool success, bytes memory returndata) = target.staticcall(data);\n        return _verifyCallResult(success, returndata, errorMessage);\n    }\n\n    /**\n     * @dev Same as {xref-Address-functionCall-address-bytes-}[`functionCall`],\n     * but performing a delegate call.\n     *\n     * _Available since v3.4._\n     */\n    function functionDelegateCall(address target, bytes memory data) internal returns (bytes memory) {\n        return functionDelegateCall(target, data, \"Address: low-level delegate call failed\");\n    }\n\n    /**\n     * @dev Same as {xref-Address-functionCall-address-bytes-string-}[`functionCall`],\n     * but performing a delegate call.\n     *\n     * _Available since v3.4._\n     */\n    function functionDelegateCall(\n        address target,\n        bytes memory data,\n        string memory errorMessage\n    ) internal returns (bytes memory) {\n        require(isContract(target), \"Address: delegate call to non-contract\");\n\n        (bool success, bytes memory returndata) = target.delegatecall(data);\n        return _verifyCallResult(success, returndata, errorMessage);\n    }\n\n    function _verifyCallResult(\n        bool success,\n        bytes memory returndata,\n        string memory errorMessage\n    ) private pure returns (bytes memory) {\n        if (success) {\n            return returndata;\n        } else {\n            // Look for revert reason and bubble it up if present\n            if (returndata.length > 0) {\n                // The easiest way to bubble the revert reason is using memory via assembly\n\n                assembly {\n                    let returndata_size := mload(returndata)\n                    revert(add(32, returndata), returndata_size)\n                }\n            } else {\n                revert(errorMessage);\n            }\n        }\n    }\n}\n\n// File: \"@openzeppelin/contracts/token/ERC20/utils/SafeERC20.sol\";\n\n/**\n * @title SafeERC20\n * @dev Wrappers around ERC20 operations that throw on failure (when the token\n * contract returns false). Tokens that return no value (and instead revert or\n * throw on failure) are also supported, non-reverting calls are assumed to be\n * successful.\n * To use this library you can add a `using SafeERC20 for IERC20;` statement to your contract,\n * which allows you to call the safe operations as `token.safeTransfer(...)`, etc.\n */\nlibrary SafeERC20 {\n    using Address for address;\n\n    function safeTransfer(\n        IERC20 token,\n        address to,\n        uint256 value\n    ) internal {\n        _callOptionalReturn(token, abi.encodeWithSelector(token.transfer.selector, to, value));\n    }\n\n    function safeTransferFrom(\n        IERC20 token,\n        address from,\n        address to,\n        uint256 value\n    ) internal {\n        _callOptionalReturn(token, abi.encodeWithSelector(token.transferFrom.selector, from, to, value));\n    }\n\n    /**\n     * @dev Deprecated. This function has issues similar to the ones found in\n     * {IERC20-approve}, and its usage is discouraged.\n     *\n     * Whenever possible, use {safeIncreaseAllowance} and\n     * {safeDecreaseAllowance} instead.\n     */\n    function safeApprove(\n        IERC20 token,\n        address spender,\n        uint256 value\n    ) internal {\n        // safeApprove should only be called when setting an initial allowance,\n        // or when resetting it to zero. To increase and decrease it, use\n        // 'safeIncreaseAllowance' and 'safeDecreaseAllowance'\n        require(\n            (value == 0) || (token.allowance(address(this), spender) == 0),\n            \"SafeERC20: approve from non-zero to non-zero allowance\"\n        );\n        _callOptionalReturn(token, abi.encodeWithSelector(token.approve.selector, spender, value));\n    }\n\n    function safeIncreaseAllowance(\n        IERC20 token,\n        address spender,\n        uint256 value\n    ) internal {\n        uint256 newAllowance = token.allowance(address(this), spender) + value;\n        _callOptionalReturn(token, abi.encodeWithSelector(token.approve.selector, spender, newAllowance));\n    }\n\n    function safeDecreaseAllowance(\n        IERC20 token,\n        address spender,\n        uint256 value\n    ) internal {\n    unchecked {\n        uint256 oldAllowance = token.allowance(address(this), spender);\n        require(oldAllowance >= value, \"SafeERC20: decreased allowance below zero\");\n        uint256 newAllowance = oldAllowance - value;\n        _callOptionalReturn(token, abi.encodeWithSelector(token.approve.selector, spender, newAllowance));\n    }\n    }\n\n    /**\n     * @dev Imitates a Solidity high-level call (i.e. a regular function call to a contract), relaxing the requirement\n     * on the return value: the return value is optional (but if data is returned, it must not be false).\n     * @param token The token targeted by the call.\n     * @param data The call data (encoded using abi.encode or one of its variants).\n     */\n    function _callOptionalReturn(IERC20 token, bytes memory data) private {\n        // We need to perform a low level call here, to bypass Solidity's return data size checking mechanism, since\n        // we're implementing it ourselves. We use {Address.functionCall} to perform this call, which verifies that\n        // the target address contains contract code and also asserts for success in the low-level call.\n\n        bytes memory returndata = address(token).functionCall(data, \"SafeERC20: low-level call failed\");\n        if (returndata.length > 0) {\n            // Return data is optional\n            require(abi.decode(returndata, (bool)), \"SafeERC20: ERC20 operation did not succeed\");\n        }\n    }\n}\n\n\n// File: contracts/SmartChefInitializable.sol\n\ncontract SmartChefInitializable is Ownable, ReentrancyGuard {\n    using SafeERC20 for IERC20Metadata;\n\n    // The address of the smart chef factory\n    address public immutable SMART_CHEF_FACTORY;\n\n    // Whether a limit is set for users\n    bool public userLimit;\n\n    // Whether it is initialized\n    bool public isInitialized;\n\n    // Accrued token per share\n    uint256 public accTokenPerShare;\n\n    // The block number when CAKE mining ends.\n    uint256 public bonusEndBlock;\n\n    // The block number when CAKE mining starts.\n    uint256 public startBlock;\n\n    // The block number of the last pool update\n    uint256 public lastRewardBlock;\n\n    // The pool limit (0 if none)\n    uint256 public poolLimitPerUser;\n\n    // Block numbers available for user limit (after start block)\n    uint256 public numberBlocksForUserLimit;\n\n    // Pancake profile\n   //IPancakeProfile public immutable pancakeProfile;\n\n    // Pancake Profile is requested\n   // bool public pancakeProfileIsRequested;\n\n    // Pancake Profile points threshold\n   // uint256 public pancakeProfileThresholdPoints;\n\n    // CAKE tokens created per block.\n    uint256 public rewardPerBlock;\n\n    // The precision factor\n    uint256 public PRECISION_FACTOR;\n\n    // The reward token\n    IERC20Metadata public rewardToken;\n\n    // The staked token\n    IERC20Metadata public stakedToken;\n\n    // Info of each user that stakes tokens (stakedToken)\n    mapping(address => UserInfo) public userInfo;\n\n    struct UserInfo {\n        uint256 amount; // How many staked tokens the user has provided\n        uint256 rewardDebt; // Reward debt\n    }\n\n    event Deposit(address indexed user, uint256 amount);\n    event EmergencyWithdraw(address indexed user, uint256 amount);\n    event NewStartAndEndBlocks(uint256 startBlock, uint256 endBlock);\n    event NewRewardPerBlock(uint256 rewardPerBlock);\n    event NewPoolLimit(uint256 poolLimitPerUser);\n    event RewardsStop(uint256 blockNumber);\n    event TokenRecovery(address indexed token, uint256 amount);\n    event Withdraw(address indexed user, uint256 amount);\n    //event UpdateProfileAndThresholdPointsRequirement(bool isProfileRequested, uint256 thresholdPoints);\n\n    /*\n     * @notice Constructor\n     * @param _pancakeProfile: Pancake Profile address\n     * @param _pancakeProfileIsRequested: Pancake Profile is requested\n     * @param _pancakeProfileThresholdPoints: Pancake Profile need threshold points\n     */\n    constructor() {\n        SMART_CHEF_FACTORY = msg.sender;\n\n        // Call to verify the address is correct\n        //IPancakeProfile(_pancakeProfile).getTeamProfile(1);\n        //pancakeProfile = IPancakeProfile(_pancakeProfile);\n\n        // if pancakeProfile is requested\n       // pancakeProfileIsRequested = _pancakeProfileIsRequested;\n\n        // pancakeProfile threshold points when profile & points are requested\n        //pancakeProfileThresholdPoints = _pancakeProfileThresholdPoints;\n    }\n\n    /*\n     * @notice Initialize the contract\n     * @param _stakedToken: staked token address\n     * @param _rewardToken: reward token address\n     * @param _rewardPerBlock: reward per block (in rewardToken)\n     * @param _startBlock: start block\n     * @param _bonusEndBlock: end block\n     * @param _poolLimitPerUser: pool limit per user in stakedToken (if any, else 0)\n     * @param _numberBlocksForUserLimit: block numbers available for user limit (after start block)\n     * @param _admin: admin address with ownership\n     */\n    function initialize(\n        IERC20Metadata _stakedToken,\n        IERC20Metadata _rewardToken,\n        uint256 _rewardPerBlock,\n        uint256 _startBlock,\n        uint256 _bonusEndBlock,\n        uint256 _poolLimitPerUser,\n        uint256 _numberBlocksForUserLimit,\n        address _admin\n    ) external {\n        require(!isInitialized, \"Already initialized\");\n        require(msg.sender == SMART_CHEF_FACTORY, \"Not factory\");\n\n        // Make this contract initialized\n        isInitialized = true;\n\n        stakedToken = _stakedToken;\n        rewardToken = _rewardToken;\n        rewardPerBlock = _rewardPerBlock;\n        startBlock = _startBlock;\n        bonusEndBlock = _bonusEndBlock;\n\n        if (_poolLimitPerUser > 0) {\n            userLimit = true;\n            poolLimitPerUser = _poolLimitPerUser;\n            numberBlocksForUserLimit = _numberBlocksForUserLimit;\n        }\n\n        uint256 decimalsRewardToken = uint256(rewardToken.decimals());\n        require(decimalsRewardToken < 30, \"Must be less than 30\");\n\n        PRECISION_FACTOR = uint256(10**(uint256(30) - decimalsRewardToken));\n\n        // Set the lastRewardBlock as the startBlock\n        lastRewardBlock = startBlock;\n\n        // Transfer ownership to the admin address who becomes owner of the contract\n        transferOwnership(_admin);\n    }\n\n    /*\n     * @notice Deposit staked tokens and collect reward tokens (if any)\n     * @param _amount: amount to withdraw (in rewardToken)\n     */\n    function deposit(uint256 _amount) external nonReentrant {\n        UserInfo storage user = userInfo[msg.sender];\n        // Checks whether the user has an active profile\n        userLimit = hasUserLimit();\n\n        require(!userLimit || ((_amount + user.amount) <= poolLimitPerUser), \"Deposit: Amount above limit\");\n\n        _updatePool();\n\n        if (user.amount > 0) {\n            uint256 pending = (user.amount * accTokenPerShare) / PRECISION_FACTOR - user.rewardDebt;\n            if (pending > 0) {\n                rewardToken.safeTransfer(address(msg.sender), pending);\n            }\n        }\n\n        if (_amount > 0) {\n            user.amount = user.amount + _amount;\n            stakedToken.safeTransferFrom(address(msg.sender), address(this), _amount);\n        }\n\n        user.rewardDebt = (user.amount * accTokenPerShare) / PRECISION_FACTOR;\n\n        emit Deposit(msg.sender, _amount);\n    }\n\n    /*\n     * @notice Withdraw staked tokens and collect reward tokens\n     * @param _amount: amount to withdraw (in rewardToken)\n     */\n    function withdraw(uint256 _amount) external nonReentrant {\n        UserInfo storage user = userInfo[msg.sender];\n        require(user.amount >= _amount, \"Amount to withdraw too high\");\n\n        _updatePool();\n\n        uint256 pending = (user.amount * accTokenPerShare) / PRECISION_FACTOR - user.rewardDebt;\n\n        if (_amount > 0) {\n            user.amount = user.amount - _amount;\n            stakedToken.safeTransfer(address(msg.sender), _amount);\n        }\n\n        if (pending > 0) {\n            rewardToken.safeTransfer(address(msg.sender), pending);\n        }\n\n        user.rewardDebt = (user.amount * accTokenPerShare) / PRECISION_FACTOR;\n\n        emit Withdraw(msg.sender, _amount);\n    }\n\n    /*\n     * @notice Withdraw staked tokens without caring about rewards rewards\n     * @dev Needs to be for emergency.\n     */\n    function emergencyWithdraw() external nonReentrant {\n        UserInfo storage user = userInfo[msg.sender];\n        uint256 amountToTransfer = user.amount;\n        user.amount = 0;\n        user.rewardDebt = 0;\n\n        if (amountToTransfer > 0) {\n            stakedToken.safeTransfer(address(msg.sender), amountToTransfer);\n        }\n\n        emit EmergencyWithdraw(msg.sender, user.amount);\n    }\n\n    /*\n     * @notice Stop rewards\n     * @dev Only callable by owner. Needs to be for emergency.\n     */\n    function emergencyRewardWithdraw(uint256 _amount) external onlyOwner {\n        rewardToken.safeTransfer(address(msg.sender), _amount);\n    }\n\n    /**\n     * @notice Allows the owner to recover tokens sent to the contract by mistake\n     * @param _token: token address\n     * @dev Callable by owner\n     */\n    function recoverToken(address _token) external onlyOwner {\n        require(_token != address(stakedToken), \"Operations: Cannot recover staked token\");\n        require(_token != address(rewardToken), \"Operations: Cannot recover reward token\");\n\n        uint256 balance = IERC20Metadata(_token).balanceOf(address(this));\n        require(balance != 0, \"Operations: Cannot recover zero balance\");\n\n        IERC20Metadata(_token).safeTransfer(address(msg.sender), balance);\n\n        emit TokenRecovery(_token, balance);\n    }\n\n    /*\n     * @notice Stop rewards\n     * @dev Only callable by owner\n     */\n    function stopReward() external onlyOwner {\n        bonusEndBlock = block.number;\n    }\n\n    /*\n     * @notice Update pool limit per user\n     * @dev Only callable by owner.\n     * @param _userLimit: whether the limit remains forced\n     * @param _poolLimitPerUser: new pool limit per user\n     */\n    function updatePoolLimitPerUser(bool _userLimit, uint256 _poolLimitPerUser) external onlyOwner {\n        require(userLimit, \"Must be set\");\n        if (_userLimit) {\n            require(_poolLimitPerUser > poolLimitPerUser, \"New limit must be higher\");\n            poolLimitPerUser = _poolLimitPerUser;\n        } else {\n            userLimit = _userLimit;\n            poolLimitPerUser = 0;\n        }\n        emit NewPoolLimit(poolLimitPerUser);\n    }\n\n    /*\n     * @notice Update reward per block\n     * @dev Only callable by owner.\n     * @param _rewardPerBlock: the reward per block\n     */\n    function updateRewardPerBlock(uint256 _rewardPerBlock) external onlyOwner {\n        require(block.number < startBlock, \"Pool has started\");\n        rewardPerBlock = _rewardPerBlock;\n        emit NewRewardPerBlock(_rewardPerBlock);\n    }\n\n    /**\n     * @notice It allows the admin to update start and end blocks\n     * @dev This function is only callable by owner.\n     * @param _startBlock: the new start block\n     * @param _bonusEndBlock: the new end block\n     */\n    function updateStartAndEndBlocks(uint256 _startBlock, uint256 _bonusEndBlock) external onlyOwner {\n        require(block.number < startBlock, \"Pool has started\");\n        require(_startBlock < _bonusEndBlock, \"New startBlock must be lower than new endBlock\");\n        require(block.number < _startBlock, \"New startBlock must be higher than current block\");\n\n        startBlock = _startBlock;\n        bonusEndBlock = _bonusEndBlock;\n\n        // Set the lastRewardBlock as the startBlock\n        lastRewardBlock = startBlock;\n\n        emit NewStartAndEndBlocks(_startBlock, _bonusEndBlock);\n    }\n\n    /*\n     * @notice View function to see pending reward on frontend.\n     * @param _user: user address\n     * @return Pending reward for a given user\n     */\n    function pendingReward(address _user) external view returns (uint256) {\n        UserInfo storage user = userInfo[_user];\n        uint256 stakedTokenSupply = stakedToken.balanceOf(address(this));\n        if (block.number > lastRewardBlock && stakedTokenSupply != 0) {\n            uint256 multiplier = _getMultiplier(lastRewardBlock, block.number);\n            uint256 cakeReward = multiplier * rewardPerBlock;\n            uint256 adjustedTokenPerShare = accTokenPerShare + (cakeReward * PRECISION_FACTOR) / stakedTokenSupply;\n            return (user.amount * adjustedTokenPerShare) / PRECISION_FACTOR - user.rewardDebt;\n        } else {\n            return (user.amount * accTokenPerShare) / PRECISION_FACTOR - user.rewardDebt;\n        }\n    }\n\n    /*\n     * @notice Update reward variables of the given pool to be up-to-date.\n     */\n    function _updatePool() internal {\n        if (block.number <= lastRewardBlock) {\n            return;\n        }\n\n        uint256 stakedTokenSupply = stakedToken.balanceOf(address(this));\n\n        if (stakedTokenSupply == 0) {\n            lastRewardBlock = block.number;\n            return;\n        }\n\n        uint256 multiplier = _getMultiplier(lastRewardBlock, block.number);\n        uint256 cakeReward = multiplier * rewardPerBlock;\n        accTokenPerShare = accTokenPerShare + (cakeReward * PRECISION_FACTOR) / stakedTokenSupply;\n        lastRewardBlock = block.number;\n    }\n\n    /*\n     * @notice Return reward multiplier over the given _from to _to block.\n     * @param _from: block to start\n     * @param _to: block to finish\n     */\n    function _getMultiplier(uint256 _from, uint256 _to) internal view returns (uint256) {\n        if (_to <= bonusEndBlock) {\n            return _to - _from;\n        } else if (_from >= bonusEndBlock) {\n            return 0;\n        } else {\n            return bonusEndBlock - _from;\n        }\n    }\n\n    /*\n     * @notice Return user limit is set or zero.\n     */\n    function hasUserLimit() public view returns (bool) {\n        if (!userLimit || (block.number >= (startBlock + numberBlocksForUserLimit))) {\n            return false;\n        }\n\n        return true;\n    }\n}\n\n// File: contracts/SmartChefFactory.sol\n\ncontract SmartChefFactory is Ownable {\n    event NewSmartChefContract(address indexed smartChef);\n\n    constructor() {\n        //\n    }\n\n    /*\n     * @notice Deploy the pool\n     * @param _stakedToken: staked token address\n     * @param _rewardToken: reward token address\n     * @param _rewardPerBlock: reward per block (in rewardToken)\n     * @param _startBlock: start block\n     * @param _endBlock: end block\n     * @param _poolLimitPerUser: pool limit per user in stakedToken (if any, else 0)\n     * @param _numberBlocksForUserLimit: block numbers available for user limit (after start block)\n     * @param _pancakeProfile: Pancake Profile address\n     * @param _pancakeProfileIsRequested: Pancake Profile is requested\n     * @param _pancakeProfileThresholdPoints: Pancake Profile need threshold points\n     * @param _admin: admin address with ownership\n     * @return address of new smart chef contract\n     */\n    function deployPool(\n        IERC20Metadata _stakedToken,\n        IERC20Metadata _rewardToken,\n        uint256 _rewardPerBlock,\n        uint256 _startBlock,\n        uint256 _bonusEndBlock,\n        uint256 _poolLimitPerUser,\n        uint256 _numberBlocksForUserLimit,\n        //address _pancakeProfile,\n        //bool _pancakeProfileIsRequested,\n        //uint256 _pancakeProfileThresholdPoints,\n        address _admin\n    ) external onlyOwner {\n        require(_stakedToken.totalSupply() >= 0);\n        require(_rewardToken.totalSupply() >= 0);\n        require(_stakedToken != _rewardToken, \"Tokens must be be different\");\n\n        bytes memory bytecode = type(SmartChefInitializable).creationCode;\n        // pass constructor argument\n        bytes32 salt = keccak256(abi.encodePacked(_stakedToken, _rewardToken, _startBlock));\n        address smartChefAddress;\n\n        assembly {\n            smartChefAddress := create2(0, add(bytecode, 32), mload(bytecode), salt)\n        }\n\n        SmartChefInitializable(smartChefAddress).initialize(\n            _stakedToken,\n            _rewardToken,\n            _rewardPerBlock,\n            _startBlock,\n            _bonusEndBlock,\n            _poolLimitPerUser,\n            _numberBlocksForUserLimit,\n            _admin\n        );\n\n        emit NewSmartChefContract(smartChefAddress);\n    }\n}\n",
  "sourcePath": "/home/sa/Desktop/All Folder/Sayed/sayed12/Sayed/contracts/SmartChefFactory.sol",
  "compiler": {
    "name": "solc",
    "version": "0.8.7+commit.e28d00a7.Emscripten.clang"
  },
  "schemaVersion": "3.4.4",
  "updatedAt": "2022-08-09T04:45:28.194Z",
  "networkType": "ethereum",
  "devdoc": {
    "kind": "dev",
    "methods": {
      "owner()": {
        "details": "Returns the address of the current owner."
      },
      "recoverToken(address)": {
        "details": "Callable by owner",
        "params": {
          "_token": ": token address"
        }
      },
      "renounceOwnership()": {
        "details": "Leaves the contract without owner. It will not be possible to call `onlyOwner` functions anymore. Can only be called by the current owner. NOTE: Renouncing ownership will leave the contract without an owner, thereby removing any functionality that is only available to the owner."
      },
      "transferOwnership(address)": {
        "details": "Transfers ownership of the contract to a new account (`newOwner`). Can only be called by the current owner."
      },
      "updateStartAndEndBlocks(uint256,uint256)": {
        "details": "This function is only callable by owner.",
        "params": {
          "_bonusEndBlock": ": the new end block",
          "_startBlock": ": the new start block"
        }
      }
    },
    "version": 1
  },
  "userdoc": {
    "kind": "user",
    "methods": {
      "recoverToken(address)": {
        "notice": "Allows the owner to recover tokens sent to the contract by mistake"
      },
      "updateStartAndEndBlocks(uint256,uint256)": {
        "notice": "It allows the admin to update start and end blocks"
      }
    },
    "version": 1
  }
}